:020000040800F2
:100000000050002031450008651200086712000802
:10001000691200086B1200086D1200080000000051
:100020000000000000000000000000006F12000847
:100030007112000800000000731200087512000819
:100040007945000879450008794500087945000898
:100050007945000879450008794500087945000888
:100060007945000879450008794500087D120008A7
:100070007945000879450008794500087945000868
:100080007945000879450008794500087945000858
:100090007945000879450008794500087945000848
:1000A0007945000879450008794500087945000838
:1000B000794500088D1200089D1200087945000856
:1000C0007945000879450008794500087945000818
:1000D00079450008AD120008794500087945000807
:1000E00079450008794500087945000800000000BE
:1000F0000000000000000000000000000000000000
:0C01000000000000000000005FF808F1A3
:1001100010B5054C237833B9044B13B10448AFF341
:1001200000800123237010BDF001002000000000BA
:10013000B46E000808B5034B1BB103490348AFF385
:10014000008008BD00000000F4010020B46E00082B
:10015000034613F8012B002AFBD1181A0138704707
:1001600081F0004102E000BF83F0004330B54FEA68
:1001700041044FEA430594EA050F08BF90EA020FD5
:100180001FBF54EA000C55EA020C7FEA645C7FEA68
:10019000655C00F0E2804FEA5454D4EB5555B8BF8B
:1001A0006D420CDD2C4480EA020281EA030382EAFC
:1001B000000083EA010180EA020281EA0303362D8E
:1001C00088BF30BD11F0004F4FEA01314FF4801C61
:1001D0004CEA113102D0404261EB410113F0004F73
:1001E0004FEA03334CEA133302D0524263EB43032A
:1001F00094EA050F00F0A780A4F10104D5F1200EC8
:100200000DDB02FA0EFC22FA05F2801841F1000122
:1002100003FA0EF2801843FA05F359410EE0A5F1F6
:1002200020050EF1200E012A03FA0EFC28BF4CF027
:10023000020C43FA05F3C01851EBE37101F00045DD
:1002400007D54FF0000EDCF1000C7EEB00006EEBEA
:100250000101B1F5801F1BD3B1F5001F0CD3490874
:100260005FEA30004FEA3C0C04F101044FEA4452CB
:1002700012F5800F80F09A80BCF1004F08BF5FEA52
:10028000500C50F1000041EB045141EA050130BD32
:100290005FEA4C0C404141EB010111F4801FA4F1D5
:1002A0000104E9D191F0000F04BF01460020B1FA2A
:1002B00081F308BF2033A3F10B03B3F120020CDA62
:1002C0000C3208DD02F1140CC2F10C0201FA0CF040
:1002D00021FA02F10CE002F11402D8BFC2F1200CA5
:1002E00001FA02F120FA0CFCDCBF41EA0C0190405B
:1002F000E41AA2BF01EB0451294330BD6FEA0404A4
:100300001F3C1CDA0C340EDC04F11404C4F120028E
:1003100020FA04F001FA02F340EA030021FA04F3A0
:1003200045EA030130BDC4F10C04C4F1200220FAF7
:1003300002F001FA04F340EA0300294630BD21FA35
:1003400004F0294630BD94F0000F83F4801306BFFB
:1003500081F480110134013D4EE77FEA645C18BFEF
:100360007FEA655C29D094EA050F08BF90EA020F86
:1003700005D054EA000C04BF1946104630BD91EA7E
:10038000030F1EBF0021002030BD5FEA545C05D181
:100390004000494128BF41F0004130BD14F58004C0
:1003A0003CBF01F5801130BD01F0004545F0FE4134
:1003B00041F470014FF0000030BD7FEA645C1ABF69
:1003C000194610467FEA655C1CBF0B46024650EAA0
:1003D000013406BF52EA033591EA030F41F40021CC
:1003E00030BD00BF90F0000F04BF0021704730B552
:1003F0004FF4806404F132044FF000054FF0000127
:1004000050E700BF90F0000F04BF0021704730B5E7
:100410004FF4806404F1320410F0004548BF4042BC
:100420004FF000013EE700BF42004FEAE2014FEA11
:1004300031014FEA02701FBF12F07F4393F07F4FEC
:1004400081F06051704732F07F4208BF704793F0EF
:100450007F4F04BF41F40021704730B54FF4607402
:1004600001F0004521F000411CE700BF50EA010205
:1004700008BF704730B54FF000050AE050EA0102AE
:1004800008BF704730B511F0004502D5404261EB1E
:1004900041014FF4806404F132045FEA915C3FF45F
:1004A000D8AE4FF003025FEADC0C18BF03325FEAFC
:1004B000DC0C18BF033202EBDC02C2F1200300FAAD
:1004C00003FC20FA02F001FA03FE40EA0E0021FAD2
:1004D00002F11444BDE600BF70B54FF0FF0C4CF4C0
:1004E000E06C1CEA11541DBF1CEA135594EA0C0F72
:1004F00095EA0C0F00F0DEF82C4481EA030621EAAD
:100500004C5123EA4C5350EA013518BF52EA0335E7
:1005100041F4801143F4801338D0A0FB02CE4FF099
:100520000005E1FB02E506F00042E0FB03E54FF0C9
:100530000006E1FB03569CF0000F18BF4EF0010EC1
:10054000A4F1FF04B6F5007F64F5407404D25FEABD
:100550004E0E6D4146EB060642EAC62141EA555170
:100560004FEAC52040EA5E504FEACE2EB4F1FD0CB2
:1005700088BFBCF5E06F1ED8BEF1004F08BF5FEA30
:10058000500E50F1000041EB045170BD06F00046E2
:1005900046EA010140EA020081EA0301B4EB5C048F
:1005A000C2BFD4EB0C0541EA045170BD41F4801187
:1005B0004FF0000E013C00F3AB8014F1360FDEBFAC
:1005C000002001F0004170BDC4F10004203C35DA88
:1005D0000C341BDC04F11404C4F1200500FA05F30B
:1005E00020FA04F001FA05F240EA020001F00042AC
:1005F00021F0004110EBD37021FA04F642EB060122
:100600005EEA430E08BF20EAD37070BDC4F10C044B
:10061000C4F1200500FA04F320FA05F001FA04F20F
:1006200040EA020001F0004110EBD37041F10001FB
:100630005EEA430E08BF20EAD37070BDC4F1200506
:1006400000FA05F24EEA020E20FA04F301FA05F26E
:1006500043EA020321FA04F001F0004121FA04F216
:1006600020EA020000EBD3705EEA430E08BF20EAE6
:10067000D37070BD94F0000F0FD101F00046400020
:1006800041EB010111F4801F08BF013CF7D041EAA2
:10069000060195F0000F18BF704703F000465200A6
:1006A00043EB030313F4801F08BF013DF7D043EA77
:1006B0000603704794EA0C0F0CEA135518BF95EA2D
:1006C0000C0F0CD050EA410618BF52EA4306D1D1B4
:1006D00081EA030101F000414FF0000070BD50EAD3
:1006E000410606BF1046194652EA430619D094EA5D
:1006F0000C0F02D150EA013613D195EA0C0F05D147
:1007000052EA03361CBF104619460AD181EA03019A
:1007100001F0004141F0FE4141F470014FF0000052
:1007200070BD41F0FE4141F4780170BD70B54FF0ED
:10073000FF0C4CF4E06C1CEA11541DBF1CEA13556D
:1007400094EA0C0F95EA0C0F00F0A7F8A4EB05044F
:1007500081EA030E52EA03354FEA013100F0888046
:100760004FEA03334FF0805545EA131343EA12630F
:100770004FEA022245EA111545EA10654FEA0026C4
:100780000EF000419D4208BF964244F1FD0404F57D
:10079000407402D25B084FEA3202B61A65EB0305D9
:1007A0005B084FEA32024FF480104FF4002CB6EB96
:1007B000020E75EB030E22BFB61A754640EA0C0016
:1007C0005B084FEA3202B6EB020E75EB030E22BF56
:1007D000B61A754640EA5C005B084FEA3202B6EB97
:1007E000020E75EB030E22BFB61A754640EA9C0056
:1007F0005B084FEA3202B6EB020E75EB030E22BF26
:10080000B61A754640EADC0055EA060E18D04FEAE3
:10081000051545EA16754FEA06164FEAC30343EA83
:1008200052734FEAC2025FEA1C1CC0D111F4801F50
:100830000BD141EA00014FF000004FF0004CB6E749
:1008400011F4801F04BF01430020B4F1FD0C88BFE8
:10085000BCF5E06F3FF6AFAEB5EB030C04BFB6EBF3
:10086000020C5FEA500C50F1000041EB045170BDE6
:100870000EF0004E4EEA113114EB5C04C2BFD4EB13
:100880000C0541EA045170BD41F480114FF0000E97
:10089000013C90E645EA060E8DE60CEA135594EA13
:1008A0000C0F08BF95EA0C0F3FF43BAF94EA0C0F16
:1008B0000AD150EA01347FF434AF95EA0C0F7FF48B
:1008C00025AF104619462CE795EA0C0F06D152EADF
:1008D00003353FF4FDAE1046194622E750EA4106C3
:1008E00018BF52EA43067FF4C5AE50EA41047FF4D4
:1008F0000DAF52EA43057FF4EBAE12E74FF0FF3C39
:1009000006E000BF4FF0010C02E000BF4FF0010C09
:100910004DF804CD4FEA410C7FEA6C5C4FEA430C82
:1009200018BF7FEA6C5C1BD001B050EA410C0CBFD1
:1009300052EA430C91EA030F02BF90EA020F002033
:10094000704710F1000F91EA030F58BF994208BF9A
:1009500090422CBFD8176FEAE37040F00100704757
:100960004FEA410C7FEA6C5C02D150EA013C07D1AE
:100970004FEA430C7FEA6C5CD6D152EA033CD3D0F9
:100980005DF8040B704700BF8446104662468C46F3
:100990001946634600E000BF01B5FFF7B7FF002826
:1009A00048BF10F1000F01BD4DF808EDFFF7F4FF4F
:1009B0000CBF012000205DF808FB00BF4DF808EDDA
:1009C000FFF7EAFF34BF012000205DF808FB00BFFD
:1009D0004DF808EDFFF7E0FF94BF012000205DF81F
:1009E00008FB00BF4DF808EDFFF7CEFF94BF0120D4
:1009F00000205DF808FB00BF4DF808EDFFF7C4FFCD
:100A000034BF012000205DF808FB00BF4FEA410C15
:100A10007FEA6C5C02D150EA013C0AD14FEA430CF8
:100A20007FEA6C5C02D152EA033C02D14FF0000035
:100A300070474FF0010070474FEA410212F5001273
:100A400015D211D56FF47873B3EB625212D94FEA15
:100A5000C12343F0004343EA505311F0004F23FAFF
:100A600002F018BF404270474FF00000704750EA54
:100A7000013005D111F0004008BF6FF00040704711
:100A80004FF00000704700BF80F0004002E000BF60
:100A900081F0004142001FBF5FEA410392EA030F69
:100AA0007FEA226C7FEA236C6AD04FEA1262D2EBB3
:100AB0001363C1BFD218414048404140B8BF5B42B8
:100AC000192B88BF704710F0004F40F4000020F051
:100AD0007F4018BF404211F0004F41F4000121F067
:100AE0007F4118BF494292EA030F3FD0A2F10102B1
:100AF00041FA03FC10EB0C00C3F1200301FA03F1EF
:100B000000F0004302D5494260EB4000B0F5000F11
:100B100013D3B0F1807F06D340084FEA310102F1D0
:100B20000102FE2A51D2B1F1004F40EBC25008BF82
:100B300020F0010040EA03007047490040EB00004C
:100B400010F4000FA2F10102EDD1B0FA80FCACF17B
:100B5000080CB2EB0C0200FA0CF0AABF00EBC2507A
:100B600052421843BCBFD0401843704792F0000F68
:100B700081F4000106BF80F400000132013BB5E7BB
:100B80004FEA41037FEA226C18BF7FEA236C21D031
:100B900092EA030F04D092F0000F08BF0846704796
:100BA00090EA010F1CBF0020704712F07F4F04D164
:100BB000400028BF40F00040704712F100723CBF77
:100BC00000F50000704700F0004343F0FE4040F4A1
:100BD000000070477FEA226216BF08467FEA23635F
:100BE0000146420206BF5FEA412390EA010F40F44A
:100BF000800070474FF0000304E000BF10F0004396
:100C000048BF40425FEA000C08BF704743F096437C
:100C100001464FF000001CE050EA010208BF704797
:100C20004FF000030AE000BF50EA010208BF70471E
:100C300011F0004302D5404261EB41015FEA010C33
:100C400002BF84460146002043F0B64308BFA3F12B
:100C50008053A3F50003BCFA8CF2083AA3EBC2530D
:100C600010DB01FA02FC634400FA02FCC2F120022C
:100C7000BCF1004F20FA02F243EB020008BF20F063
:100C80000100704702F1200201FA02FCC2F12002C9
:100C900050EA4C0021FA02F243EB020008BF20EABE
:100CA000DC7070474FF0FF0C1CEAD0521EBF1CEAEC
:100CB000D15392EA0C0F93EA0C0F6FD01A4480EADA
:100CC000010C400218BF5FEA41211ED04FF00063C3
:100CD00043EA501043EA5111A0FB01310CF00040EF
:100CE000B1F5000F3EBF490041EAD3715B0040EA15
:100CF000010062F17F02FD2A1DD8B3F1004F40EBE5
:100D0000C25008BF20F00100704790F0000F0CF0B7
:100D1000004C08BF49024CEA502040EA51207F3A7B
:100D2000C2BFD2F1FF0340EAC250704740F4000056
:100D30004FF00003013A5DDC12F1190FDCBF00F047
:100D400000407047C2F10002410021FA02F1C2F1F5
:100D5000200200FA02FC5FEA310040F1000053EA91
:100D60004C0308BF20EADC70704792F0000F00F0DF
:100D7000004C02BF400010F4000F013AF9D040EAE5
:100D80000C0093F0000F01F0004C02BF490011F479
:100D9000000F013BF9D041EA0C018FE70CEAD15377
:100DA00092EA0C0F18BF93EA0C0F0AD030F0004CF7
:100DB00018BF31F0004CD8D180EA010000F00040AB
:100DC000704790F0000F17BF90F0004F084691F069
:100DD000000F91F0004F14D092EA0C0F01D14202A3
:100DE0000FD193EA0C0F03D14B0218BF084608D16C
:100DF00080EA010000F0004040F0FE4040F40000B6
:100E0000704740F0FE4040F4400070474FF0FF0C48
:100E10001CEAD0521EBF1CEAD15392EA0C0F93EA8F
:100E20000C0F69D0A2EB030280EA010C49024FEAE1
:100E3000402037D04FF0805343EA111143EA10139A
:100E40000CF000408B4238BF5B0042F17D024FF452
:100E5000000C8B4224BF5B1A40EA0C00B3EB510F2D
:100E600024BFA3EB510340EA5C00B3EB910F24BF16
:100E7000A3EB910340EA9C00B3EBD10F24BFA3EB9B
:100E8000D10340EADC001B0118BF5FEA1C1CE0D163
:100E9000FD2A3FF650AF8B4240EBC25008BF20F016
:100EA000010070470CF0004C4CEA50207F32C2BF6A
:100EB000D2F1FF0340EAC250704740F400004FF007
:100EC0000003013A37E792F0000F00F0004C02BF38
:100ED000400010F4000F013AF9D040EA0C0093F002
:100EE000000F01F0004C02BF490011F4000F013B5C
:100EF000F9D041EA0C0195E70CEAD15392EA0C0FC4
:100F000008D142027FF47DAF93EA0C0F7FF470AFFB
:100F1000084676E793EA0C0F04D14B023FF44CAF3E
:100F200008466EE730F0004C18BF31F0004CCAD1D3
:100F300030F000427FF45CAF31F000437FF43CAF0F
:100F40005FE700BF4FF0FF3C06E000BF4FF0010C31
:100F500002E000BF4FF0010C4DF804CD4FEA400213
:100F60004FEA41037FEA226C18BF7FEA236C11D05D
:100F700001B052EA530C18BF90EA010F58BFB2EB10
:100F8000030088BFC81738BF6FEAE17018BF40F090
:100F9000010070477FEA226C02D15FEA402C05D144
:100FA0007FEA236CE4D15FEA412CE1D05DF8040BC9
:100FB000704700BF844608466146FFE70FB5FFF75C
:100FC000C9FF002848BF10F1000F0FBD4DF808ED14
:100FD000FFF7F4FF0CBF012000205DF808FB00BF05
:100FE0004DF808EDFFF7EAFF34BF012000205DF85F
:100FF00008FB00BF4DF808EDFFF7E0FF94BF0120AC
:1010000000205DF808FB00BF4DF808EDFFF7D2FFA8
:1010100094BF012000205DF808FB00BF4DF808EDEB
:10102000FFF7C8FF34BF012000205DF808FB00BFB8
:101030004FEA4002B2F1FE4F0FD34FF09E03B3EBE5
:1010400012620DD94FEA002343F0004310F0004F25
:1010500023FA02F018BF404270474FF0000070477B
:1010600012F1610F01D1420205D110F0004008BF1A
:101070006FF0004070474FF00000704710B5144605
:101080004FF6FF7392B2024802F0E4FB204610BD17
:101090003802002030B595B0202200210CA803F0C2
:1010A00091FA0024059406940794089409940194F5
:1010B00002940394049401220A924FF480330B9318
:1010C0000E920225119512930AA800F0E9FE0F2353
:1010D00005930695079408940994214605A801F004
:1010E0001FF90195039401A801F0F6F915B030BD80
:1010F00010B500F087FEFFF7CDFF00F047F803F0D2
:10110000FDF901F077FD02F03FFE02F0B1FE02F0C2
:1011100031FD02F003FF02F065FD01F0C9FD00287A
:10112000FBD0002406E002F057FA0FE002F0BAF913
:101130000CE001344FF47A7000F088FE02F0F2F80F
:10114000054B1B79012BEED0022BEFD00E2CF0DDDE
:1011500001F05AFF0024EDE7F002002008B5064A2E
:101160001378591C117005490878054AD05401229A
:10117000044802F0DCFB08BD0C020020180500202A
:101180001803002038020020704700002DE9F041CC
:1011900088B0002404940594069407942D4B9A6912
:1011A00042F010029A619A6902F010020092009ACD
:1011B0009A6942F020029A619A6902F02002019233
:1011C000019A9A6942F004029A619A6902F0040253
:1011D0000292029A9A6942F008029A619B6903F0AE
:1011E00008030393039BDFF8788022464FF40051F5
:1011F000404601F068FB184F22463821384601F07E
:1012000062FB4FF4005304930126059606940225D1
:10121000079504A9404601F063FA38230493059624
:101220000694079504A9384601F05AFA04960594E5
:1012300006950A4D04A9284601F052FA40F60243E9
:1012400004930594069404A9284601F049FA08B0CD
:10125000BDE8F0810010024000080140000C014090
:10126000001001407047FEE7FEE7FEE7FEE770472B
:101270007047704708B500F0D7FD08BD08B50248B3
:1012800001F0AAFB08BD00BF1C08002008B50248F9
:1012900000F028F908BD00BFD005002008B50248BD
:1012A00000F020F908BD00BF1C05002008B5024869
:1012B00002F0C4FB08BD00BF3802002082B00E4B14
:1012C0009A6942F001029A619A6902F00102009261
:1012D000009ADA6942F08052DA61DB6903F08053E8
:1012E0000193019B054A536823F0E06343F00073C8
:1012F000536002B0704700BF001002400000014080
:101300007047704770477047704770477047704725
:10131000704770477047000070B4036A23F0010300
:101320000362036A4668826922F073020C6844EA29
:10133000020523F002028B6813430D4CA04209D032
:101340000B4CA0420DD0466085614A68426303623F
:1013500070BC704723F00803CA68134323F00403EA
:10136000EEE726F440764A6932438E691643EAE78F
:10137000002C014030B4036A23F480730362036AD3
:101380004568C26922F073020C68224323F400739B
:101390008C6843EA04230F4CA04209D00D4CA042B4
:1013A0000ED04560C2614A68C263036230BC7047B8
:1013B00023F40063CC6843EA042323F48063EDE75D
:1013C00025F440554C6945EA04158C6945EA041535
:1013D000E7E700BF002C014030B4036A23F48053D8
:1013E0000362036A4468C26922F4E6420D6842EA75
:1013F000052223F400538D6843EA0533074DA842C4
:1014000006D04460C2614A680264036230BC70471F
:1014100024F480444D6944EA8514F2E7002C01402D
:1014200010B4036A046A24F001040462846924F09D
:10143000F00444EA021223F00A030B4382610362C0
:1014400010BC704710B4036A23F010030362846970
:10145000036A24F4704444EA023223F0A00343EA0E
:1014600001138261036210BC7047836823F070032C
:10147000194341F0070181607047000090F83D304A
:10148000DBB2012B27D1022380F83D300268D368FC
:1014900043F00103D3600368114A934210D0B3F1C3
:1014A000804F0DD0A2F59432934209D002F58062AC
:1014B000934205D01A6842F001021A60002070477A
:1014C0009A6802F00702062A07D01A6842F0010261
:1014D0001A6000207047012070470020704700BF4D
:1014E000002C014010B5044603681A6912F0020F7F
:1014F00013D0DA6812F0020F0FD06FF002021A61F7
:101500000123037703689B6913F0030F00F09280B7
:10151000D0F8903098470023237723681A6912F097
:10152000040F14D0DA6812F0040F10D06FF0040228
:101530001A610223237723689B6913F4407F00F02C
:101540008180D4F890302046984700232377236881
:101550001A6912F0080F13D0DA6812F0080F0FD0D2
:101560006FF008021A61042323772368DB6913F004
:10157000030F70D0D4F8903020469847002323778B
:1015800023681A6912F0100F13D0DA6812F0100FE6
:101590000FD06FF010021A61082323772368DB69EC
:1015A00013F4407F60D0D4F8903020469847002351
:1015B000237723681A6912F0010F0AD0DA6812F053
:1015C000010F06D06FF001021A61D4F88030204676
:1015D000984723681A6912F0800F0AD0DA6812F06F
:1015E000800F06D06FF080021A61D4F8B030204628
:1015F000984723681A6912F0400F0AD0DA6812F08F
:10160000400F06D06FF040021A61D4F888302046AF
:10161000984723681A6912F0200F0AD0DA6812F08E
:10162000200F06D06FF020021A61D4F8A8302046AF
:10163000984710BDD0F898309847D4F89C30204691
:10164000984768E7D4F8983020469847D4F89C30FB
:101650002046984779E7D4F8983020469847D4F840
:101660009C302046984789E7D4F898302046984720
:10167000D4F89C302046984799E7002A00F0B980BA
:1016800010B4144690F83C30012B00F0B5800123D3
:1016900080F83C3090F83D30DBB2012B12D090F84E
:1016A0003D2002F0FF03002A40F09A800D2900F24D
:1016B0009E80DFE801F0787B7D7F81838587898B41
:1016C0008D8F91931A2900F28C80DFE801F00E11C2
:1016D00014171A1D202326292C2F3235383C40445C
:1016E000484C5054585C6064680084640B4678E051
:1016F000C464002375E00465002372E044650023A0
:101700006FE0846500236CE0C465002369E0046633
:10171000002366E04466002363E08466002360E003
:10172000C46600235DE0046700235AE04467002399
:1017300057E08467002354E0C467002351E0C0F8F9
:10174000804000234DE0C0F88440002349E0C0F809
:101750008840002345E0C0F88C40002341E0C0F8F9
:10176000904000233DE0C0F89440002339E0C0F8E9
:101770009840002335E0C0F89C40002331E0C0F8D9
:10178000A04000232DE0C0F8A440002329E0C0F8C9
:10179000A840002325E0C0F8AC40002321E0C0F8B9
:1017A000B04000231DE084640B461AE0C46418E0D6
:1017B000046516E0446514E0846512E0C46510E039
:1017C00004660EE044660CE084660AE0C46608E045
:1017D000046706E0446704E0846702E0C46700E051
:1017E0000123002280F83C20184610BC70470123DA
:1017F000F7E70123184670470223F5E703681B4A01
:1018000090420AD0B0F1804F07D0A2F594329042B6
:1018100003D002F58062904203D123F070034A683E
:101820001343124A90420AD0B0F1804F07D0A2F57C
:101830009432904203D002F58062904203D123F4A7
:101840004073CA68134323F080034A69134303605B
:101850008B68C3620B688362044B984202D00123F9
:10186000436170470B690363F9E700BF002C014037
:1018700030B4036A23F010030362036A4468826988
:1018800022F4E6420D6842EA052223F020038D6827
:1018900043EA05130E4DA84209D00D4DA8420ED0C3
:1018A000446082614A688263036230BC704723F0FF
:1018B0008003CD6843EA051323F04003EDE724F4E9
:1018C00040644D6944EA85048D6944EA8504E7E78C
:1018D000002C014038B590F83C30012B60D00D460B
:1018E0000446012380F83C300C2A1AD8DFE802F0C5
:1018F000071919191D191919311919194400006806
:10190000FFF70AFD2268936943F008039361226898
:10191000936923F0040393612268936929690B4357
:101920009361002084F83C0038BD0068FFF7A0FFF9
:101930002268936943F4006393612268936923F4F6
:101940008063936122689369296943EA0123936163
:10195000E7E70068FFF70EFD2268D36943F008034C
:10196000D3612268D36923F00403D3612268D36969
:1019700029690B43D361D4E70068FFF72DFD226886
:10198000D36943F40063D3612268D36923F480638D
:10199000D3612268D369296943EA0123D361C0E78F
:1019A0000220C1E710B4846824F47F4442EA032390
:1019B0000B432343836010BC704790F83C30012BED
:1019C00067D010B50446012380F83C30022380F82C
:1019D0003D300268936823F47F4323F077039360DC
:1019E0000B68402B4BD013D9602B3ED025D9702BE0
:1019F0002FD0B3F5005F19D1CB684A6889680068B9
:101A0000FFF7D0FF2268936843F4804393600DE0B2
:101A1000102B04D008D9202B01D0302B06D1194629
:101A20002068FFF722FD01E0002BF8D0012384F8A5
:101A30003D30002084F83C0010BD502BF6D1CA6820
:101A400049680068FFF7ECFC50212068FFF70DFDA6
:101A5000ECE7CB684A6889680068FFF7A3FF226853
:101A6000936843F077039360E0E7CA6849680068C9
:101A7000FFF7E8FC60212068FFF7F7FCD6E7CA68AB
:101A800049680068FFF7CCFC40212068FFF7EDFCB7
:101A9000CCE70220704710B401F01F01012303FAC4
:101AA00001F4036A23EA04030362036A8A401343CE
:101AB000036210BC704700000A4669BB90F83E30D4
:101AC000DBB213F1FF3318BF0123002B60D110B537
:101AD000002A3DD1022380F83E30114604460122FF
:101AE0000068FFF7D8FF23682B4A934240D0236851
:101AF000294A934241D0B3F1804F3ED0A2F59432AF
:101B000093423AD002F58062934236D01A6842F08E
:101B100001021A6000203AE0042909D008290FD0F8
:101B200090F84130DBB213F1FF3318BF0123CCE74B
:101B300090F83F30DBB213F1FF3318BF0123C4E745
:101B400090F84030DBB213F1FF3318BF0123BCE73C
:101B5000042A05D0082A07D0022380F84130BCE7C8
:101B6000022380F83F30B8E7022380F84030B4E722
:101B70005A6C42F400425A64B9E79A6802F00702CC
:101B8000062A07D01A6842F001021A60002010BD30
:101B9000012070470020FAE7002C0140134BC0F8E9
:101BA0008030134BC0F88430124BC0F88830124B91
:101BB000C0F88C30114BC0F89030114BC0F8943005
:101BC000104BC0F89830104BC0F89C300F4BC0F849
:101BD000A0300F4BC0F8A4300E4BC0F8A8300E4B0D
:101BE000C0F8AC300D4BC0F8B0307047031300089C
:101BF0000513000811130008131300080913000847
:101C00000B130008071300080D1300080F1300083A
:101C100015130008B31D0008B51D0008B71D000806
:101C200080B310B5044690F83D30F3B1022384F838
:101C30003D30214651F8040BFFF7E0FD012384F805
:101C4000463084F83E3084F83F3084F8403084F8E1
:101C5000413084F8423084F8433084F8443084F8CA
:101C6000453084F83D30002010BD80F83C30FFF74F
:101C700095FFA36C1BB1A36C20469847D6E7024B97
:101C8000A364F8E701207047553C000880B310B505
:101C9000044690F83D30F3B1022384F83D302146EC
:101CA00051F8040BFFF7AAFD012384F8463084F8AD
:101CB0003E3084F83F3084F8403084F8413084F876
:101CC000423084F8433084F8443084F8453084F856
:101CD0003D30002010BD80F83C30FFF75FFF236EE1
:101CE0001BB1236E20469847D6E7024B2366F8E7E0
:101CF000012070470113000890F83C30012B2BD0D5
:101D000030B4012380F83C30022380F83D30036872
:101D10005C689D6824F070040A6822435A60036876
:101D20000E4A93420AD0B3F1804F07D0A2F5943205
:101D3000934203D002F58062934204D125F08005DE
:101D40004A6815439D60012380F83D30002380F8E8
:101D50003C30184630BC704702207047002C0140D0
:101D600090F83C30012B22D0012380F83C30CB6826
:101D700023F440738A68134323F480634A6813434F
:101D800023F400630A68134323F480530A6913435E
:101D900023F400534A69134323F48043CA6913436D
:101DA00002685364002380F83C30184670470220D4
:101DB000704770477047704710B504460E4B18784F
:101DC0004FF47A73B3FBF0F30C4A1068B0FBF3F0F6
:101DD00000F0F8FE68B90F2C01D901200AE00022BA
:101DE00021464FF0FF3000F0ABFE054B1C60002099
:101DF00000E0012010BD00BF00000020080000200E
:101E00000400002008B5074A136843F0100313606C
:101E1000032000F083FE0020FFF7CEFFFFF74EFA0D
:101E2000002008BD00200240034A1168034B1B78C4
:101E30000B441360704700BF3402002000000020F4
:101E4000014B1868704700BF3402002038B50446C3
:101E5000FFF7F6FF0546B4F1FF3F02D0044B1B78B5
:101E60001C44FFF7EDFF401BA042FAD338BD00BF72
:101E70000000002082B0084B1B68084AA2FB032325
:101E80005B0A00FB03F0019000BF019B5A1E019208
:101E9000002BF9D102B0704708000020D34D62102A
:101EA000002800F0F18170B582B00446036813F099
:101EB000010F2CD0AA4B5B6803F00C03042B1DD040
:101EC000A74B5B6803F00C03082B12D06368B3F5D3
:101ED000803F41D0002B55D103F1804303F50433FB
:101EE0001A6822F480321A601A6822F480221A607A
:101EF00037E09B4B5B6813F4803FE7D0984B1B683F
:101F000013F4003F03D06368002B00F0BF81236807
:101F100013F0020F75D0924B5B6813F00C0F5FD07B
:101F20008F4B5B6803F00C03082B54D02369002B04
:101F300000F089808B4B01221A60FFF781FF054674
:101F4000874B1B6813F0020F74D1FFF779FF401B1A
:101F50000228F5D903209EE1814A136843F48033B7
:101F60001360636843B3FFF76BFF05467C4B1B6848
:101F700013F4003FCBD1FFF763FF401B6428F5D972
:101F8000032088E1B3F5A02F09D0754B1A6822F41D
:101F900080321A601A6822F480221A60E1E703F1A5
:101FA0008043A3F53C331A6842F480221A601A6811
:101FB00042F480321A60D4E7FFF742FF0546684BCF
:101FC0001B6813F4003FA2D0FFF73AFF401B6428C0
:101FD000F5D903205FE1624B5B6813F4803FA5D124
:101FE0005F4B1B6813F0020F03D02369012B40F0F5
:101FF0004F815B4A136823F0F803616943EAC10328
:102000001360236813F0080F32D0A369002B5BD054
:10201000554B01221A60FFF713FF0546504B5B6AD0
:1020200013F0020F21D1FFF70BFF401B0228F5D957
:10203000032030E14A4A136823F0F803616943EA58
:10204000C1031360DDE7474B00221A60FFF7F8FE7B
:102050000546434B1B6813F0020FD2D0FFF7F0FE8A
:10206000401B0228F5D9032015E10120FFF702FFEC
:10207000236813F0040F00F09780394BDB6913F0ED
:10208000805F33D1364BDA6942F08052DA61DB6926
:1020900003F080530193019B0125344B1B6813F41B
:1020A000807F25D0E368012B36D0002B4CD103F183
:1020B000804303F504331A6A22F001021A621A6A95
:1020C00022F004021A622CE0274B00221A60FFF76C
:1020D000B7FE0546224B5B6A13F0020FC8D0FFF72C
:1020E000AFFE401B0228F5D90320D4E00025D4E739
:1020F0001E4A136843F480731360FFF7A1FE06467F
:102100001A4B1B6813F4807FCCD1FFF799FE801B1C
:102110006428F5D90320BEE0114A136A43F0010395
:102120001362E36873B3FFF78BFE06460C4B1B6A22
:1021300013F0020F37D1FFF783FE801B41F2883383
:102140009842F3D90320A6E0052B11D0044B1A6A5C
:1021500022F001021A621A6A22F004021A62E0E70F
:1021600000100240000042428004424200700040E1
:102170004D4B1A6A42F004021A621A6A42F00102D6
:102180001A62CEE7FFF75CFE0646474B1B6A13F068
:10219000020F08D0FFF754FE801B41F288339842AB
:1021A000F3D9032077E0E5B9E369002B72D03E4A0A
:1021B000526802F00C02082A56D0022B17D03B4B73
:1021C00000221A60FFF73CFE0446374B1B6813F0F1
:1021D000007F47D0FFF734FE001B0228F5D903200B
:1021E00059E0314AD36923F08053D361DCE72F4BA8
:1021F00000221A60FFF724FE05462B4B1B6813F0E4
:10220000007F06D0FFF71CFE401B0228F5D90320F3
:1022100041E0236AB3F5803F1AD023494B6823F489
:102220007413226A606A024313434B601F4B0122FE
:102230001A60FFF705FE04461B4B1B6813F0007F76
:102240000ED1FFF7FDFD001B0228F5D9032022E087
:10225000154A536823F40033A1680B435360DCE74D
:10226000002018E0002016E0012B16D00E4B5B6812
:1022700003F48031226A914211D103F47013626A2F
:1022800093420ED1002006E001207047012002E0B9
:10229000012000E0002002B070BD0120FBE701201A
:1022A000F9E70120F7E700BF00100240600042425A
:1022B00010B487B0164C94E80F000DF1180C0CE91F
:1022C0000F00238AADF80430124B5B6803F00C0258
:1022D000082A03D0104807B010BC7047C3F38342EC
:1022E000624412F8102C13F4803F0CD0094B5B6849
:1022F000C3F34043634413F8143C074800FB02F067
:10230000B0FBF3F0E7E7054800FB02F0E3E700BFAE
:10231000D06E00080010024000127A0000093D0053
:10232000002800F0A08070B50446534B1B6803F0F2
:1023300007038B420BD2504A136823F007030B4369
:102340001360136803F007038B4240F08E8023680C
:1023500013F0020F17D013F0040F04D0474A53684C
:1023600043F4E0635360236813F0080F04D0434A3A
:10237000536843F460535360404A536823F0F003BA
:10238000A068034353600D46236813F0010F31D05A
:102390006368012B20D0022B25D0384A126812F036
:1023A000020F64D035494A6822F0030213434B60A0
:1023B000FFF746FD0646314B5B6803F00C0362688D
:1023C000B3EB820F16D0FFF73BFD801B41F2883341
:1023D0009842F0D9032045E0284A126812F4003FE1
:1023E000E0D101203EE0254A126812F0007FD9D1E9
:1023F000012037E0204B1B6803F00703AB420AD9EA
:102400001D4A136823F007032B431360136803F07E
:102410000703AB422DD1236813F0040F06D0174AEF
:10242000536823F4E063E1680B435360236813F0BF
:10243000080F07D0114A536823F46053216943EA17
:10244000C1035360FFF734FF0C4B5B68C3F3031306
:102450000B4AD35CD8400B4B18600B4B1868FFF746
:10246000ABFC002070BD012070470120FAE701207D
:10247000F8E70120F6E700BF00200240001002400C
:10248000F86E00080800002004000020014B1868C6
:10249000704700BF0800002008B5FFF7F7FF044BA6
:1024A0005B68C3F30223034AD35CD84008BD00BF76
:1024B00000100240086F000808B5FFF7E7FF044B63
:1024C0005B68C3F3C223034AD35CD84008BD00BF96
:1024D00000100240086F000870B582B0044603681F
:1024E00013F0010F34D03E4BDB6913F0805F48D10D
:1024F0003B4BDA6942F08052DA61DB6903F08053CA
:102500000193019B0125374B1B6813F4807F3AD060
:10251000334B1B6A13F4407311D0626802F44072AB
:102520009A420CD02E4A136A23F440702E49012699
:102530000E6000260E60106213F0010F37D1284A9A
:10254000136A23F4407361680B431362002D3FD17B
:10255000236813F0020F06D0214A536823F4404346
:10256000A1680B435360236813F0100F35D01C4A49
:10257000536823F48003E1680B435360002002B0EA
:1025800070BD0025BFE7174A136843F480731360DA
:10259000FFF756FC0646134B1B6813F4807FB7D138
:1025A000FFF74EFC801B6428F5D90320E7E7FFF70F
:1025B00047FC06460A4B1B6A13F0020FBFD1FFF718
:1025C0003FFC801B41F288339842F3D90320D6E7C1
:1025D000D36923F08053D361BAE70020CFE700BF6F
:1025E00000100240007000404004424230B587B005
:1025F0000546364C94E80F000DF1180C0CE90F005D
:10260000238AADF80430022D52D0102D04D0012DB4
:102610002CD0002007B030BD2D4B5A68186810F040
:102620008070F7D0C2F3834306A90B4413F8100C53
:1026300012F4803F16D0264B5B68C3F340430B4433
:1026400013F8142C234BB3FBF2F300FB03F0204BE5
:102650005B6813F4800FDDD140001F4BA3FB0030FB
:102660004008D7E71D4B03FB00F0F0E7184B1B6A4F
:1026700040F202321A40B2F5817F24D003F4407355
:10268000B3F5007F04D0B3F5407F09D00020C1E747
:102690000F4A526A12F0020FF5D049F64040B9E7EE
:1026A0000B4B186810F40030B4D04FF22440B1E75F
:1026B000FFF702FF064B5B68C3F3813301335B0016
:1026C000B0FBF3F0A6E74FF40040A3E7E46E000888
:1026D0000010024000127A00ABAAAAAA00093D002D
:1026E000F0B482B000263546A0E0002A58D0012A76
:1026F00010D1CE680EE06A4FBA4251D048D9694F26
:10270000BA424DD007F58037BA4249D0A7F58017B5
:10271000BA4245D0FF2B57D88446FF2B57D8AC0080
:10272000DCF800200F27A74022EA070206FA04F48B
:102730002243CCF800204A6812F0805F75D05A4AD4
:10274000946944F001049461926902F001020192DB
:10275000019AAC08A71C554A52F8272005F0030738
:10276000BF004FF00F0C0CFA07FC22EA0C0C504A89
:10277000904232D002F58062904271D002F58062C0
:1027800090426FD002F58062904224D0042225E06E
:10279000A7F58017BA4203D007F58037BA42B9D1FE
:1027A0008A687AB1012A08D044610826B2E7CE6867
:1027B0000836AFE7CE680C36ACE704610826A9E717
:1027C0000026A7E70426A5E700F1040CA5E7A5F17C
:1027D0000804A400A4E7032200E00022BA4042EA71
:1027E0000C020234314F47F824204A6812F4803F2B
:1027F0003AD0304C22681A4322604A6812F4003FF3
:1028000038D02C4C62681A4362604A6812F4801F08
:1028100036D0284CA2681A43A2604A6812F4001FFE
:1028200034D0244CE2681343E36001350B6833FA7B
:1028300005F231D00124AC4023409C42F5D14A68D6
:10284000122AB7D03FF657AF022AB0D07FF64DAF6D
:10285000032AB5D0112A7FF45DAFCE68043659E75C
:102860000122BBE70222B9E7124C226822EA0302E6
:102870002260C2E70F4C626822EA03026260C4E78A
:102880000C4CA26822EA0302A260C6E7094CE26887
:1028900022EA0303E360C8E702B0F0BC704700BF60
:1028A0000000211000003110001002400000014023
:1028B00000080140000401408368194201D0012052
:1028C0007047002070470AB1016170470904016137
:1028D0007047000060B310B402460168154B0B440A
:1028E0001548A0FB03031B099B001364134BD36320
:1028F000022382F82130086820F47F5020F0300055
:10290000536894682343D468234314692343546968
:10291000234394692343D469234303430B6000207A
:102920009063012382F8213082F8200010BC7047A8
:1029300001207047F8FFFDBFCDCCCCCC0000024099
:1029400008B590F82130022B03D0042383630120C3
:1029500008BD0268136823F00E0313600268136851
:1029600023F0010313600368194A934214D0143210
:1029700093421FD0143293421ED0143293421ED081
:10298000143293421ED01432934202D04FF0807220
:1029900003E04FF4801200E001220E4B5A60012345
:1029A00080F82130002380F82030436B6BB19847CA
:1029B0000020CDE71022F0E74FF48072EDE74FF4EE
:1029C0008052EAE74FF48032E7E70020C0E700BF1B
:1029D000080002400000024038B5C36B1A68046862
:1029E0002568016C04238B40134235D015F0040F89
:1029F00032D0236813F0200F03D1236823F004039F
:102A000023600368434A934214D01432934218D08F
:102A10001432934217D01432934217D01432934297
:102A200017D01432934202D04FF0806203E04FF48B
:102A3000800200E00422384B5A60C36A03B1984711
:102A400038BD4022F7E74FF48062F4E74FF480424C
:102A5000F1E74FF48022EEE702238B4013423CD093
:102A600015F0020F39D0236813F0200F06D1236828
:102A700023F00A032360012380F821300368254AEC
:102A8000934214D0143293421CD0143293421BD080
:102A9000143293421BD0143293421BD0143293420F
:102AA00002D04FF0007203E04FF4001200E0022267
:102AB000194B5A60002380F82030836A002BBFD066
:102AC0009847BDE72022F3E74FF40072F0E74FF498
:102AD0000052EDE74FF40032EAE7082303FA01F170
:102AE0001142ADD015F0080FAAD0236823F00E03D1
:102AF0002360026CC16B012303FA02F24A60836314
:102B000080F82130002380F82030036B002B97D011
:102B1000984795E70800024000000240074AD36842
:102B200023F4E0631B041B0C000200F4E060184374
:102B300040F0BF6040F40030D060704700ED00E02E
:102B400030B4174BDB68C3F30223C3F10704042C32
:102B500028BF04241D1D062D01D9033B00E00023DE
:102B60004FF0FF3505FA04F421EA0401994005FA13
:102B700003F322EA03031943002809DB0901C9B260
:102B800000F1604000F5614080F8001330BC7047F0
:102B900000F00F000901C9B2024B1954F6E700BF5B
:102BA00000ED00E014ED00E0002807DB00F01F025C
:102BB000400901239340024A42F82030704700BF89
:102BC00000E100E00138B0F1807F0AD2064B586086
:102BD000064AF02182F823100020986007221A602C
:102BE00070470120704700BF10E000E000ED00E0FA
:102BF0007047000008B50A480A4B03604FF41653AB
:102C0000436000238360C36003610C2242618361DF
:102C1000C36100F0F0FD00B908BDFEF7B5FAFBE7AF
:102C2000380200200038014030B587B000230293FD
:102C300003930493059302681B4B9A4201D007B09B
:102C400030BD03F558439A6942F480429A619A690B
:102C500002F480420092009A9A6942F004029A615A
:102C60009B6903F004030193019B4FF400730293EB
:102C700002230393032305930C4D02A92846FFF773
:102C80002FFD4FF48063029300240394049402A95F
:102C90002846FFF725FD224621462520FFF750FF55
:102CA0002520FFF781FFCAE70038014000080140F6
:102CB00070B5474D01212846FFF7FEFDB0FA80F0C0
:102CC0004009444C207002212846FFF7F5FD0030F2
:102CD00018BF0120E0700025257165613E4BA3609F
:102CE0001E23E3602361E5612562656200F0BCFCA0
:102CF0003A4E304601F08EFB4FF4FA70FFF7A6F81B
:102D0000304601F065FA01223549364800F00FFEE1
:102D100029463548FEF7D0FE29463448FEF7CCFE5A
:102D20002378D3B9314B1B68314A12685A632E4B52
:102D30001B68304A12685A6301224FF400512E4832
:102D4000FFF7C1FD4FF400612148FFF7B5FD0128F1
:102D50001DD16420FFF77AF8F4E7244B1B68274A5B
:102D600012685A63204B1B68254A12685A63002276
:102D70004FF400512048FFF7A6FD4FF400611448BE
:102D8000FFF79AFD18B96420FFF760F8F5E7114DD9
:102D90002A791C4C003218BF012208212046FFF777
:102DA00092FD2A7912F1FF3218BF0122102120462C
:102DB000FFF789FD2A79023A18BF01222021204617
:102DC000FFF781FD4FF4FA70FFF740F8012070BD66
:102DD000000C0140F00200200000C041EC07002080
:102DE0001805002038020020840600203807002043
:102DF000140000200C0000200010014018000020EA
:102E00001000002000080140914212DCF0B4074697
:102E10001646002001E01844013E8E420BDBBB5DEC
:102E2000303B941B002CF6DD03EB83056B00013C6B
:102E3000F8E700207047F0BC70470000F8B50023A9
:102E40004FF0FF34214604E0544AD25C262A13D0C6
:102E50000133B1F1FF3F02D0B4F1FF3F0ED1504A30
:102E600012789A420ADDB1F1FF3FEDD04B4AD25CB5
:102E70002E2AEDD11C46EBE71946E9E7B1F1FF3FF9
:102E800000F08A80B4F1FF3F00F086804B1C434A7B
:102E9000D35C303B032B77D8DFE803F002134360A9
:102EA000013C3E4B1B5D322B6ED13E4B1B78012B00
:102EB00003D03C4B01221A7066E03A4B00221A7094
:102EC00062E0A31E354AD35C2C2B5DD10331535CE9
:102ED000302B07D0312B13D0322B06D1314B0222AD
:102EE0001A7102E02F4B00221A71013C2B4B1B5D23
:102EF000302B09D0312B47D12A4B01225A6143E0B4
:102F0000284B01221A71F0E7264B00225A613BE060
:102F100001339C4208DD214AD25C2C2AF8D11D469F
:102F2000F6E70B460025F4E775B31C4E6A1E033125
:102F30003046FFF769FF0746621E691C3046FFF7FF
:102F400063FF0E2F20DD0E281EDD164BDF6018619B
:102F500002463946144801F077FF15E0621E03313E
:102F60000E48FFF751FFA0F10F030F2B03D8FDF719
:102F700045FE0C4B98600B4B9868FDF755FA0246DE
:102F80000B460A4801F060FF0021054B19704FF411
:102F90000072024801F016FBF8BD00BF18030020C4
:102FA0000C020020F0020020106F0008406F0008A3
:102FB00070B506460D46134C012208212046FFF746
:102FC00082FC012210212046FFF77DFC01222021F6
:102FD0002046FFF778FC3DB93EB1012E0BD0002210
:102FE00020210848FFF76FFC70BD00220821204611
:102FF000FFF769FCF8E7002210210248FFF763FCA5
:10300000F2E700BF0008014070B596B00FAC6D4DFF
:103010000FCD0FC42B6823606B4B1B78012B16D090
:103020006A490FA801F0B2FF0FA801F00DFF08AC2C
:10303000674D0FCD0FC495E8030044F8040B2170D1
:10304000614B1B793BB1022B03D0624904E062491A
:10305000E7E7624900E0624908A801F097FF08A885
:1030600001F0F2FE584EB069FDF7DEF902460B465C
:103070005C4801F0E9FE5C4B1B6807936C465B4DB6
:103080000FCD0FC42B6823703378012B2ED05849F5
:10309000684601F07BFF6846FDF75AF802460DEBE3
:1030A0000001544B18684DF802009B888B80079BE9
:1030B000454A1278012A1BD0434A126A9B1A4E498C
:1030C00081FB03211944DA174C4BC2EB61126946AC
:1030D0004B4801F0B9FE3C4B1B79022B0BD0012B66
:1030E00047D00A2001F0C8FE16B070BD4549CFE7B1
:1030F000354AD269E2E7344CA068FDF795F90246FB
:103100000B46414801F0A0FE404B1968404801F0D1
:103110009BFE2378012B16D02B4B1A6ADB69D31A3E
:103120000799891A344880FB01240C44CA1780FB94
:1031300003011944DB17C2EB6412C3EB611135487C
:1031400001F082FECDE7E269236AD31A0799891A52
:10315000294880FB01240C44CA1780FB0301194451
:10316000DB17C2EB6412C3EB61112B4801F06CFE5C
:10317000B7E7079B144A1278012A1BD01249096A43
:103180005B1A1D4981FB03011944DB17C3EB611373
:10319000012A12D00C490969C91A012A10D01F4A04
:1031A0001F4801F051FE084B1A69D9681D4801F00B
:1031B0004BFE96E70449C969E2E70349C968EBE7B2
:1031C000194AEDE7B46F0008F0020020646F0008B0
:1031D000C86F0008706F00086C6F00088C6F0008E3
:1031E0007C6F0008E06F00082002002000700008DB
:1031F000986F000814700008898888881C7000087F
:1032000028700008A06F0008307000081802002025
:1032100054700008A87000087C700008A46F0008B3
:10322000D4700008FC700008AC6F000808B50128D5
:103230001ED06420FEF70AFE2E4B1B682E4A126831
:103240005A634FF4FA60FEF701FE2C4B1B682C4AC0
:1032500012685A636420FEF7F9FD4FF400612948B3
:10326000FFF72AFB01283AD16420FEF7EFFDF4E7CF
:103270006420FEF7EBFD214B1B68234A12685A635A
:103280004FF4FA60FEF7E2FD1A4B1B681F4A126802
:103290005A636420FEF7DAFD02E06420FEF7D6FDF3
:1032A0004FF400611748FFF707FB0028F5D0184BD3
:1032B000184A1268DA611B79022B06D000224FF4FB
:1032C00000511548FFF7FFFA13E0114B9869FDF71D
:1032D000AFFE124B1860124B00221A60EEE70D4B46
:1032E0001A680B4B1A6201224FF400510A48FFF78B
:1032F000EAFA08BD840600200C00002038070020F0
:1033000014000020000C01401800002010000020D4
:10331000F0020020200200200010014014020020D2
:103320001C020020F8B54E4B30221A604D4C277815
:10333000267902214C48FFF7BFFA003018BF012060
:10334000E07000283AD1474BDB781BB9474B1B781C
:10335000002B4DD1444D4FF480612846FFF7ACFA65
:10336000003018BF01203F4C60704FF400612846C8
:10337000FFF7A2FA003018BF0120A0703C4800F00F
:1033800049FEFDF737FC3B49FDF78CFC3A49FDF758
:1033900089FCA0612078B8422ED1324B1B79B34210
:1033A00040D1304B59691879FFF702FE2C4B1B684E
:1033B000302B02D02A4801F047FDF8BD01212A48F0
:1033C000FFF77AFAB0FA80F04009207000222271EB
:1033D000264B1B78002BB6D01146244B1A704FF4A5
:1033E0000072264801F0EEF8254801F0C7FDAAE773
:1033F0001B48FFF723FDADE7FFF718FF184C214DE1
:103400000FCD0FC495E8030044F8040B2180154B41
:103410001B78012B04D01C49114801F0B7FDBCE713
:103420001A49F9E70F4D2878FFF700FF0C4C184BAD
:103430000FCB84E80F002C792CB1012C01D0154959
:1034400002E0154900E01549054801F09FFD012CF7
:10345000A7D1134B1A68034BDA611A62A1E700BFC8
:1034600078020020F0020020000C01400C02002035
:10347000EC070020E72E533A0000C8421803002052
:103480004871000864710008646F00086C6F0008E0
:103490007C710008247100083C710008307100083C
:1034A00020020020F8B5454B1C78012C3CD0B4B963
:1034B000424DA869FCF7B8FF06460F46A868FCF71E
:1034C000B3FF00223E4BFCF751FE02460B4630464E
:1034D0003946FDF791FA10B16B6A01336B62394BD3
:1034E0001B683B2B3DDD354B5B6A352B08DD012C22
:1034F00033D0324B01221A70304B1878FFF796FE0A
:103500000022304B1A602D4B586A2F4908605A62CE
:103510002E4B1C68B32C4CDD284B1B78012B24D080
:103520002A4B00221A6047E01D469869FCF77CFF91
:1035300006460F46A868FCF777FF0022204BFCF7F1
:1035400013FE02460B4630463946FDF737FA00288F
:10355000ADD06B6A01336B62A9E7184B00221A7079
:10356000CAE70133174A1360D2E7144B9D69184B21
:103570001868FDF743FB01462846FDF74FFD00287C
:10358000CED00134114B1C60BB2C15DD00200B4B41
:103590001870FFF74BFE0F4B1B6840F26B729342A3
:1035A00002DC64330B4A13604FF47A70FEF74EFC72
:1035B00002E00134054B1C60F8BD00BFF0020020A2
:1035C0000000E03F10020020180200201C02002032
:1035D00014020020100000202DE900481A4B1B782F
:1035E000012B13D0184B1A6A1849D1E90001B0EB2E
:1035F000020B61EBE27C1B69C3EB03139A00D31748
:103600009C4508BF934519D2BDE800880E4BDA6986
:103610000E49D1E90001B0EB020B61EBE27CDB6803
:10362000C3EB03139A00D3179C4508BF9345EBD314
:103630000020054B1870FFF7F9FDE5E70120024B6C
:103640001870FFF7F3FDDFE7F002002020020020F2
:10365000044A13685168013341F10001136051605D
:10366000704700BF2002002010B5054C054A0E210E
:103670002046FEF702F82046FDF700FF10BD00BF10
:103680001C050020513600080268D36823F49073AB
:10369000D3600268536923F001035361202380F84B
:1036A0003A30704790F83930DBB2212B01D002203C
:1036B00070478368B3F5805F16D0036A5A1C0262B4
:1036C0001A7803685A60C38C013B9BB2C3844BB920
:1036D0000268D36823F08003D3600268D36843F0A4
:1036E0004003D360002070470369002BE5D1036AD3
:1036F0001B880268C3F308035360036A0233036242
:10370000E1E7000038B504460268136923F440532A
:10371000C1680B43136183680269134342691A430A
:103720000168CB6823F4B05323F00C031343CB6040
:103730000268536923F4407381690B435361026843
:10374000124B9A421FD0FEF7A7FE00EB800000EB61
:10375000800063689B00B0FBF3F00D4DA5FB0032C9
:103760005109642202FB110213013233A5FB03232A
:103770005B0903F0F00202EB011203F00F03216872
:1037800013448B6038BDFEF797FEDEE7003801403A
:103790001F85EB512DE9F04105460F461646984628
:1037A000069C2B681B6837EA03030CBF0123002328
:1037B000B3421DD1B4F1FF3FF3D02CB1FEF740FB73
:1037C000A0EB0800A042ECD92A68D36823F4D07398
:1037D000D3602A68536923F001035361202385F8DD
:1037E000393085F83A30002385F83830032000E07E
:1037F0000020BDE8F08158B310B5044690F8393088
:103800000BB3242384F839302268D36823F400539F
:10381000D3602046FFF776FF2268136923F49043B4
:1038200013612268536923F02A0353612268D36825
:1038300043F40053D3600020E063202384F8393040
:1038400084F83A3010BD80F83830FFF7EDF9D8E74A
:10385000012070472DE9F04182B01E4690F83930C2
:10386000DBB2202B54D104460D469046002954D09B
:10387000002A54D090F83830012B52D0012380F820
:1038800038300023C363212380F83930FEF7D8FA9B
:103890000746A4F82480A4F82680A368B3F5805FC7
:1038A00005D04FF00008002384F8383011E0236978
:1038B00013B14FF00008F6E7A8460025F3E738F803
:1038C000023B2268C3F308035360E38C013B9BB2C5
:1038D000E384E38C9BB273B100963B4600228021C7
:1038E0002046FFF757FFF0B9002DE8D015F8012B5F
:1038F00023685A60E9E700963B46002240212046B3
:10390000FFF748FF034680B9202284F8392000E001
:103910000223184602B0BDE8F0810123F9E7012334
:10392000F7E70223F5E70323F3E70323F1E790F832
:103930003A30DBB2202B20D109B312B390F83830E3
:10394000012B20D081628285C2850023C36322229D
:1039500080F83A2080F838300168CA6842F48072F2
:10396000CA6001684A6942F001024A610168CA6896
:1039700042F02002CA6018467047022070470120BA
:1039800070470120704702207047704708B50168F2
:10399000CB6823F04003CB60202380F83930FFF759
:1039A000F4FF002008BD08B590F83A30DBB2222BB6
:1039B00040D18368B3F5805F13D0826AB3F5805F2E
:1039C00002D0DBB90369CBB903685B681370836A03
:1039D00001338362C38D013B9BB2C385A3B1002039
:1039E00008BD0269002AE8D1826A03685B68C3F3F4
:1039F00008031380836A02338362EBE703685B6822
:103A000003F07F031370E2E70268D36823F020031A
:103A1000D3600268D36823F48073D360026853696B
:103A200023F001035361202380F83A30FDF796FB21
:103A30000020D5E70220D3E77047000010B5044608
:103A400002681368D168526913F00F0005D113F0B2
:103A5000200F02D011F0200F13D128B112F0010273
:103A600013D111F4907F10D113F0800F02D011F018
:103A7000800F6CD113F0400F02D011F0400F6AD1CB
:103A800010BD2046FFF78FFFFAE713F0010F06D0B5
:103A900011F4807F03D0E06B40F00100E06313F08D
:103AA000040F04D01AB1E06B40F00200E06313F0A1
:103AB000020F04D01AB1E06B40F00400E06313F091
:103AC000080F07D011F0200F00D11AB1E26B42F0BD
:103AD0000802E263E26B002AD2D013F0200F02D07A
:103AE00011F0200F21D123685B6903F04003E26BE2
:103AF00012F0080F00D123B32046FFF7C5FD23685D
:103B00005A6912F0400F18D05A6922F040025A61E7
:103B1000636B73B1124A5A63606BFEF711FF0028A2
:103B2000AED0606B436B9847AAE72046FFF73BFF98
:103B3000D9E72046FFF780FFA2E72046FFF77CFF8A
:103B40009EE72046FFF778FF0023E36398E72046CF
:103B5000FFF7A8FD94E72046FFF718FF90E700BFA6
:103B6000653B000808B5406A0023C385C384FFF79E
:103B700063FF08BD00B587B000230293039304934D
:103B80000593009301931548154A02600F22426085
:103B900083604FF6FF72C26003618361FEF740F8F5
:103BA00090B94FF48053029302A90C48FDF705FF2A
:103BB00068B900230093019369460848FEF79CF812
:103BC00040B907B05DF804FBFDF7DEFAE9E7FDF761
:103BD000DBFAEEE7FDF7D8FAF3E700BFD0050020E7
:103BE0000004004000B587B00023029303930493C0
:103BF0000593009301931548154A026043F67F62CE
:103C0000426083604FF47A72C26003618361FEF7A1
:103C100007F890B94FF48053029302A90B48FDF7BF
:103C2000CCFE68B900230093019369460748FEF76C
:103C300063F840B907B05DF804FBFDF7A5FAE9E7C2
:103C4000FDF7A2FAEEE7FDF79FFAF3E71C05002067
:103C50000008004000B585B00368264A93420BD0A7
:103C6000B3F1804F13D0244A93421CD0234A93428D
:103C70002CD005B05DF804FB214B9A6942F4006238
:103C80009A619B6903F400630093009BF1E703F5DD
:103C90000433DA6942F00102DA61DB6903F00103FF
:103CA0000193019BE5E7164BDA6942F00202DA6103
:103CB000DB6903F002030293029B002211461D20E0
:103CC000FEF73EFF1D20FEF76FFFD2E70C4BDA69CF
:103CD00042F00402DA61DB6903F004030393039BFF
:103CE000002211461E20FEF72BFF1E20FEF75CFF70
:103CF000BFE700BF002C0140000400400008004066
:103D00000010024000B587B0002302930393049390
:103D100005930368194A934205D0B3F1804F17D039
:103D200007B05DF804FB164B9A6942F004029A61F1
:103D30009B6903F004030093009B4FF4807302938C
:103D400002230393059302A90E48FEF7C9FCE7E797
:103D500003F504339A6942F004029A619B6903F007
:103D600004030193019B0123029302230393059310
:103D700002A90448FEF7B4FCD2E700BF002C0140C2
:103D8000001002400008014010B596B000241294C3
:103D90001394149415941094119409940A940B9408
:103DA0000C940D940E940F942022214601A800F04B
:103DB00009FC2D482D4B03600F234360846044F6BB
:103DC0001F63C360046144618461FDF729FF00281B
:103DD00037D14FF48053129312A92348FDF7EDFD1C
:103DE000002831D12048FDF751FF00282FD10023B2
:103DF0001093119310A91C48FDF77EFF50BB602360
:103E0000099300220A920B920C920D920E920F923D
:103E100009A91548FDF75EFDF8B900230193029347
:103E20000393049305934FF400520692089301A95B
:103E30000D48FDF795FF98B90B48FFF763FF16B0E3
:103E400010BDFDF7A1F9C4E7FDF79EF9CAE7FDF73C
:103E50009BF9CCE7FDF798F9D1E7FDF795F9DCE799
:103E6000FDF792F9E8E700BF84060020002C01402E
:103E700000B58FB000230A930B930C930D93089316
:103E80000993019302930393049305930693079375
:103E900021484FF0804202600F224260836044F666
:103EA0001F62C26003618361FDF7BAFE20BB4FF45D
:103EB00080530A930AA91848FDF77FFDF8B9164800
:103EC000FDF7E4FEF0B900230893099308A912480E
:103ED000FDF712FFC8B960230193002202920392FA
:103EE000059201A90C48FDF7F5FC88B90A48FFF7CF
:103EF00009FF0FB05DF804FBFDF746F9D7E7FDF7C2
:103F000043F9DCE7FDF740F9DDE7FDF73DF9E2E7CE
:103F1000FDF73AF9EAE700BF3807002000B585B0A1
:103F200000230193029303931148124A02608360B5
:103F30000122027303754FF46021C1614360026185
:103F400000F0E4F968B906230193012302930723E3
:103F5000039301A9064800F061F828B905B05DF89F
:103F600004FBFDF711F9EEE7FDF70EF9F6E700BFE8
:103F7000EC0700200024014010B586B00023029316
:103F800003930493059302681E4B9A4201D006B036
:103F900010BD044603F56C439A6942F400729A61BD
:103FA0009A6902F400720092009A9A6942F004023F
:103FB0009A619B6903F004030193019B40230293E0
:103FC0000323039302A91048FEF78AFB0F48104B06
:103FD00003600023436083608022C2604FF400725C
:103FE00002614FF40062426120228261C361FEF7E8
:103FF00071FC18B9054B23625C62C8E7FDF7C4F891
:10400000F8E700BF00240140000801401C08002020
:10401000080002400368D86C7047000030B482B0DA
:104020000023019390F82430012B00F08B8002468E
:10403000012380F824304B68062B29D80568686B6B
:1040400003EB8303053B1F249C4020EA04000C681B
:1040500004FA03F303436B630B68092B38D9156823
:10406000E86803EB43031E3B07249C4020EA04005E
:104070008C6804FA03F30343EB600B68103B012BDD
:1040800034D90020002382F8243002B030BC7047BD
:104090000C2B0ED80568286B03EB8303233B1F24EE
:1040A0009C4020EA04000C6804FA03F303432B63EA
:1040B000D2E70568E86A03EB8303413B1F249C4079
:1040C00020EA04000C6804FA03F30343EB62C3E73D
:1040D0001568286903EB430307249C4020EA040089
:1040E0008C6804FA03F303432B61C6E71368164890
:1040F000834205D0936A43F0200393620120C1E715
:10410000986810F4000F1BD1986840F40000986084
:104110000B68102B01D00020B4E70C4B1B680C4936
:10412000A1FB03139B0C03EB83035900019102E0F5
:10413000019B013B0193019B002BF9D10020A1E7DA
:1041400000209FE70220A0E7002401400800002093
:1041500083DE1B4330B583B00023019303689A6864
:1041600012F0010F2DD19A6842F001029A60164BAD
:104170001B68164AA2FB03239B0C0193019B1BB1F6
:10418000019B013B0193F9E70446FDF759FE054603
:1041900023689B6813F0010F11D1FDF751FE401BFE
:1041A0000228F5D9A36A43F01003A362E36A43F03F
:1041B0000103E362002384F82430012002E00020A0
:1041C00000E0002003B030BD0800002083DE1B4368
:1041D00090F82430012B6BD010B50446012380F8F1
:1041E0002430FFF7B7FF024600285CD1A36A23F40E
:1041F000407323F0010343F48073A36221682E4BC4
:10420000994228D0A36A23F48013A3624B6813F465
:10421000806F05D0A36A23F4405343F48053A36214
:10422000A36A13F4805F2CD0E36A23F00603E362F1
:10423000002384F8243023686FF00201196023689A
:10424000996801F46021B1F5602F1DD0996841F49F
:10425000801199602AE0A3F580635B6813F4702FE6
:10426000D0D0A36A43F48013A362144B5B6813F4A9
:10427000806FD5D0A36A23F4405343F48053A362E4
:10428000CEE70023E362D3E70B498B4204D0996861
:1042900041F4A001996009E0A1F58061496811F439
:1042A000702FD3D1F3E7002384F82430104610BDDB
:1042B00002221046704700BF002801400024014040
:1042C00038B503689A6812F0010F01D1002038BD9B
:1042D00004469A6822F001029A60FDF7B1FD054696
:1042E00023689B6813F0010F0ED0FDF7A9FD401B5A
:1042F0000228F5D9A36A43F01003A362E36A43F0EE
:104300000103E3620120E2E70020E0E700287BD020
:1043100070B50446836A002B4DD02046FFF7D0FFCE
:10432000A36A13F0100369D1002867D1A26A22F4AE
:10433000885222F0020242F00202A2626268E1693F
:104340000A43217B42EA4102A568B5F5807F02D08D
:10435000012D36D01D46267D012E35D02668716888
:1043600021F46941294371602568AE6827493140CD
:104370001143A960A168B1F5807F01D0012902D164
:104380002369013B1B052568E96A21F470010B4391
:10439000EB62236899681E4B0B409A4225D0A36AB2
:1043A00023F0120343F01003A362E36A43F0010316
:1043B000E362012027E0C36280F82430FFF7DCFDD0
:1043C000ABE74FF48075C6E731B9A169013945EA19
:1043D000413141F40065C1E7A16A41F02001A162C9
:1043E000E16A41F00101E162B8E70023E362A36AF8
:1043F00023F0030343F00103A36204E0A36A43F044
:104400001003A362012070BD01207047FDF7E1FF9A
:10441000FE0E1FFF70B582B00023019390F8243088
:10442000012B67D00446012380F82430FFF748FFB2
:10443000054628B1002384F82430284602B070BD18
:10444000A36A23F4885323F0020343F00203A36218
:10445000294B1E680220FEF7C9F8B6FBF0F04000B9
:104460000190019B1BB1019B013B0193F9E72046A1
:10447000FFF770FE2268936843F008039360FDF72E
:10448000DFFC064623689A6812F0080F0FD0FDF78C
:10449000D7FC801B0A28F5D9A36A23F0120343F046
:1044A0001003A362002384F824300125C5E79A682D
:1044B00042F004029A60FDF7C3FC064623689B683D
:1044C00013F0040F0FD0FDF7BBFC801B0A28F5D9B1
:1044D000A36A23F0120343F01003A362002384F8BD
:1044E00024300125A9E7A36A23F0030343F0010365
:1044F000A3629FE70225A0E70800002000B583B073
:104500000A4B5A6942F001025A615B6903F00103E8
:104510000193019B002211460B20FEF711FB0B209B
:10452000FEF742FB03B05DF804FB00BF0010024041
:10453000002103E00B4B5B58435004310A480B4BFE
:1045400042189A42F6D30A4A02E0002342F8043B9A
:10455000084B9A42F9D3FEF74BFB00F00FF8FCF73B
:10456000C7FD70475874000800000020EC010020CF
:10457000F001002070080020FEE7000070B5002662
:104580000C4D0D4C641BA410A64209D102F092FC04
:1045900000260A4D0A4C641BA410A64205D170BD2A
:1045A00055F8043B98470136EEE755F8043B984729
:1045B0000136F2E750740008507400085074000887
:1045C0005474000803460244934200D1704703F834
:1045D000011BF9E7002B2DE9F0471E46BBBF03F195
:1045E00000431E4600232D2388B0149F144627F055
:1045F0002007129A462F109DDDF84CA0137004D0AE
:10460000452F00D10135022300E0032307AA0492BD
:1046100006AACDE902A2CDE900352246334600F0D4
:1046200013FE472F804602D1119BDB0722D5462F70
:1046300008EB050911D198F80030302B0AD100227F
:10464000002320463146FCF7AFF918B9C5F1010542
:10465000CAF80050DAF800309944002200232046BE
:104660003146FCF7A1F908B1CDF81C903022079B28
:104670004B4508D34046079B159AA3EB08031360EC
:1046800008B0BDE8F087591C07911A70EFE7F7B53D
:104690000029B6BF2D232B234942092902704370FC
:1046A00022DD0DF107031F460A2691FBF6F206FBF9
:1046B0001214632904F1300403F1FF3503F8014CAF
:1046C0000ADC303205F8012C023B821CBB42144646
:1046D00005D3201A03B0F0BD2B461146E5E713F8C9
:1046E000011B02F8011BF1E7302319448370041DFC
:1046F000C170EEE72DE9F04F91B00C461A9F93463A
:104700001E46054601F006FD036818460993FBF7AF
:104710001FFD00230E933B680A90073323F0070325
:1047200003F1080294F81880D4F800A03A60D3E9A5
:104730000023C4E91223D4E9129727F000430B9316
:104740004FF0FF32A64B48460B99FCF75FF968BB68
:104750004FF0FF32A24B48460B99FCF739F928BBC2
:104760000022002348463946FCF728F910B12D23D2
:1047700084F843309B4F9C4BB8F1470F88BF1F46CE
:1047800003234FF0000923612AF0040323600096FD
:104790005B460FAA2146284600F0CAF9013040F0D6
:1047A0008F804FF0FF3011B0BDE8F08F4A463B4696
:1047B00048463946FCF72AF940B1002FB8BF2D23EF
:1047C0008A4FB8BF84F84330894BD5E7636808F057
:1047D000DF015A1C42D106236360002206920EAA12
:1047E000CDE904820DAA4AF4806303920DF13302ED
:1047F000CDE90132236063684A46009328463B4670
:104800000B91FFF7E7FE0B99074647290D9908D151
:10481000C81C02DB6368994240DDA8F102085FFA18
:1048200088F8B8F1650F1FD80139424604F15000ED
:104830000D91FFF72CFF0E9A81461318012A236170
:1048400002DC2268D20701D5013323619DF83330A1
:10485000002B9CD02D2384F8433098E74729BCD106
:10486000002BBAD10123B7E7B8F1660F18D10029A0
:1048700063680BDD216113B92268D00702D50133CB
:104880000B442361A1654FF00009DFE713B92268EB
:10489000D20701D50233F4E70123F2E74FF06708AE
:1048A0000E9B994205DB23682161D807EAD54B1C92
:1048B000E7E70029CCBF0122C1F102021344E0E77F
:1048C00023685A0507D423693A4659462846B04713
:1048D000013029D165E7B8F1650F40F2D880D4E9FD
:1048E000120100220023FCF75FF888B30123414A3C
:1048F00059462846B04701303FF453AFDDE90D2358
:104900009A4202DB2368D8070ED5DDE90923594610
:104910002846B04701303FF444AF002704F11A089D
:104920000E9B013BBB4209DC23689F0700F1FB8023
:10493000E0680F9B9842B8BF184634E7012342460F
:1049400059462846B04701303FF42BAF0137E7E71F
:104950000D9B002B2BDC0123264A59462846B047E5
:1049600001303FF41EAFDDE90D23134302D123686C
:10497000D907D9D5DDE9092359462846B047013082
:104980003FF40FAF4FF0000804F11A090D9B5B4292
:10499000434501DC0E9B97E701234A4659462846CA
:1049A000B04701303FF4FDAE08F10108EEE70E9A82
:1049B000A36D9A42A8BF1A46002A904607DD134607
:1049C00059463A462846B04701303FF4EAAE04F172
:1049D0001A034FF0000A28EAE8780B9316E000BFAC
:1049E000FFFFEF7F90710008947100089871000834
:1049F0009C710008A071000801230B9A59462846B3
:104A0000B04701303FF4CDAE0AF1010AD4F8589016
:104A1000A9EB08035345EFDCDDE90D239A421ADBCD
:104A20002368DA0717D4DDE90D2391451BDBA3EBDF
:104A30000908B8F1000F08DD434607EB09025946A3
:104A40002846B04701303FF4ACAE002728EAE878AA
:104A500004F11A0913E0DDE9092359462846B04755
:104A60000130E0D19DE6A3EB0208E2E701234A46CC
:104A700059462846B04701303FF493AE0137DDE98F
:104A80000D239B1AA3EB0803BB42EFDC4CE70E9A05
:104A9000012A01DCDB0734D501233A465946284672
:104AA000B04701303FF47DAEDDE909235946284681
:104AB000B04701303FF475AED4E912010022002363
:104AC000FBF772FFC8B90E9B7A1C013B594628467A
:104AD000B04701300DD164E60123424659462846CD
:104AE000B04701303FF45DAE01370E9B013BBB4246
:104AF000F2DC4B4604F15002E7E6002704F11A0805
:104B0000F3E701233A46E1E70123424659462846A6
:104B1000B04701303FF445AE0137E3680F9A9B1A66
:104B2000BB42F1DC04E7002704F11908F5E700BFF8
:104B30002DE9F04791461F468A680B690646934265
:104B4000B8BF1346C9F8003091F843200C46DDF891
:104B5000208012B10133C9F800302368990642BFA2
:104B6000D9F800300233C9F80030256815F0060581
:104B700007D104F1190AE368D9F800209B1AAB4267
:104B800029DC94F843302268003318BF01239206D1
:104B90002ED404F1430239463046C047013021D0BB
:104BA0002368E56803F00603042B18BF0025D9F835
:104BB00000204FF0000908BFAD1AA368226908BFA2
:104BC00025EAE5759342C4BF9B1AED181A344D458A
:104BD0001AD1002008E00123524639463046C0472A
:104BE000013003D14FF0FF30BDE8F0870135C2E757
:104BF0003020E11881F843005A1C94F845102244F3
:104C0000023382F84310C4E7012322463946304676
:104C1000C0470130E6D009F10109D8E72DE9F0439A
:104C200006460C4601F14300097E85B06E29984680
:104C300017460C9B00F0BB8024D8632939D00AD8D2
:104C4000002900F0C480582900F0928004F1420548
:104C500084F8421035E0642901D06929F6D125682D
:104C60001A6815F0800F02F104012CD01268196047
:104C7000002A03DA2D23524284F84330DFF8C0C102
:104C80000A233FE0732900F0A68008D86F2921D0BD
:104C90007029DBD1226842F02002226003E07529EE
:104CA00018D07829D2D17822DFF898C184F845202D
:104CB00062E01A6804F14205111D1960136884F856
:104CC0004230012394E0126815F0400F196018BFBC
:104CD00012B2CDE7D4F800C01A681CF0800F02F1C0
:104CE00004051D6001D0126803E01CF0400FFAD0EB
:104CF00012886F290CBF08230A23DFF844C1002162
:104D000084F843106568002DA8BF2168A560A4BF82
:104D100021F0040121600AB9002D46D00546B2FBFE
:104D2000F3F103FB112E1CF80EE0934205F801EDA0
:104D300039D9082B0BD12368DA0708D523696268B3
:104D40009A42DEBF302305F8013C05F1FF35401BD8
:104D50002061CDF800803B4603AA21463046FFF78C
:104D6000E7FE013049D14FF0FF3005B0BDE8F083D8
:104D7000DFF8CCC084F845101D68216855F8042B75
:104D80001D600D060BD5CD0744BF41F02001216009
:104D90001AB9236823F0200323601023AFE74B06E2
:104DA00048BF92B2EFE70A46B9E70546C1E71A687D
:104DB000D4F800C0151D61691CF0800F1D601368D8
:104DC00001D0196003E01CF0400FFAD019800023D5
:104DD00005462361BDE71A68111D19601568002199
:104DE0006268284601F00AFA08B1401B60606368F7
:104DF0002361002384F84330ABE723692A46394610
:104E00003046C0470130AED023689B0713D4E0681A
:104E1000039B9842B8BF1846A7E701234A46394684
:104E20003046C04701309ED00135E368039A9B1A93
:104E3000AB42F2DCEBE7002504F11909F5E700BF0E
:104E4000A2710008B37100080FB40A4B13B51C68B7
:104E500024B1A36913B9204601F0C0F805AB049A48
:104E6000A1682046019301F097FD02B0BDE8104013
:104E700004B070471C00002038B5084B05461C687C
:104E800024B1A36913B9204601F0A8F8A268294605
:104E90002046BDE8384001F0A7BE00BF1C0000203E
:104EA00070B50E46054618B183690BB901F096F846
:104EB000AB69AC6813B9284601F090F82C4B9C42C2
:104EC00020D16C68636EDB0705D4A389980502D4F2
:104ED000A06D01F024F9A38919071DD52369DBB161
:104EE000013EA36816F8011F013BA36039BB002BEC
:104EF00038DA22460A21284600F058F8013011D04D
:104F00000A2511E01B4B9C4201D1AC68DAE71A4B31
:104F10009C4208BFEC68D5E72146284600F098F887
:104F20000028DDD04FF0FF35636EDA0705D4A38982
:104F30009B0502D4A06D01F0F3F8284670BD002B4C
:104F400004DAA2699A4206DC0A2904D023685A1CB2
:104F500022601970C5E72246284600F027F8013084
:104F6000BFD1DFE70A2523685A1C22601D70DBE7EA
:104F7000F471000814720008D4710008024B014655
:104F80001868FFF78DBF00BF1C000020034610B556
:104F90001A4612F8014B3CB9013B11F8012B03F8FA
:104FA000012F002AF9D110BD1346F1E7F8B50E46DE
:104FB0001446054618B183690BB901F00FF8214B6F
:104FC0009C422BD16C68A369A360A3891A072FD5D3
:104FD00023696BB323692068F6B2C01A6369374648
:104FE000834204DC2146284600F064FF30BBA368FE
:104FF0000130013BA36023685A1C22601E70636964
:10500000834204D0A389DB0706D50A2E04D12146AA
:10501000284600F04FFF88B93846F8BD0A4B9C423D
:1050200001D1AC68CFE7094B9C4208BFEC68CAE7E6
:105030002146284600F00CF80028CBD04FF0FF376F
:10504000EAE700BFF471000814720008D471000888
:10505000324B70B51D6806460C4625B1AB6913B9D5
:10506000284600F0BBFF2E4B9C420FD16C68B4F970
:105070000C309AB215072CD4D00611D40922326014
:1050800043F04003A3814FF0FF303EE0254B9C42AC
:1050900001D1AC68EBE7244B9C4208BFEC68E6E723
:1050A000510712D5616B41B104F14403994202D01A
:1050B000304601F0A3FB00236363A38923F024039C
:1050C000A3810023636023692360A38943F008035D
:1050D000A38123694BB9A38903F42073B3F5007F3F
:1050E00003D02146304601F041F8A28912F00103B5
:1050F0000CD00023A36063695B42A361236953B9A9
:10510000B4F90C3013F08000BAD170BD920758BFCB
:105110006369A360F2E70020F7E700BF1C000020EE
:10512000F471000814720008D47100082DE9F74FDB
:1051300003690C698046A342C0F28280013CA00052
:1051400008F1140501F114072B18019357F82430C6
:1051500055F8242001339A4207EB0009B2FBF3F61D
:1051600032D34FF0000ABC46AE46D3465CF8042B5F
:1051700093B206FB03A3120C4FEA134A06FB02A2EA
:105180009BB2ABEB0303DEF800B04FEA124A1FFA02
:105190008BFB5B441FFA82FBDEF80020E145CBEB82
:1051A000124202EB23429BB243EA02434FEA224BF4
:1051B0004EF8043BDAD22B5833B9019B043B9D4295
:1051C0001A4631D3C8F81040404601F042FA002890
:1051D00026DB28464FF0000C013657F8041BD0F8A8
:1051E00000E08BB2ACEB03031FFA8EF213440A0CFF
:1051F000C2EB1E4202EB23429BB243EA0243B94593
:105200004FEA224C40F8043BE7D255F8242005EB46
:1052100084032AB9043B9D421A460BD3C8F81040B8
:10522000304603B0BDE8F08F1268043B002AC9D1B4
:10523000013CC4E71268043B002AEFD1013CEAE7D5
:105240000020EEE7000000002DE9F04F476A97B01C
:1052500080461D46239E92469B4647B9102000F08B
:10526000C5FFC0E90177C8F824000760C760D8F817
:105270002430196859B15A68012393404A608B6001
:10528000404601F00BF80022D8F824301A602B1E9B
:10529000ADBF0023012223F0004B3360AE4BB8BFFB
:1052A000326033EA0B035C461AD142F20F73229A42
:1052B0001360CBF3130353EA0A0300F05F85249BCA
:1052C00053B9A64B21E0A64B05930833249A1360EB
:1052D000059817B0BDE8F08FA04B05930333F5E7B1
:1052E0000022002350465946CDE90CABFBF75CFB8E
:1052F000074660B10123229A1360249B002B00F023
:105300003A85984B249A1360013B0593E0E714AB70
:10531000019315AB00934046DDE90C2301F011FA2F
:10532000CBF30A560390002E00F08180DDE90C4596
:105330000D9BA6F2FF36C3F3130343F07F5545F4EC
:10534000401512970022884B20462946FAF70CFF99
:105350007BA3D3E90023FBF7BFF87BA3D3E90023AA
:10536000FAF704FF044630460D46FBF74BF878A3E6
:10537000D3E90023FBF7B0F802460B462046294646
:10538000FAF7F4FE04460D46FBF756FB0022814671
:10539000002320462946FBF711FB48B14846FBF79E
:1053A00031F822462B46FBF7FFFA08B909F1FF391D
:1053B000B9F1160F58D8DDE90C016C4B03EBC903AA
:1053C000D3E90023FBF7FAFA00284FD0002309F1B4
:1053D000FF391193149B9E1B731E099345BFC6F1A1
:1053E000010308930023002354BF08930993B9F1E4
:1053F000000F3DDB099BCDF840904B4409930023FF
:105400000A93209B092B00F28D80052BC4BF043B1F
:105410002093209BC8BF0024A3F10203D8BF01241E
:10542000032B00F2A780DFE803F02D3A387BDDE99B
:1054300014631E4406F232402028C1BFC0F1400070
:10544000844006F212402AFA00F0D6BFC0F12000D4
:1054500020430AFA00F0FAF7C5FF01230446A1F140
:10546000F875013E12936DE70123B2E71190B1E7A1
:10547000089BA3EB09030893C9F100030A930023D7
:105480001093BEE700230B93219B002B75DC0123B7
:105490001A460693049321920BE00123F3E70023BD
:1054A0000B93219B4B4406930133012B0493B8BF0C
:1054B00001230022D8F824506A60042202F114006B
:1054C000984269685DD9404600F0B4FED8F82430AF
:1054D00028601B680593049B0E2B00F2D580002CDE
:1054E00000F0D280B9F1000F69DD204A09F00F0306
:1054F00002EBC303D3E90034CDE90E344FEA29149B
:10550000E0065AD5DDE90C01194B0327D3E908233E
:10551000FBF70CF982468B4604F00F04144D41E072
:105520000123BDE7012400230B9420934FF0FF33A8
:105530000022069304931223ADE700BFAFF300806F
:1055400061436F63A787D23FB3C8608B288AC63F89
:10555000FB799F501344D33F0000F07FCD710008CA
:10556000C4710008A17100080000F83F60720008D3
:105570003872000801230B93D8E7219B069304930C
:1055800097E701316960520098E7E10708D5DDE946
:105590000E01D5E90023FAF79FFFCDE90E0101378F
:1055A00064100835002CF0D1DDE90E235046594631
:1055B000FBF7BCF882468B461AE00227AEE700F004
:1055C0009D80DDE90C01C9F100049B4B04F00F0242
:1055D00003EBC203D3E90023FAF77EFF02278246DA
:1055E0008B460023954D2411002C7CD1002BE1D15A
:1055F000119B002B00F084800022914B50465946AD
:105600005D46FBF7DBF900287AD0049B002B77D0AE
:10561000069B002B36DD504659460022894BFAF78F
:105620005BFF82468B46069C09F1FF360137384600
:10563000FAF7E8FE52465B46FAF74EFF0022824B2D
:10564000FAF794FDA1F15075CDE90E010F95002CEC
:1056500059D100227D4B50465946FAF785FD0E9AE6
:105660002B4682468B46FBF7C7F9002840F086821E
:105670000E9A05F1004350465946FBF79FF9002862
:1056800040F07A82DDE90CAB159B002BC0F24B8118
:10569000B9F10E0F00F34781674B03EBC903D3E960
:1056A0000034CDE90634219B002B80F2D380049B8B
:1056B000002B00F3CF8040F05E82DDE9060100227E
:1056C000624BFAF709FF52465B46FBF78BF9049CE5
:1056D0002646002840F037823123059D09F1010953
:1056E00005F8013B33E2E20705D5D5E90023FAF7D7
:1056F000F3FE012301376410083575E7022777E7C9
:105700004E46049C93E74C4B03EBC40353E9020160
:10571000059B1C440B9B002B44D002460B460020EB
:105720004B49FBF703F8DDE90E23FAF71DFDCDE940
:105730000E01059D59465046FBF77EF90746FAF7DC
:1057400061FE02460B4650465946FAF70DFDDDE96B
:105750000E23303705F8017B82468B46FBF72EF986
:1057600000285FD152465B4600203549FAF7FCFC21
:10577000DDE90E23FBF722F9002840F0B580A542B1
:1057800080D0DDE90E0100222E4BFAF7A5FE0022A3
:10579000CDE90E012B4B50465946FAF79DFE824645
:1057A0008B46C7E7DDE90E23FAF796FE2546CDE9DD
:1057B0000E01059F59465046FBF73EF91390FAF744
:1057C00021FE02460B4650465946FAF7CDFC139B84
:1057D0008246303307F8013BA7428B464FF0000268
:1057E00024D1DDE90E011A4BFAF7C0FC02460B4644
:1057F00050465946FBF700F9002875D1DDE90E2324
:1058000000201349FAF7B0FC02460B4650465946B1
:10581000FBF7D4F800283FF435AF15F8013C6A1EB9
:10582000302B01D0B1464EE01546F6E7054BFAF7AE
:1058300053FE82468B46BDE760720008387200084E
:105840000000F03F0000244000001C400000144015
:105850000000E03F56464FF0000A5F46059DDFF826
:1058600044B5DDE9062330463946FAF75FFFFBF71A
:10587000E3F80446FAF7C6FDDDE90623FAF72CFE45
:1058800002460B4630463946FAF76EFC04F1300604
:1058900005F8016B059E049FAE1BB74202460B46FE
:1058A00034D1FAF763FCDDE9062306460F46FBF721
:1058B000A3F8C0B9DDE9062330463946FBF774F892
:1058C00008B1E3070FD40399404600F0E7FC00233A
:1058D000229A2B7009F101031360249B002B3FF4E3
:1058E000F7AC1D60F4E44E4615F8012C6B1E392A06
:1058F00006D1059A9A4207D13022059901360A70DD
:105900001A7801321A708DE71D46EDE752465B4664
:10591000FAF7E2FD0022002306460F46FBF744F8A3
:1059200000289ED0CFE70B9A002A00F0CC80209A66
:10593000012A00F3AE80129A002A00F0A68003F23A
:1059400033430A9C089D089A01211A440892099A37
:1059500040461A44099200F043FD0646002D0CDD36
:10596000099B002B09DDAB42A8BF2B46089AED1A14
:10597000D21A0892099AD31A09930A9BF3B10B9B86
:10598000002B00F0A480002C10DD3146224640465A
:1059900000F0BEFD039A01460646404600F029FD90
:1059A00007460399404600F079FC03970A9B1A1BAF
:1059B00004D00399404600F0ABFD0390012140461E
:1059C00000F00EFD109B0446002B40F382801A4627
:1059D0000146404600F09CFD209B0446012B7BDDE8
:1059E0000027236904EB8303186900F0A9FCC0F1C8
:1059F0002000099B184410F01F0000F08B80C0F1BC
:105A00002003042B40F38480C0F11C00089B054454
:105A100003440893099B03440993089B002B05DD6D
:105A20001A460399404600F0C1FD0390099B002BE4
:105A300005DD21461A46404600F0B8FD0446119B9C
:105A4000002B69D02146039800F003FE002863DA9A
:105A500000230A220399404600F037FC0B9B09F112
:105A6000FF390390002B00F09081002331460A2279
:105A7000404600F02AFC069B0646002B00F3878078
:105A8000209B022B40F383804EE0149BC3F136032E
:105A900057E7049B5C1E0A9BA342B7BF0A9B1C1BD3
:105AA000E21A109BBEBF0A949B181093049BB8BFC8
:105AB0000024002BBBBF089B049A089D9D1AACBF15
:105AC000049B00233FE70A9C089D0B9E46E70A9A29
:105AD0006FE7209B012B17DCBAF1000F14D1CBF339
