:020000040800F2
:1000000000500020ED1C000875030008770300086D
:10001000790300087B0300087D030008000000004E
:100020000000000000000000000000007F03000846
:100030008103000800000000830300088503000816
:10004000351D0008351D0008351D0008351D000848
:10005000351D0008351D0008351D0008351D000838
:10006000351D0008351D0008351D0008351D000828
:10007000351D0008351D0008351D0008351D000818
:10008000351D0008351D0008351D0008351D000808
:10009000351D0008351D0008351D0008351D0008F8
:1000A000351D0008351D0008351D0008351D0008E8
:1000B000351D0008351D0008351D0008351D0008D8
:1000C000351D0008351D0008351D0008351D0008C8
:1000D000351D00088D030008351D0008351D00087A
:1000E000351D0008351D0008351D00080000000002
:1000F0000000000000000000000000000000000000
:0C01000000000000000000005FF808F1A3
:10010C0010B5054C237833B9044B13B10448AFF345
:10011C0000800123237010BD0C00002000000000A3
:10012C00901D000808B5034B1BB103490348AFF3FE
:10013C00008008BD0000000010000020901D000889
:10014C0030B591B0202200210DEB020001F012FE1F
:10015C0000240194029403940494059401220692C1
:10016C004FF4803307930A9202250D950E9306A83F
:10017C0000F0DCFC0F230193029503940494059486
:10018C00214601A800F012FF11B030BD10B500F0EF
:10019C007FFCFFF7D5FF00F099F801F095F901F01D
:1001AC00D5FC01F047FD00224FF40051284801F026
:1001BC00CCF801222749284801F037FB00212748B9
:1001CC0000F070FB0021264800F06CFBC82427E0EF
:1001DC0001224FF400511E4801F0B7F82CE0A4F5B1
:1001EC00E1641E4B1B685C631D4B1B685C634FF426
:1001FC007A7000F071FC4FF6FF731A4A12781A49A4
:10020C00154801F0A5FA144801F032FC2128FAD067
:10021C000021144B19704FF48072134801F0AAFDA1
:10022C000121124801F08AF80128D1D000224FF4A4
:10023C000051074801F089F8B4F5FA6FCFDCC834E7
:10024C00064B1B685C63064B1B685C63CFE700BF07
:10025C00001001402C01002034010020740100200A
:10026C00BC010020280000202C000020000C0140C4
:10027C0008B5104B1B78FF2B0CD0591C0D4A117074
:10028C000D4A11780D4AD15401220B490C4801F04A
:10029C00CCFA08BD0021074B19704FF48072074847
:1002AC0001F068FD4FF6FF7308220649044801F07F
:1002BC004FFAE9E7280000202C0100202C00002038
:1002CC0034010020BC1D000870470000F0B589B057
:1002DC0000240494059406940794204B9A6942F0E8
:1002EC0010029A619A6902F010020092009A9A69BF
:1002FC0042F020029A619A6902F020020192019A5E
:10030C009A6942F004029A619A6902F0040202921C
:10031C00029A9A6942F008029A619B6903F00803F9
:10032C000393039B0E4F22464FF40051384601F0C5
:10033C000CF84FF4005304930126059606940225FD
:10034C00079504A9384600F00DFF04960594069510
:10035C0004A9044800F006FF09B0F0BD00100240EB
:10036C0000100140000C01407047FEE7FEE7FEE77D
:10037C00FEE770477047704708B500F09BFB08BD5F
:10038C0008B5024801F0D8FA08BD00BF34010020BE
:10039C0082B00E4B9A6942F001029A619A6902F09E
:1003AC0001020092009ADA6942F08052DA61DB694C
:1003BC0003F080530193019B054A536823F0E063DB
:1003CC0043F00073536002B0704700BF001002404E
:1003DC000000014070B4036A23F001030362036A56
:1003EC004668826922F073020C6844EA020523F025
:1003FC0002028B6813430D4CA04209D00B4CA04257
:10040C000DD0466085614A684263036270BC7047D8
:10041C0023F00803CA68134323F00403EEE726F421
:10042C0040764A6932438E691643EAE7002C014054
:10043C0030B4036A23F480730362036A4568C269AB
:10044C0022F073020C68224323F400738C6843EA95
:10045C0004230F4CA04209D00D4CA0420ED0456095
:10046C00C2614A68C263036230BC704723F4006304
:10047C00CC6843EA042323F48063EDE725F440556C
:10048C004C6945EA04158C6945EA0415E7E700BF99
:10049C00002C014030B4036A23F480530362036AD6
:1004AC004468C26922F4E6420D6842EA052223F44C
:1004BC0000538D6843EA0533074DA84206D04460CB
:1004CC00C2614A680264036230BC704724F4804401
:1004DC004D6944EA8514F2E7002C014010B4036A1C
:1004EC00046A24F001040462846924F0F00444EAF0
:1004FC00021223F00A030B438261036210BC7047A3
:10050C0010B4036A23F0100303628469036A24F4B1
:10051C00704444EA023223F0A00343EA01138261DF
:10052C00036210BC7047836823F07003194341F0D9
:10053C00070181607047704703681B4A90420AD0DC
:10054C00B0F1804F07D0A2F59432904203D002F55F
:10055C008062904203D123F070034A681343124A1D
:10056C0090420AD0B0F1804F07D0A2F5943290425D
:10057C0003D002F58062904203D123F44073CA6821
:10058C00134323F080034A69134303608B68C362EF
:10059C000B688362044B984202D00123436170477D
:1005AC000B690363F9E700BF002C014040B310B5A1
:1005BC00044690F83D30F3B1022384F83D302146D7
:1005CC0051F8040BFFF7B8FF012384F8463084F888
:1005DC003E3084F83F3084F8403084F8413084F861
:1005EC00423084F8433084F8443084F8453084F841
:1005FC003D30002010BD80F83C3001F03FFADBE7C5
:10060C000120704740B310B5044690F83D30F3B16B
:10061C00022384F83D30214651F8040BFFF78CFF80
:10062C00012384F8463084F83E3084F83F3084F857
:10063C00403084F8413084F8423084F8433084F8F8
:10064C00443084F8453084F83D30002010BD80F8EB
:10065C003C30FFF770FFDBE70120704730B4036AD2
:10066C0023F010030362036A4468826922F4E642B1
:10067C000D6842EA052223F020038D6843EA051336
:10068C000E4DA84209D00D4DA8420ED04460826197
:10069C004A688263036230BC704723F08003CD68E4
:1006AC0043EA051323F04003EDE724F440644D695D
:1006BC0044EA85048D6944EA8504E7E7002C01408F
:1006CC0038B590F83C30012B60D00D460446012320
:1006DC0080F83C300C2A1AD8DFE802F007191919F7
:1006EC001D1919193119191944000068FFF772FE08
:1006FC002268936943F0080393612268936923F09D
:10070C00040393612268936929690B439361002068
:10071C0084F83C0038BD0068FFF7A0FF226893699D
:10072C0043F4006393612268936923F480639361BB
:10073C0022689369296943EA01239361E7E700681A
:10074C00FFF776FE2268D36943F00803D361226871
:10075C00D36923F00403D3612268D36929690B435D
:10076C00D361D4E70068FFF795FE2268D36943F4A0
:10077C000063D3612268D36923F48063D361226858
:10078C00D369296943EA0123D361C0E70220C1E799
:10079C0010B4846824F47F4442EA03230B432343BC
:1007AC00836010BC704790F83C30012B67D010B5BB
:1007BC000446012380F83C30022380F83D30026867
:1007CC00936823F47F4323F0770393600B68402BEB
:1007DC004BD013D9602B3ED025D9702B2FD0B3F52D
:1007EC00005F19D1CB684A6889680068FFF7D0FFB1
:1007FC002268936843F4804393600DE0102B04D07F
:10080C0008D9202B01D0302B06D119462068FFF7D0
:10081C008AFE01E0002BF8D0012384F83D30002043
:10082C0084F83C0010BD502BF6D1CA6849680068AA
:10083C00FFF754FE50212068FFF775FEECE7CB68FC
:10084C004A6889680068FFF7A3FF2268936843F041
:10085C0077039360E0E7CA6849680068FFF750FEC9
:10086C0060212068FFF75FFED6E7CA684968006818
:10087C00FFF734FE40212068FFF755FECCE702203D
:10088C00704710B401F01F01012303FA01F4036A4D
:10089C0023EA04030362036A8A401343036210BC15
:1008AC00704700000A4669BB90F83E30DBB213F18A
:1008BC00FF3318BF0123002B60D110B5002A3DD1A6
:1008CC00022380F83E301146044601220068FFF7EF
:1008DC00D8FF23682B4A934240D02368294A93427D
:1008EC0041D0B3F1804F3ED0A2F5943293423AD02E
:1008FC0002F58062934236D01A6842F001021A6007
:10090C0000203AE0042909D008290FD090F8413092
:10091C00DBB213F1FF3318BF0123CCE790F83F3063
:10092C00DBB213F1FF3318BF0123C4E790F840305A
:10093C00DBB213F1FF3318BF0123BCE7042A05D047
:10094C00082A07D0022380F84130BCE7022380F844
:10095C003F30B8E7022380F84030B4E75A6C42F4D9
:10096C0000425A64B9E79A6802F00702062A07D0D7
:10097C001A6842F001021A60002010BD0120704775
:10098C000020FAE7002C014090F83C30012B2BD0D2
:10099C0030B4012380F83C30022380F83D300368EA
:1009AC005C689D6824F070040A6822435A600368EE
:1009BC000E4A93420AD0B3F1804F07D0A2F594327D
:1009CC00934203D002F58062934204D125F0800556
:1009DC004A6815439D60012380F83D30002380F860
:1009EC003C30184630BC704702207047002C014048
:1009FC0090F83C30012B22D0012380F83C30CB689E
:100A0C0023F440738A68134323F480634A681343C6
:100A1C0023F400630A68134323F480530A691343D5
:100A2C0023F400534A69134323F48043CA691343E4
:100A3C0002685364002380F83C301846704702204B
:100A4C007047000010B504460E4B18784FF47A73BB
:100A5C00B3FBF0F30C4A1068B0FBF3F000F01CFD94
:100A6C0068B90F2C01D901200AE0002221464FF071
:100A7C00FF3000F0CFFC054B1C60002000E0012093
:100A8C0010BD00BF00000020080000200400002062
:100A9C0008B5074A136843F010031360032000F0F5
:100AAC00A7FC0020FFF7CEFFFFF772FC002008BD6B
:100ABC0000200240034A1168034B1B780B4413605F
:100ACC00704700BF3001002000000020014B186867
:100ADC00704700BF3001002038B50446FFF7F6FF21
:100AEC000546B4F1FF3F02D0044B1B781C44FFF7C2
:100AFC00EDFF401BA042FAD338BD00BF0000002020
:100B0C0082B0084B1B68084AA2FB03235B0A00FB5C
:100B1C0003F0019000BF019B5A1E0192002BF9D1EA
:100B2C0002B0704708000020D34D6210002800F07E
:100B3C00F18170B582B00446036813F0010F2CD01C
:100B4C00AA4B5B6803F00C03042B1DD0A74B5B680E
:100B5C0003F00C03082B12D06368B3F5803F41D02F
:100B6C00002B55D103F1804303F504331A6822F4AA
:100B7C0080321A601A6822F480221A6037E09B4B8C
:100B8C005B6813F4803FE7D0984B1B6813F4003F6D
:100B9C0003D06368002B00F0BF81236813F0020FB1
:100BAC0075D0924B5B6813F00C0F5FD08F4B5B686A
:100BBC0003F00C03082B54D02369002B00F0898020
:100BCC008B4B01221A60FFF781FF0546874B1B6890
:100BDC0013F0020F74D1FFF779FF401B0228F5D9EF
:100BEC0003209EE1814A136843F4803313606368E9
:100BFC0043B3FFF76BFF05467C4B1B6813F4003FB8
:100C0C00CBD1FFF763FF401B6428F5D9032088E1A3
:100C1C00B3F5A02F09D0754B1A6822F480321A60F4
:100C2C001A6822F480221A60E1E703F18043A3F5ED
:100C3C003C331A6842F480221A601A6842F48032FB
:100C4C001A60D4E7FFF742FF0546684B1B6813F4A4
:100C5C00003FA2D0FFF73AFF401B6428F5D90320D0
:100C6C005FE1624B5B6813F4803FA5D15F4B1B685F
:100C7C0013F0020F03D02369012B40F04F815B4A24
:100C8C00136823F0F803616943EAC1031360236816
:100C9C0013F0080F32D0A369002B5BD0554B012207
:100CAC001A60FFF713FF0546504B5B6A13F0020FF7
:100CBC0021D1FFF70BFF401B0228F5D9032030E1AF
:100CCC004A4A136823F0F803616943EAC1031360CD
:100CDC00DDE7474B00221A60FFF7F8FE0546434B51
:100CEC001B6813F0020FD2D0FFF7F0FE401B022856
:100CFC00F5D9032015E10120FFF702FF236813F05B
:100D0C00040F00F09780394BDB6913F0805F33D10F
:100D1C00364BDA6942F08052DA61DB6903F08053BA
:100D2C000193019B0125344B1B6813F4807F25D064
:100D3C00E368012B36D0002B4CD103F1804303F533
:100D4C0004331A6A22F001021A621A6A22F00402AF
:100D5C001A622CE0274B00221A60FFF7B7FE0546FB
:100D6C00224B5B6A13F0020FC8D0FFF7AFFE401B9B
:100D7C000228F5D90320D4E00025D4E71E4A1368D5
:100D8C0043F480731360FFF7A1FE06461A4B1B68F1
:100D9C0013F4807FCCD1FFF799FE801B6428F5D922
:100DAC000320BEE0114A136A43F001031362E368A7
:100DBC0073B3FFF78BFE06460C4B1B6A13F0020F46
:100DCC0037D1FFF783FE801B41F288339842F3D969
:100DDC000320A6E0052B11D0044B1A6A22F0010265
:100DEC001A621A6A22F004021A62E0E7001002404A
:100DFC000000424280044242007000404D4B1A6A8F
:100E0C0042F004021A621A6A42F001021A62CEE738
:100E1C00FFF75CFE0646474B1B6A13F0020F08D027
:100E2C00FFF754FE801B41F288339842F3D903201C
:100E3C0077E0E5B9E369002B72D03E4A526802F0C4
:100E4C000C02082A56D0022B17D03B4B00221A60FA
:100E5C00FFF73CFE0446374B1B6813F0007F47D06E
:100E6C00FFF734FE001B0228F5D9032059E0314A64
:100E7C00D36923F08053D361DCE72F4B00221A6037
:100E8C00FFF724FE05462B4B1B6813F0007F06D0A2
:100E9C00FFF71CFE401B0228F5D9032041E0236A12
:100EAC00B3F5803F1AD023494B6823F47413226A9C
:100EBC00606A024313434B601F4B01221A60FFF719
:100ECC0005FE04461B4B1B6813F0007F0ED1FFF789
:100EDC00FDFD001B0228F5D9032022E0154A5368BA
:100EEC0023F40033A1680B435360DCE7002018E0C7
:100EFC00002016E0012B16D00E4B5B6803F48031FA
:100F0C00226A914211D103F47013626A93420ED19A
:100F1C00002006E001207047012002E0012000E0E3
:100F2C00002002B070BD0120FBE70120F9E7012091
:100F3C00F7E700BF001002406000424210B487B0D7
:100F4C00164C94E80F000DF1180C0CE90F00238AD5
:100F5C00ADF80430124B5B6803F00C02082A03D086
:100F6C00104807B010BC7047C3F38342624412F8B8
:100F7C00102C13F4803F0CD0094B5B68C3F3404337
:100F8C00634413F8143C074800FB02F0B0FBF3F089
:100F9C00E7E7054800FB02F0E3E700BFA81D0008E7
:100FAC000010024000127A0000093D00002800F0F9
:100FBC00A08070B50446534B1B6803F007038B42AB
:100FCC000BD2504A136823F007030B4313601368CA
:100FDC0003F007038B4240F08E80236813F0020F5E
:100FEC0017D013F0040F04D0474A536843F4E0635E
:100FFC005360236813F0080F04D0434A536843F43A
:10100C0060535360404A536823F0F003A0680343D5
:10101C0053600D46236813F0010F31D06368012B28
:10102C0020D0022B25D0384A126812F0020F64D05F
:10103C0035494A6822F0030213434B60FFF746FD23
:10104C000646314B5B6803F00C036268B3EB820F0E
:10105C0016D0FFF73BFD801B41F288339842F0D944
:10106C00032045E0284A126812F4003FE0D1012029
:10107C003EE0254A126812F0007FD9D1012037E0FA
:10108C00204B1B6803F00703AB420AD91D4A1368B7
:10109C0023F007032B431360136803F00703AB42E1
:1010AC002DD1236813F0040F06D0174A536823F48C
:1010BC00E063E1680B435360236813F0080F07D01B
:1010CC00114A536823F46053216943EAC103536006
:1010DC00FFF734FF0C4B5B68C3F303130B4AD35C71
:1010EC00D8400B4B18600B4B1868FFF7ABFC00207B
:1010FC0070BD012070470120FAE70120F8E70120BC
:10110C00F6E700BF0020024000100240C81D000896
:10111C000800002004000020014B1868704700BF35
:10112C000800002008B5FFF7F7FF044B5B68C3F31A
:10113C000223034AD35CD84008BD00BF0010024014
:10114C00D81D000808B5FFF7E7FF044B5B68C3F335
:10115C00C223034AD35CD84008BD00BF0010024034
:10116C00D81D0008F0B482B000263546A0E0002A55
:10117C0058D0012A10D1CE680EE06A4FBA4251D035
:10118C0048D9694FBA424DD007F58037BA4249D099
:10119C00A7F58017BA4245D0FF2B57D88446FF2BB2
:1011AC0057D8AC00DCF800200F27A74022EA070232
:1011BC0006FA04F42243CCF800204A6812F0805F4F
:1011CC0075D05A4A946944F001049461926902F012
:1011DC0001020192019AAC08A71C554A52F827202B
:1011EC0005F00307BF004FF00F0C0CFA07FC22EAC6
:1011FC000C0C504A904232D002F58062904271D071
:10120C0002F5806290426FD002F58062904224D049
:10121C00042225E0A7F58017BA4203D007F58037E2
:10122C00BA42B9D18A687AB1012A08D04461082639
:10123C00B2E7CE680836AFE7CE680C36ACE704618F
:10124C000826A9E70026A7E70426A5E700F1040C69
:10125C00A5E7A5F10804A400A4E7032200E00022FE
:10126C00BA4042EA0C020234314F47F824204A6853
:10127C0012F4803F3AD0304C22681A4322604A68FC
:10128C0012F4003F38D02C4C62681A4362604A68F2
:10129C0012F4801F36D0284CA2681A43A2604A6808
:1012AC0012F4001F34D0244CE2681343E360013580
:1012BC000B6833FA05F231D00124AC4023409C4238
:1012CC00F5D14A68122AB7D03FF657AF022AB0D0F0
:1012DC007FF64DAF032AB5D0112A7FF45DAFCE68EF
:1012EC00043659E70122BBE70222B9E7124C226807
:1012FC0022EA03022260C2E70F4C626822EA030270
:10130C006260C4E70C4CA26822EA0302A260C6E742
:10131C00094CE26822EA0303E360C8E702B0F0BCC0
:10132C00704700BF00002110000031100010024077
:10133C00000001400008014000040140836819428C
:10134C0001D001207047002070470AB1016170473D
:10135C00090401617047000008B590F82130022B98
:10136C0003D004238363012008BD0268136823F0B3
:10137C000E0313600268136823F001031360036803
:10138C00194A934214D0143293421FD01432934210
:10139C001ED0143293421ED0143293421ED01432FB
:1013AC00934202D04FF0807203E04FF4801200E0C1
:1013BC0001220E4B5A60012380F82130002380F863
:1013CC002030436B6BB198470020CDE71022F0E73B
:1013DC004FF48072EDE74FF48052EAE74FF480321D
:1013EC00E7E70020C0E700BF080002400000024011
:1013FC00074AD36823F4E0631B041B0C000200F4BF
:10140C00E060184340F0BF6040F40030D06070479B
:10141C0000ED00E030B4174BDB68C3F30223C3F1DB
:10142C000704042C28BF04241D1D062D01D9033BE1
:10143C0000E000234FF0FF3505FA04F421EA040123
:10144C00994005FA03F322EA03031943002809DB48
:10145C000901C9B200F1604000F5614080F8001349
:10146C0030BC704700F00F000901C9B2024B19548F
:10147C00F6E700BF00ED00E014ED00E0002807DB0C
:10148C0000F01F02400901239340024A42F8203029
:10149C00704700BF00E100E00138B0F1807F0AD254
:1014AC00064B5860064AF02182F823100020986001
:1014BC0007221A6070470120704700BF10E000E05F
:1014CC0000ED00E07047000008B50A480A4B0360C5
:1014DC004FF41653436000238360C36003610C22F6
:1014EC0042618361C36100F004F900B908BDFEF7E5
:1014FC00EBFEFBE7340100200038014030B587B02B
:10150C000023029303930493059302681B4B9A42A6
:10151C0001D007B030BD03F558439A6942F48042BC
:10152C009A619A6902F480420092009A9A6942F098
:10153C0004029A619B6903F004030193019B4FF42D
:10154C000073029302230393032305930C4D02A90A
:10155C002846FFF707FE4FF48063029300240394A0
:10156C00049402A92846FFF7FDFD224621462520BA
:10157C00FFF750FF2520FFF781FFCAE70038014035
:10158C00000801400268D36823F49073D3600268AA
:10159C00536923F001035361202380F83A307047DC
:1015AC0090F83930DBB2212B01D0022070478368D0
:1015BC00B3F5805F16D0036A5A1C02621A7803686E
:1015CC005A60C38C013B9BB2C3844BB90268D3688D
:1015DC0023F08003D3600268D36843F04003D360E8
:1015EC00002070470369002BE5D1036A1B88026851
:1015FC00C3F308035360036A02330362E1E700009C
:10160C0038B504460268136923F44053C1680B4390
:10161C00136183680269134342691A430168CB68FA
:10162C0023F4B05323F00C031343CB6002685369CB
:10163C0023F4407381690B4353610268124B9A4245
:10164C001FD0FFF76FFD00EB800000EB800063689C
:10165C009B00B0FBF3F00D4DA5FB00325109642249
:10166C0002FB110213013233A5FB03235B0903F0C8
:10167C00F00202EB011203F00F03216813448B609C
:10168C0038BDFFF75FFDDEE7003801401F85EB51E9
:10169C002DE9F04105460F4616469846069C2B68E8
:1016AC001B6837EA03030CBF01230023B3421DD18F
:1016BC00B4F1FF3FF3D02CB1FFF708FAA0EB080010
:1016CC00A042ECD92A68D36823F4D073D3602A687B
:1016DC00536923F001035361202385F8393085F8D1
:1016EC003A30002385F83830032000E00020BDE8B4
:1016FC00F08158B310B5044690F839300BB324235D
:10170C0084F839302268D36823F40053D360204620
:10171C00FFF776FF2268136923F490431361226864
:10172C00536923F02A0353612268D36843F40053AE
:10173C00D3600020E063202384F8393084F83A30F9
:10174C0010BD80F83830FFF7D9FED8E7012070477C
:10175C002DE9F04182B01E4690F83930DBB2202BD7
:10176C0054D104460D469046002954D0002A54D03A
:10177C0090F83830012B52D0012380F838300023F8
:10178C00C363212380F83930FFF7A0F90746A4F88A
:10179C002480A4F82680A368B3F5805F05D04FF0B1
:1017AC000008002384F8383011E0236913B14FF09E
:1017BC000008F6E7A8460025F3E738F8023B226854
:1017CC00C3F308035360E38C013B9BB2E384E38CCB
:1017DC009BB273B100963B46002280212046FFF756
:1017EC0057FFF0B9002DE8D015F8012B23685A608B
:1017FC00E9E700963B46002240212046FFF748FFD0
:10180C00034680B9202284F8392000E002231846D0
:10181C0002B0BDE8F0810123F9E70123F7E70223C9
:10182C00F5E70323F3E70323F1E790F83A30DBB253
:10183C00202B20D109B312B390F83830012B20D0D3
:10184C0081628285C2850023C363222280F83A20FC
:10185C0080F838300168CA6842F48072CA60016846
:10186C004A6942F001024A610168CA6842F02002EA
:10187C00CA6018467047022070470120704701204B
:10188C00704702207047704708B50168CB6823F099
:10189C004003CB60202380F83930FFF7F4FF0020A1
:1018AC0008BD08B590F83A30DBB2222B40D18368E2
:1018BC00B3F5805F13D0826AB3F5805F02D0DBB9D9
:1018CC000369CBB903685B681370836A0133836265
:1018DC00C38D013B9BB2C385A3B1002008BD026937
:1018EC00002AE8D1826A03685B68C3F3080313809B
:1018FC00836A02338362EBE703685B6803F07F0360
:10190C001370E2E70268D36823F02003D360026807
:10191C00D36823F48073D3600268536923F0010306
:10192C005361202380F83A30FEF7A2FC0020D5E763
:10193C000220D3E77047000010B504460268136814
:10194C00D168526913F00F0005D113F0200F02D0AB
:10195C0011F0200F13D128B112F0010213D111F4A0
:10196C00907F10D113F0800F02D011F0800F6CD14A
:10197C0013F0400F02D011F0400F6AD110BD204679
:10198C00FFF78FFFFAE713F0010F06D011F4807FF9
:10199C0003D0E06B40F00100E06313F0040F04D0BF
:1019AC001AB1E06B40F00200E06313F0020F04D0B8
:1019BC001AB1E06B40F00400E06313F0080F07D09D
:1019CC0011F0200F00D11AB1E26B42F00802E26371
:1019DC00E26B002AD2D013F0200F02D011F0200FAE
:1019EC0021D123685B6903F04003E26B12F0080F0E
:1019FC0000D123B32046FFF7C5FD23685A6912F0C6
:101A0C00400F18D05A6922F040025A61636B73B1CF
:101A1C00124A5A63606BFFF79FFC0028AED0606BD4
:101A2C00436B9847AAE72046FFF73BFFD9E72046D0
:101A3C00FFF780FFA2E72046FFF77CFF9EE72046DA
:101A4C00FFF778FF0023E36398E72046FFF7A8FD34
:101A5C0094E72046FFF718FF90E700BF6D1A0008C7
:101A6C0008B5406A0023C385C384FFF763FF08BD34
:101A7C0090F8393090F83A001843704782B00368F8
:101A8C000F4A934204D0B3F1804F0CD002B0704790
:101A9C000C4B9A6942F400629A619B6903F40063EF
:101AAC000093009BF2E703F50433DA6942F001027C
:101ABC00DA61DB6903F001030193019BE6E700BFE8
:101ACC00002C01400010024000B587B000230293A7
:101ADC000393049305930368194A934205D0B3F119
:101AEC00804F17D007B05DF804FB164B9A6942F093
:101AFC0004029A619B6903F004030093009B4FF46A
:101B0C008073029302230393059302A90E48FFF7F7
:101B1C0029FBE7E703F504339A6942F004029A6162
:101B2C009B6903F004030193019B0123029302239D
:101B3C000393059302A90448FFF714FBD2E700BFF7
:101B4C00002C0140001002400008014010B596B076
:101B5C0000241294139414941594109411940994D1
:101B6C000A940B940C940D940E940F9420222146FD
:101B7C0001A800F0FFF82D482D4B03600F234360A4
:101B8C00846044F61F63C360046144618461FEF7A2
:101B9C000DFD002837D14FF48053129312A923481E
:101BAC00FEF701FE002831D12048FEF72BFD00285E
:101BBC002FD100231093119310A91C48FEF7E4FEBB
:101BCC0050BB6023099300220A920B920C920D9247
:101BDC000E920F9209A91548FEF772FDF8B9002371
:101BEC00019302930393049305934FF400520692CE
:101BFC00089301A90D48FEF7FBFE98B90B48FFF7B7
:101C0C0063FF16B010BDFEF75FFBC4E7FEF75CFB8D
:101C1C00CAE7FEF759FBCCE7FEF756FBD1E7FEF718
:101C2C0053FBDCE7FEF750FBE8E700BF7401002034
:101C3C00002C014000B58FB000230A930B930C933A
:101C4C000D930893099301930293039304930593C3
:101C5C000693079321484FF0804202600F224260A6
:101C6C00836044F61F62C26003618361FEF79EFCD1
:101C7C0020BB4FF480530A930AA91848FEF793FD32
:101C8C00F8B91648FEF7BEFCF0B900230893099387
:101C9C0008A91248FEF778FEC8B960230193002208
:101CAC0002920392059201A90C48FEF709FD88B92E
:101CBC000A48FFF709FF0FB05DF804FBFEF704FBC1
:101CCC00D7E7FEF701FBDCE7FEF7FEFADDE7FEF7F0
:101CDC00FBFAE2E7FEF7F8FAEAE700BFBC010020E6
:101CEC00002103E00B4B5B58435004310A480B4B6B
:101CFC0042189A42F6D30A4A02E0002342F8043B07
:101D0C00084B9A42F9D3FFF7DDFB00F00FF8FEF712
:101D1C003DFA7047E81D0008000000200C00002070
:101D2C000C00002004020020FEE7000070B5002625
:101D3C000C4D0D4C641BA410A64209D100F022F8E6
:101D4C0000260A4D0A4C641BA410A64205D170BD96
:101D5C0055F8043B98470136EEE755F8043B984795
:101D6C000136F2E7E01D0008E01D0008E01D000848
:101D7C00E41D000803460244934200D1704703F867
:101D8C00011BF9E7F8B500BFF8BC08BC9E467047CC
:0C1D9C00F8B500BFF8BC08BC9E467047BC
:101DA80002030405060708090A0B0C0D0E0F101094
:101DB800010200004F564552464C4F5700000000A4
:101DC80000000000000000000102030406070809E3
:081DD8000000000001020304F9
:041DE00031010008C5
:041DE4000D010008E5
:0C1DE80001000000100000000024F400C6
:0400000508001CEDE6
:00000001FF
