:020000040800F2
:10000000005000208D810008C14F0008C34F000838
:10001000C54F0008C74F0008C94F00080000000086
:10002000000000000000000000000000CB4F0008AE
:10003000CD4F000800000000CF4F0008D14F00084E
:10004000D5810008D5810008D5810008D581000838
:10005000D5810008D5810008D5810008D581000828
:10006000D5810008D5810008D5810008D94F000846
:10007000D5810008D5810008D5810008D581000808
:10008000D5810008D5810008D5810008D5810008F8
:10009000D5810008D5810008D5810008D5810008E8
:1000A000D5810008D5810008D5810008D5810008D8
:1000B000D5810008E94F0008F94F0008D5810008F4
:1000C000D5810008D5810008D5810008D5810008B8
:1000D000D581000809500008D5810008D5810008A5
:1000E000D5810008D5810008D581000800000000F6
:1000F0000000000000000000000000000000000000
:0C01000000000000000000005FF808F1A3
:100110000348044B834202D0034B03B11847704796
:10012000EC010020EC010020000000000548064919
:100130000B1AD90F01EBA301491002D0034B03B1F5
:1001400018477047EC010020EC010020000000007F
:1001500010B5064C237843B9FFF7DAFF044B13B10F
:100160000448AFF300800123237010BDF00100208C
:1001700000000000D881000808B5044B1BB10449F9
:100180000448AFF30080BDE80840CFE7000000005E
:10019000F4010020D881000870B50D4E0D4D761B7E
:1001A000B61006D00024013455F8043B9847A64207
:1001B000F9D1094E094D08F00FF8761BB61006D09C
:1001C0000024013455F8043B9847A642F9D170BD8C
:1001D000FC870008FC87000800880008FC870008EE
:1001E000F0B4860746D0541E002A3CD0CAB203465B
:1001F00002E014F1FF3436D303F8012B9D07F8D148
:10020000032C29D9CDB245EA05250F2C45EA054531
:1002100033D9A4F11006360903F1200707EB0617BE
:1002200003F1100242E9045542E902551032BA4284
:10023000F8D1721C14F00C0F03EB021204F00F063D
:1002400013D0331F23F003030433134442F8045B39
:100250009342FBD106F003042CB1C9B21C4403F84D
:10026000011B9C42FBD1F0BC704734461346002C66
:10027000F3D1F8E714460346C2E71A462646E0E7FC
:10028000002B2DE9F0471E46BBBF03F100431E467D
:1002900000232D2388B0149CDDE9121A662C9046A9
:1002A000109D0B701AD0462C18D024F02003452B3B
:1002B0004FF00201334635D007AFCDE9001506A94E
:1002C000CDE90317CDF808A000F0CCFE672C074657
:1002D00033D1119BDB0732D4079B1CE0032107AF0E
:1002E000009106A93346CDE903174246CDE9015AEC
:1002F00000F0B8FE07463B7800EB0509302B2BD009
:10030000DAF800504D44404631460022002304F004
:10031000E5FBB0B12B463846159ADB1B136008B0DD
:10032000BDE8F08707AF0091013506A9CDE90317B5
:10033000CDE9015A00F096FE0746472CC9D03D444E
:10034000E1E7079B9D42E6D930215A1C07921970BC
:10035000079BAB42F9D3DEE740463146002200233B
:1003600004F0BCFB0028CBD1C5F10105CAF8005050
:10037000C8E700BF0029F0B4B4BF2D232B230446E7
:10038000B8BF4942092904F8022B82B043702DDD21
:100390000DF1070635461A4F01E01546194687FB51
:1003A0000132CB17C3EBA20303EB8302A1EB4202A2
:1003B0003032632905F8012C05F1FF32EDDC3033D2
:1003C000A91EDBB28E4202F8013C0BD9214601E0A6
:1003D00012F8013BB24201F8013BF9D10DF10903DA
:1003E0005D1B2C44201A02B0F0BC70473023041D62
:1003F0001944C1708370201A02B0F0BC704700BF6E
:10040000676666662DE9F04F91B00C46DDF868B07E
:1004100016461F46054601F009FF036818460A9371
:1004200000F05AFD00230E93DBF8003022680733FA
:100430000B90099223F00703D3F804A0D3F80080AF
:1004400051464046083394F81890CBF800302AF013
:10045000004BC4E912014FF0FF325946B74B04F08C
:100460006FFB48B9404659464FF0FF32B34B04F09A
:1004700049FB002800F08A804246404653465146D8
:1004800004F05EFB002840F04A82099B606843F458
:100490008061431C32D0B9F1670F70D0B9F1470FBA
:1004A0006DD04FF0000C216042460DF1380E0191E5
:1004B0000DF134080DF133010090CDE902185346D7
:1004C000CDF81090CDE905EC2846FFF7D9FE80461F
:1004D000B9F1650F0D9B39D8013B19464A4604F125
:1004E00050000D93FFF746FF0E9A82461318012A1B
:1004F000236140F38C810133236139E00620606081
:100500004FF0000C216042460DF1380E01910DF1C3
:1005100034080DF1330153460090CDE90218CDF8AF
:100520001090CDE905EC2846FFF7AAFE09F0DF039D
:10053000472B8046CCD10D9BD91C80F2E580A9F1D8
:1005400002095FFA89F9B9F1650FC5D9B9F1660FEA
:1005500000F0E1800E9A9A4240F3E880002BCCBF75
:100560000121C3F102010A4422614FF0000AA36590
:100570009DF833301BB32D2384F843301FE000284F
:1005800040F01581012318466360B9E740465146A3
:100590000022002304F0ACFA10B12D2384F843307C
:1005A000099B674A23F004032360664B0321B9F1DA
:1005B000470F94BF904698464FF0000A216100977C
:1005C00033460FAA2146284600F0CAF9013024D04C
:1005D000236858052CD44246236931462846B8473B
:1005E00001301AD0226892070F98E3681AD51A1AB8
:1005F000002A17DD4FF0000804F1190904E0E36850
:100600000F981A1A42450DDD01234A463146284605
:10061000B847013008F10108F1D14FF0FF3011B0B7
:10062000BDE8F08F9842B8BF184611B0BDE8F08F12
:10063000B9F1650F33D9D4E912010022002304F087
:100640004DFA002800F0828001233F4A31462846B7
:10065000B8470130E1D0DDE90D239A4202DB226880
:10066000D107C0D5DDE90A2331462846B847013015
:10067000D3D00E9B012BB5DD4FF0000804F11A0911
:1006800003E00E9B013B4345ACDD01234A46314666
:100690002846B847013008F10108F2D1BDE70E9AAB
:1006A000012A40F3A0800123424631462846B8473C
:1006B0000130B2D0DDE90A2331462846B84701307F
:1006C000ABD0D4E9120100220023DDF8389004F009
:1006D00005FA002800F09680B9F1010F40F38E80F2
:1006E0004FF0000804F11A0904E00E9B013B43455A
:1006F00040F3848001234A4631462846B8470130FA
:1007000008F10108F1D188E7626893423FF717AF1B
:100710004FF067091EE7002B62687DDD2361002A28
:1007200000F0AB8001321A4422611EE72268236187
:10073000D2077FF51AAF5A1C226116E7FFFFEF7F41
:10074000B8860008BC860008C88600080D9B002BF0
:1007500069DD0E9BD4F858A05345A8BF5346002B23
:100760009B4608DD424631462846B84701303FF4F3
:1007700054AFD4F858A02BEAEB7BAAEB0B03002B69
:1007800040F3888004F11A034FF000099A4604E010
:10079000A36DA3EB0B024A457BDD01235246314694
:1007A0002846B847013009F10109F1D135E74FF08A
:1007B000000C216042460DF1380E01910DF1340814
:1007C0000DF13301CDE9021853460090CDF8109099
:1007D000CDE905EC2846FFF753FD0D9B8046D91C5B
:1007E000FFF6ADAE90E7D9073FF55DAF4246012376
:1007F00031462846B84701303FF40FAF534604F165
:100800005002EAE609F1FF3308F10102F0E722683D
:10081000D2077FF5ADAE6EE6002A33D12168C90755
:1008200030D40122A0E601234A4A31462846B8477F
:1008300001303FF4F2AEDDE90D23134324D0DDE9AE
:100840000A2331462846B84701303FF4E6AE0D9BF7
:10085000002B7CDA4FF0000904F11A0A03E00D9B2B
:100860005B424B4573DD0123524631462846B8476B
:10087000013009F10109F2D1CFE62168C8077FF5FF
:1008800074AE4FE702326FE62268D3077FF5ABAE56
:10089000D5E79A46DDE90D218A4202DB2368D807B5
:1008A00009D5DDE90A2331462846B84701303FF42F
:1008B000B4AEDDE90D215245A1EB0203CCBF994650
:1008C000A1EB0A09B9F1000F0BDD08EB0A024B4658
:1008D00031462846B84701303FF49FAEDDE90D238D
:1008E0009B1A29EAE979A3EB0903002B7FF77AAE7B
:1008F0004FF0000804F11A0A07E0DDE90D239B1A06
:10090000A3EB090343457FF76DAE01235246314601
:100910002846B847013008F10108EED17DE6BAF16A
:10092000000FB8BF2D234FF00301B8BF84F8433048
:10093000099B094A23F004032360084B2161B9F1A4
:10094000470F94BF904698464FF0000A37E642465C
:100950000E9B42E6C8860008C0860008C4860008D0
:100960002DE9F0470C460969A56891468D42B8BF4C
:100970000D46156094F8431006461F46DDF82080AA
:1009800011B16A1CC9F80020236899065CD5D9F812
:1009900000200232C9F80020236813F0060F194620
:1009A0001DD1E1688A1A002AD8BF194617DD002533
:1009B00004F1190A05E0E368D9F800209B1AAB425C
:1009C0000CDD0123524639463046C047013005F15F
:1009D0000105F0D14FF0FF30BDE8F087216894F8B1
:1009E0004330003318BF01238A060AD53021E218AC
:1009F00082F8431094F845105A1C224482F84310A0
:100A0000023304F1430239463046C0470130E1D099
:100A10002368A26803F00603042B21691DD08A42D3
:100A200026DD4FF00009521A914400251A3401E0E6
:100A30004D451DDA0123224639463046C047013074
:100A400005F10105F4D1C5E713F0060F13D094F8B2
:100A50004330003318BF0123D3E7D9F80000E3681F
:100A60008A42A3EB000323EAE379DCDC002BDCDC25
:100A70000020BDE8F087E168D9F800208A1A002A32
:100A8000D8BF194693DCAAE72DE9F0430C46097E4E
:100A900085B06E2906461746984604F1430C0C981B
:100AA0006DD039D9732900F0F48044D9752900F04C
:100AB0000281782940F00F8178232268DFF854E220
:100AC00084F845300168150651F8043B016040F197
:100AD000A180D10744BF42F020022260002B00F029
:100AE00093801022002184F8431060680028A060E1
:100AF000C0F2C680216821F004012160002B40F083
:100B0000A280002840F0BE806546082A00F0AB8035
:100B1000ACEB0503236141E0632900F0E3801AD8C0
:100B2000002938D0582940F0D68084F84510226832
:100B3000DFF8E4E1C6E76F2900F0BD80702940F0DE
:100B4000CA8078232268DFF8CCE142F020022260DC
:100B500084F84530B6E7642902D0692940F0BB80AB
:100B600022680368110603F1040557D5196805606A
:100B70000B46002959DB0A22DFF89CE1B5E7036840
:100B800022681D1D6169056015061B6802D45006A8
:100B900000F1BB801960002365462361CDF8008019
:100BA0003B4603AA21463046FFF7DAFE013020D04B
:100BB0002A46236939463046C047013019D0226899
:100BC00003989207E36819D51A1A002A16DD002542
:100BD00004F1190904E0E36803981A1AAA420DDD2A
:100BE00001234A4639463046C047013005F1010528
:100BF000F1D14FF0FF3005B0BDE8F0839842B8BFA7
:100C0000184605B0BDE8F0832168102221F02001CC
:100C1000216067E7500648BF9BB25AE75106A5D549
:100C2000B3F9003005601946A3E72D2061685B42E7
:100C3000002984F84300A16002DB22F00402226054
:100C40000A22DFF8D4E0654600E00B46B3FBF2F180
:100C500002FB11301EF80000934205F8010DF4D29A
:100C6000082A7FF455AF2368DB077FF551AF626830
:100C700023699A423FF74CAF3023013D2B7047E781
:100C8000002BE0D19EF8003004F1420584F8423098
:100C90003BE703686268191D01601D680021284652
:100CA00001F0DCFA002832D0401B60602061002394
:100CB00084F8433072E72268036812F0800F03F172
:100CC00004051AD01B6805606F290CBF08220A2290
:100CD000DFF844E006E7012384F84210236104F1C1
:100CE0004205E4E70122036804F14205191D1B686F
:100CF000016084F842302261D9E712F0400F0DBF45
:100D00001B6805601B880560DEE7198043E76068A3
:100D1000CCE700BFE0860008CC8600080EB430B5F2
:100D2000044682B008B1836963B106AD2B46059ACB
:100D3000A1682046019502F059F902B0BDE83040A3
:100D400003B0704701F004FAEFE700BF0FB430B50D
:100D50000B4B83B01C680CB1A36963B107AD2B4684
:100D6000069AA1682046019502F040F903B0BDE85B
:100D7000304004B07047204601F0EAF9EEE700BFCA
:100D80000000002010B5044682B008B1836933B179
:100D90002046A26802B0BDE8104002F097BA019167
:100DA00001F0D6F90199F3E738B50B4B05461C68FD
:100DB0000CB1A36933B12946A2682046BDE838408A
:100DC00002F084BA204601F0C3F92946A268204601
:100DD000BDE8384002F07ABA00000020830710B561
:100DE000044610D10268A2F1013323EA020313F092
:100DF000803F08D150F8042FA2F1013323EA020307
:100E000013F0803FF6D003781BB110F8013F002BA0
:100E1000FBD100F003F8204610BD00BF80EA0102BC
:100E2000844612F0030F4FD111F0030F32D14DF869
:100E3000044D11F0040F51F8043B0BD0A3F1013223
:100E40009A4312F0803F04BF4CF8043B51F8043B36
:100E500016D100BF51F8044BA3F101329A4312F0AE
:100E6000803FA4F101320BD14CF8043BA24312F0B5
:100E7000803F04BF51F8043B4CF8044BEAD02346B2
:100E80000CF8013B13F0FF0F4FEA3323F8D15DF864
:100E9000044B704711F0010F06D011F8012B0CF82C
:100EA000012B002A08BF704711F0020FBFD031F8A4
:100EB000022B12F0FF0F16BF2CF8022B8CF800202B
:100EC00012F47F4FB3D1704711F8012B0CF8012BAE
:100ED000002AF9D1704700BF20F0030110F0030091
:100EE000C0F1000051F8043B00F1040C4FEACC0CB7
:100EF0006FF000021CBF22FA0CF213434FF0010CFA
:100F00004CEA0C2C4CEA0C4CA3EB0C0222EA030238
:100F100012EACC1204BF51F8043B0430F4D0C2F101
:100F2000000102EA0102B2FA82F2C2F11F0200EBF2
:100F3000D2007047000000002DE9F04F03690E69F0
:100F400083B0B342C0F28980013E01F1140500F183
:100F5000140955F8263059F8262001338246B0008E
:100F6000009005EB00089A424844B2FBF3F7019069
:100F70003CD30022AE461446CC465EF8043BDCF877
:100F800000001FFA83FB07FB0B221B0C4FEA124BDE
:100F900007FB03BB93B2E31A82B21FFA8BF413442C
:100FA000C4EB104404EB23449BB243EA0443F045F2
:100FB0004CF8043B4FEA24444FEA1B42DDD2009B2D
:100FC00059F8033093B9019A131F99450CD252F87E
:100FD000043C4BB9A2F1080302E01A68043B1AB9B9
:100FE000994506F1FF36F8D3CAF81060504601F073
:100FF000CFFC00282DDB48460023013755F8041BA1
:1010000004688AB29A1A0B0CA1B20A44C3EB1443C7
:1010100003EB224392B242EA0342A84540F8042B74
:101020004FEA2343EAD259F8262009EB860382B916
:101030001A1F91450BD253F8042C42B9083B02E029
:101040001A68043B1AB9994506F1FF36F8D3CAF875
:101050001060384603B0BDE8F08F002003B0BDE853
:10106000F08F00BF2DE9F04F16461F46456A97B036
:101070000446CDE90267002D00F064832A6862B15E
:101080004FF0010C6B6811460CFA03F5C2E901350B
:1010900001F0E0F90022636A1A603E1EB4BF01232A
:1010A0000023239AB8BF26F000461360764BB8BFE2
:1010B0000396B34300F0B080DDE9022310461946E1
:1010C00000220023CDE9080103F008FD074678B1AE
:1010D0000123229A1360249B002B00F04C836B4B5E
:1010E000249A1360013B0493049817B0BDE8F08F75
:1010F00014AA15ABCDE90032DDE908892046424645
:101100004B4601F073FD350D834640F09B80DDE9D1
:101110001485454405F23243202B40F3FC83C3F190
:1011200040039E40029B05F2124023FA00F0304338
:1011300003F0F2F902460120013D0D90A1F1F87390
:10114000104619460022524B03F0A8F848A3D3E9F1
:10115000002303F05BFA48A3D3E9002303F0A0F8CF
:10116000064628460F4603F0E7F945A3D3E90023D6
:1011700003F04CFA02460B463046394603F090F82D
:1011800006460F4603F0F2FC00228246002330465A
:10119000394603F0ADFC002840F0E082A8EB0505DD
:1011A0006B1EBAF1160F059300F2C182DDE908014A
:1011B000384B03EBCA03D3E9002303F099FC002862
:1011C0006ED000230C93059B0AF1FF3A002BC0F26E
:1011D000B4824FF00009BAF1000F67DACAF10003D8
:1011E0000B93209BA9EB0A09092BCDF818A0626A82
:1011F0004FF0000A64D8052B40F38B830025043B95
:101200002093209B023B032B00F27C86DFE813F047
:10121000A404A1047A04940442F20F73229AC6F340
:1012200013061360029B334319D1249B002B00F05B
:101230007886194B04930833249A0498136017B0E6
:10124000BDE8F08FC9F3130141F07F534246A5F288
:10125000FF350D9743F44013DDF8508070E7249B71
:10126000002B40F03D840D4B04933DE7AFF300802D
:1012700061436F63A787D23FB3C8608B288AC63F9C
:10128000FB799F501344D33F0000F07FC9860008CC
:101290000000F83F68820008F48600080087000814
:1012A000059B0C90002BC0F248828146059B626A28
:1012B0005344CDE9053A00230B93209B092B9AD97F
:1012C00000230125209321934FF0FF330A950793C4
:1012D0000021079B51601093204601F07BF8049099
:1012E000002800F01786636A049A1A60079B0E2B89
:1012F00000F23481002D00F031810699002940F37D
:101300008284AA4B01F00F0203EBC2030D11D3E953
:101310000023CDE90E23EA0640F14B84DDE9080104
:10132000A34B0327D3E9082303F09AFACDE902017E
:1013300005F00F057DB1DDE90E019D4EEB0704D5EB
:10134000D6E9002303F062F901376D1006F10806B3
:10135000F4D1CDE90E01DDE90201DDE90E2303F050
:101360007FFACDE902010C9B43B1DDE902010022C5
:10137000904B03F0BDFB002840F04885384603F051
:10138000DBF8DDE9022303F041F98B4B002202F088
:1013900087FFA1F15073CDE90E010F93079B002B3E
:1013A00000F0BC80069B1293079B1193DDE9026756
:1013B0003946304603F0DAFB054603F0BDF8024635
:1013C0000B463046394602F069FF119A774B0646C4
:1013D00003EBC2030F46DDE90E120A98CDE90212B3
:1013E00053E90223049930355FFA85F84D1C002833
:1013F00000F09F840020714903F032FADDE90223F6
:1014000002F04CFF049B324683F800803B46CDE956
:10141000020103F08BFB002840F0E68432463B4695
:101420000020644902F03AFF02460B46DDE9020162
:1014300003F07CFB002840F05D85119B012B00F040
:101440008980049ACDF844901344CDF84CA0CDF88F
:1014500038B09946DDE902ABA0460FE032463B4684
:101460000020544902F01AFF52465B4603F040FB4D
:10147000002840F010854D4500F01685504659462D
:1014800000224F4B03F0C2F800224D4B82468B46A0
:101490003046394603F0BAF80F46064603F066FBBD
:1014A000044603F049F802460B463046394602F03E
:1014B000F5FE3034E4B205F8014B52465B46064671
:1014C0000F4603F015FB0028C8D04446129BDDF8F8
:1014D00038B0013306935946204600F0BBFF002385
:1014E0002B70229B1A46069B1360249B002B3FF413
:1014F000FBAD04981D6017B0BDE8F08F384603F0CF
:101500001BF8DDE9022303F081F82B4B002202F0E7
:10151000C7FEA1F15073CDE90E010F930022DDE962
:101520000201284B02F0BAFEDDE90E783A46434646
:1015300005460E4603F0FAFA0746002840F0E3831A
:10154000DDE90E01024601F100432846314603F071
:10155000CFFA30BBDDE90823CDE90223159B002B30
:10156000C0F2C780069A0E2A00F3C3800F4B03EB2C
:10157000C203D3E9009A219B002B25DA079F002F95
:1015800022DC40F0788400220E4B4846514603F09E
:101590003DF8DDE9022303F0BFFA002800F0B48330
:1015A000079F3E46219B049DDB43F2E268820008D0
:1015B000588300080000F03F00001C400000E03F9E
:1015C0000000244000001440DDE902674A4653460B
:1015D0003046394603F044F903F0C8FA804602F079
:1015E000ABFF4A46534603F011F8024630464646E2
:1015F0000B46394602F052FE049D3036069F05F830
:10160000016B079E0137012E02460B46069744D018
:101610000022C44B02F0FAFF0022002306460F46C8
:1016200003F05CFA00287FF456AFCDF808B04FF015
:101630000108DDF81CB005940CE00022B94B02F063
:10164000E5FF0022002306460F4603F047FA002874
:1016500040F050834A4653463046394603F000F97D
:1016600003F084FA044602F067FF4A46534602F04C
:10167000CDFF02460B463046394602F00FFE08F118
:10168000010804F13006C34502460B4605F8016B1C
:10169000D3D1A046DDF808B0059C1046194602F0EB
:1016A000FFFD4A46534606460F4603F03FFA60B92F
:1016B0004A4653463046394603F010FA00283FF4B4
:1016C0000AAF5FEAC8717FF506AF15F8018C6B1E93
:1016D000049A04E09A4200F0BF8313F8018DB8F138
:1016E000390F03F10105F5D008F10102D2B21A70E9
:1016F000F1E60A9A002A44D0209A012A40F3768221
:10170000079B5F1E0B9BBB42C0F24D82DF1B079BFA
:10171000002BC0F2F482059A4D46114619440591FA
:1017200099440121204600F0B1FF06462CE0012338
:101730000C93059B002BBFF64CAD0023C5F10109AE
:10174000059348E5102000F079FD6062002800F064
:10175000EC83C0E901550560C5609EE4504602F087
:10176000EBFE32463B4603F0B9F900287FF416AD94
:101770000AF1FF3A12E56C4B0493049817B0BDE8E8
:10178000F08F4D460B9F0A9E002D0BDD059A002A17
:1017900008DDAA421346A8BF2B46A9EB0309ED1AA0
:1017A000D31A05930B9BD3B10A9B002B00F09181B8
:1017B000002F10DD31463A46204601F023F85A4604
:1017C00001460646204600F077FF0346594620466C
:1017D0009B4600F03FFE0B9BDA1B40F07B81012112
:1017E000204600F053FFBAF1000F074600F39E8039
:1017F000209B012B40F37981002308930120BAF14B
:10180000000F40F09F80059A104410F01F0079D01F
:10181000C0F12003042B40F38E83C0F11C0002446E
:10182000814405440592B9F1000F05DD59464A4649
:10183000204601F049F88346059B002B05DD39461B
:101840001A46204601F040F807460C9B002B40F05A
:101850002581079B002B40F30B810A9B002B40F056
:101860008780069B01330693049D4FF00108DDF845
:101870001C9008E0594600230A22204600F010FE82
:10188000834608F1010839465846FFF755FBC14524
:1018900000F1300005F8010BECDC03464FF0000AC4
:1018A000594601222046029301F00EF8394683463C
:1018B00001F06EF8002815F8012C40F382816B1EB0
:1018C000049904E0994200F08A8113F8012D392A25
:1018D00003F10105F6D001321A703946204600F0B6
:1018E000B9FD002E3FF4F7ADBAF1000F05D0B245B7
:1018F00003D05146204600F0ADFD3146204600F0B1
:10190000A9FDE8E51C20059B81440344054405939B
:1019100089E7012575E4C3F12006029B03FA06F06E
:1019200006E400BF00002440C88600080146524675
:10193000204600F067FF209B0746012B40F38D8176
:10194000002308933B6907EB8303186900F04EFE00
:10195000C0F1200057E7314600230A22204600F05C
:101960009FFD109B0646002B40F3BB82CDE906830A
:10197000002D05DD31462A46204600F0A5FF06462B
:10198000089B002B40F09F81B1460499029B88463A
:1019900003F001024B1E20990B920A430A92079A08
:1019A0001A44089239465846FFF7C6FA3146029063
:1019B000584600F0EDFF4A4682463946204601F07F
:1019C00003F8029BC26805463033002A42D1014623
:1019D0005846079300F0DCFF29460590204600F0AA
:1019E00039FD059A079B1AB90A99002900F065820A
:1019F000BAF1000F08F10105C0F24781209941EAD0
:101A00000A0A0B9951EA0A0100F03F81002A00F30B
:101A10007D81089A88F80030424500F0848159465B
:101A200000230A22204600F03BFD4E458346314606
:101A30004FF000034FF00A02204613D000F030FDB3
:101A40004946064600230A22204600F029FDA84602
:101A50008146A7E701462046059300F0FBFC0122E2
:101A6000059BC5E700F01CFDA8460646814699E7A0
:101A7000209B022B76DC0A9B002B7FF479AF394642
:101A80005846FFF759FA069A049D00F130030132D7
:101A9000069205F8013B4FF0000A01E73946584627
:101AA00000F076FF0028BFF6D4AE594600230A2284
:101AB000204600F0F5FC069B834603F1FF380A9BA5
:101AC000002B7FF448AF109B002B40F30382079359
:101AD000CAE60B9A5946204600F094FE83467EE6FD
:101AE000B84B04930333FFF7A7BBDDE902120029CB
:101AF0007FF482AEC2F31303002B00F0B980029B87
:101B000008937BE601230A93219B002B54DD1E469C
:101B1000109307930021172E51607FF7DDAB012052
:101B200004235B0003F11407B742014600F10100F2
:101B3000F7D95160FFF7D0BB01230A93219B069987
:101B40000B4410930133012B1E460793B8BF0126A7
:101B5000E0E700230A93F1E700230A93D4E7109B00
:101B6000CDE90683079B002B7FF41CAD3946052287
:101B7000204600F095FC01460746584600F008FF55
:101B800000287FF70FAD3122049D069B05F8012B3D
:101B90000133013339462046069300F05BFC002EEA
:101BA0007FF4ABAE97E40B9B0B97FB1A9A4400278C
:101BB000ADE50227FFF7BEBB012321930793FFF793
:101BC00087BB03D1029BDB073FF579AE6B1E01E0BB
:101BD00013F8012D302A03F10105F9D07DE63123F8
:101BE000069A01320692049A137076E60D9A002A3C
:101BF00000F0FF80059A03F233431A444D460592E4
:101C000099440B9F8DE500F0FE80DDE90801069BFD
:101C10005D426D4B05F00F0203EBC203D3E90023D5
:101C200002F0F4FC2D11CDE9020100F0EC8000235C
:101C30000227664EEA0705D5D6E9002302F0E6FC46
:101C400001231F446D1006F10806F3D1002B3FF469
:101C50008AABCDE90201FFF786BB029B002B7FF424
:101C60006FAEDDE90212C2F31303002B40F047818F
:101C7000574B1340002B00F0FC80059B09F1010934
:101C80000133059301230893B8E50699002A01F171
:101C90000101069112DD594601222046059300F00C
:101CA00013FE3946834600F073FE0028059B40F37F
:101CB000EC80392B00F0D780029B3133B24688F894
:101CC00000304E4609E67168204600F083FB054669
:101CD000002800F03581336906F10C0102339A00C7
:101CE0000C3000F001FB29460122204600F0ECFDFB
:101CF00081464AE6DDF808B0059CFFF7ECBB079B80
:101D0000A9EB03050DE500273E463CE7069A392B73
:101D100002F10102069200F0A6800133B24688F873
:101D200000304E46D9E5069AB246013206924E463A
:101D3000B6E5DDE9020102F069FC049BCDE9020190
:101D400083F80080119B012B22D0119B049ACDF8BF
:101D500038901344994600221E4B3046394602F013
:101D600055FC0F46064602F001FF804602F0E4FBF8
:101D700002460B463046394602F090FA08F1300828
:101D800005F8018B4D4506460F46E4D1DDF8389045
:101D90000022DDE90201104B02F082FA32463B4696
:101DA00002F0A6FE00286AD1DDE9022300200A49DC
:101DB00002F074FA32463B4602F0B8FE00283FF4C7
:101DC000C9AB0CE00087000868820008588300084F
:101DD0000000F07F000024400000E03F154615F8A9
:101DE000013C6A1E302BF9D0129B01330693FFF79A
:101DF00072BB149B059AC3F136031A444D460592F3
:101E000099440B9F8DE40227FFF7ADBA079B002B87
:101E10003FF474AB109D002D7FF79CABDDE9020110
:101E20000022514B02F0F2FBCDE90201781C02F0D6
:101E300083FBDDE9022302F0E9FB00224B4B02F0B9
:101E40002FFA069AA1F15073013ACDE90E011292D0
:101E50000F931195FFF7AABA069A01320692312222
:101E60001A70FFF738BB3922B24688F800204E4678
:101E700025E50893C2E400273E46FFF793BB129B7B
:101E80000133069315F8018C21E47FF417AFDA07CC
:101E90007FF514AF0DE74346A0461C46129BDDF8C4
:101EA00038B00133069312E4DDF84490DDF84CA01D
:101EB000DDF838B04446FFF74DBB069A392B02F1E6
:101EC0000102069208F10105CDD0BAF1000F3FF7EB
:101ED000F3AEF3E6209B022B3FF741AECDF818801E
:101EE000CDE5209B022B3FF73AAE109BCDF8188032
:101EF00007933DE5129B01330693FFF7E8BB029B76
:101F000008931FE5002520465560294600F062FA37
:101F10000490E0B9164B00224FF4D571154801F03A
:101F2000ABFB154B0493FFF7DFB80246134BEA21D6
:101F3000104801F0A1FB3FF476ACC0F13C00E2E4B4
:101F400002460B4B40F2EA210A4801F095FB4FF0A4
:101F5000FF331A4607931092636A049A21951A6018
:101F600001230A93FFF7FABA0000244000001C4046
:101F7000508700081C870008F486000804870008C2
:101F800000207047014900F027B900BF1138000850
:101F90000020704770B568254A1E05FB02F50E4605
:101FA00005F1740100F07CFF044640B100210C30C3
:101FB000666005F168022160A060FEF711F9204615
:101FC00070BD00BF1E4B70B51D680646AB6943B3BC
:101FD0004835D5E90134013B05D51EE0013B5A1CCB
:101FE00004F1680419D0B4F90C20002AF6D10025B8
:101FF000144B6566C4E90055A560C4E90455A561A4
:102000002946E360082204F15C00FEF7E9F8C4E920
:102010000D55C4E91255204670BD2C682CB12546DB
:10202000D7E7284600F010F8D2E704213046FFF742
:10203000B1FF044628600028F1D10C233360EAE7A1
:10204000F08100080100FFFF2DE9F84F0023334A1B
:10205000C0E9123312680365904208BF012330497A
:1020600008BF836181620546FFF7ACFF68602846C0
:10207000FFF7A8FFA86028460024FFF7A3FF04236A
:102080006E68E8602146F3607466C6E90044B46097
:10209000C6E90444B46106F15C000822FEF7A0F82A
:1020A000DFF888B0AF68DFF888A0DFF88890DFF845
:1020B00088801C4BC6E9086BC6E90AA9C6F83080BF
:1020C0002146FB6008227C66C7E90044BC60C7E982
:1020D0000444BC6107F15C00FEF782F8EE68124B25
:1020E000C7E9087BC7E90AA9C7F830802146F36031
:1020F0007466C6E90044B460C6E90444B46106F1FC
:102100005C000822FEF76CF80123C6E9086BC6E9FB
:102110000AA9C6F83080AB61BDE8F88FF0810008ED
:10212000851F00080900010012000200FD330008AD
:10213000253400086534000885340008024B034943
:10214000186800F049B800BFF08100081138000895
:10215000836903B978E77047704700BF704700BFD5
:10216000704700BF704700BF024B0349186800F07A
:102170000FB800BF00000020811F0008024B034978
:10218000186800F005B800BF00000020911F00088B
:102190002DE9F04110F148071AD088460026D7E90A
:1021A0000154013D0ED4A389013D012B06D9B4F998
:1021B0000E30013302D02046C04706436B1C04F1A9
:1021C0006804F0D13F68002FE9D13046BDE8F081C6
:1021D0003E463046BDE8F0812DE9F84310F148064F
:1021E0001ED0884607464FF00009D6E90154013D4C
:1021F00010D4A389013D012B08D9B4F90E30013365
:1022000004D021463846C04749EA00096B1C04F156
:102210006804EED13668002EE7D14846BDE8F88361
:10222000B1464846BDE8F883F03070470048704733
:10223000540100200048704754010020024B014621
:10224000186800F02DBE00BF00000020024B0146C0
:10225000186800F0D1BD00BF00000020830770B4F3
:10226000CDB23DD0541E0AB30378AB421FD0431CFD
:1022700005E014F1FF3419D30278AA4217D013F005
:10228000030F184603F10103F3D1032C11D84CB30B
:102290000378AB420BD00444431C02E00278AA420C
:1022A00005D09C42184603F10103F7D1002070BC11
:1022B000704702460E02B6B22E4346EA064613683F
:1022C00010467340A3F1013121EA030313F0803F6C
:1022D00002F10402DCD1043C032C1046EFD8D6E70F
:1022E0001446D2E72046E2E7844641EA000313F0B1
:1022F000030349D1403A23D30B6803604B68436022
:102300008B688360CB68C3600B6903614B69436171
:102310008B698361CB69C3610B6A03624B6A436259
:102320008B6A8362CB6AC3620B6B03634B6B436341
:102330008B6B8363CB6BC36340304031403ADBD25D
:1023400030320BD30B6803604B6843608B6883604B
:10235000CB68C36010301031103AF3D20C3205D381
:1023600051F8043B40F8043B043AF9D2043208D057
:10237000D2071CBF11F8013B00F8013B01D30B88C9
:1023800003806046704700BF082A13D38B07B1D083
:1023900010F00303AED0C3F10403D21ADB071CBF55
:1023A00011F8013B00F8013BA4D331F8023B20F8BF
:1023B000023B9FE7043AD9D3013A11F8013B00F8F8
:1023C000013BF9D20B7803704B7843708B788370A4
:1023D0006046704770B5446A06460D465CB1E368D6
:1023E000A3B153F82500E8B1026843F82520002383
:1023F000C0E9033370BD1020FFF720FF0446706270
:10240000E8B10023C0E901330360C3602122042145
:10241000304600F0E3FC736AE060DB68002BE0D13B
:10242000002070BD012101FA05F4621D30469200C2
:1024300000F0D4FC0028F3D0C0E90154D7E70246ED
:10244000024B6621024801F017F900BF048700081B
:102450006487000830B5456A83B0044655B139B188
:10246000636A4A68DB6853F82200086043F8221068
:1024700003B030BD10200191FFF7E0FE01996062CA
:1024800020B1C0E901550560C560E8E70246024B8E
:102490008A21024801F0F0F80487000864870008E8
:1024A000F0B54FF0000C0C4605460E6983B001F103
:1024B000140738680CF1010C81B202FB0133000CE7
:1024C000190C02FB00109BB203EB0043664547F872
:1024D000043B4FEA1043ECDC3BB1A268B24207DD9B
:1024E00004EB8602013653612661204603B0F0BD3D
:1024F0006168284601310193FFF76CFF019B074695
:10250000A0B1226904F10C01023292000C30019357
:10251000FFF7EAFE21463C462846FFF79BFF019B5A
:1025200004EB8602013653612661DEE70246024B68
:10253000B521024801F0A0F8508700086487000820
:102540002DE9F8431D46264E083386FB0346092D28
:102550004FEAE37390460746C3EB66020C46089EBB
:1025600036DD012300215B009A4201F10101FADC12
:102570003846FFF72FFF68B30123B8F1090FC0E910
:10258000043613DC4FF009080A3445450CDDA5EB91
:102590000805254414F8013B0146303B0A22384621
:1025A000FFF77EFFA542F5D1BDE8F88304F10909E4
:1025B0004E46444416F8013B0146303B0A22384659
:1025C000FFF76EFFB442F5D1A8F108044C44DCE7F4
:1025D0000021CDE70246034BCE21034801F04CF821
:1025E000398EE3385087000864870008020C120413
:1025F0000346CAB90304102013F07F4F04BF1B0227
:10260000083013F0704F04BF1B01043013F0404F2B
:1026100004BF9B000230002B05DB13F0804F00F15C
:10262000010008BF202070470020E5E7036801464D
:1026300013F0070207D0DA0720D4980722D55B08E9
:102640000B600120704798B2B0B910201B0C13F03A
:10265000FF0F04BF1B0A08301A0704BF1B09043010
:102660009A0704BF9B080230DA0703D45B0800F125
:10267000010005D00B6070471046E8E70020704766
:10268000202070479B080B600220704710B50C4655
:102690000121FFF79FFE024618B10123C0E904346F
:1026A00010BD034B4FF4A071024800F0E5FF00BFDE
:1026B00050870008648700082DE9F04F0E691769FC
:1026C00083B0BE420C46154605DB3A462B463746DC
:1026D0000D4616461C46AB68696807EB060843457D
:1026E000B8BF0131FFF776FE009000287FD0009B35
:1026F00003F1140A0AEB8809CA4505D253460021A2
:1027000043F8041B9945FBD804F1140E0EEB860B1D
:1027100005F11403DE4503EB870753D2CDF804809F
:10272000984605E0090C28D1F3450AF1040A47D977
:102730005EF8041B8EB2002EF4D0454654460023AA
:1027400055F8041B20688AB21FFA80FC06FB02C2FF
:10275000090C000C06FB0101134401EB13429BB270
:1027600043EA0243AF4244F8043B4FEA1243E7D83E
:1027700023605EF8041C090CD6D0DAF8003040461D
:102780001A4654464FF0000C0588120C01FB052236
:102790009BB2944443EA0C4344F8043B50F8043B96
:1027A00022681B0C95B201FB0353874203EB1C43C9
:1027B0004FEA134CE8D8F34523600AF1040AB7D86E
:1027C000DDF80480B8F1000F0BDD59F8043CA9F1E5
:1027D00004091BB105E059F8043D13B9B8F101082B
:1027E000F9D10098C0F8108003B0BDE8F08F024620
:1027F000024B40F25D11024800F03EFF5087000896
:10280000648700082DE9F04112F0030382B01446FA
:1028100007462DD10E46A4101CD07A6A8AB395685B
:10282000002D39D0E3074FF0000806D4641011D012
:10283000286898B10546E307F8D531462A46384658
:10284000FFF73AFF0346314638461E46FFF702FEC1
:102850006410EDD1304602B0BDE8F0812A46294629
:102860003846FFF729FF2860C0F800800546E2E7F8
:10287000124A013B52F823200023FFF711FE0646BF
:10288000C9E71020FFF7DAFC0246786280B1002326
:10289000C0E901330360C36040F271213846019200
:1028A000FFF7F4FE0023019A054690600360B9E744
:1028B000034B4FF4D771034800F0DEFE5882000846
:1028C00004870008648700082DE9F0470E694FEA85
:1028D000621A8B685644741C9C420D46914607460A
:1028E000496804DD5B009C4201F10101FADC3846D5
:1028F000FFF770FD804600283FD0BAF1000F00F1CD
:1029000014000EDD034600210AF1050A4FEA8A0A87
:1029100008EB0A0243F8041B9342FBD1AAF1140A04
:102920005044296905F1140319F01F0903EB810CC8
:102930001BD00022C9F1200E196801FA09F11143D8
:1029400040F8041B53F8042B9C4522FA0EF2F3D8EE
:10295000002A18BF264602603846C8F8106029468B
:10296000FFF778FD4046BDE8F087043853F8042BA4
:102970009C4540F8042FF9D8EEE70246024B40F29E
:10298000D911024800F078FE5087000864870008DB
:1029900030B40B6905460069C01A10D19B0014358C
:1029A000143119442B4401E09D4208D253F8044DE0
:1029B00051F8042D9442F7D003D24FF0FF3030BCD1
:1029C0007047012030BC70472DE9F04716460F696B
:1029D00012690D46BF1A002F6AD1920001F1140C42
:1029E00006F114010CEB0203114401E09C4562D294
:1029F00053F8042D51F8044DA242F7D053D369681F
:102A0000FFF7E8FC002860D0D5F810C03369143512
:102A100006F11402C76005EB8C0E02EB830800F18F
:102A20001407002100E037463E4655F8049B52F853
:102A3000044B1FFA89F30B441FFA84FA210CA3EB11
:102A40000A03C1EB194101EB23419BB243EA014365
:102A500090454FEA214146F8043B2C46E3D8AE4569
:102A600016D9324654F8047BBBB20B44191401EB5F
:102A700017419BB243EA0143A64542F8043B4FEAA3
:102A80002141EFD80EF1FF377F1B27F003073744B2
:102A90002BB957F8043D0CF1FF3C002BF9D0C0F8DE
:102AA00010C0BDE8F0872B46012735461E46A6E735
:102AB000F9DB0027A3E70021FFF78CFC60B10122BE
:102AC0000023C0E90423BDE8F0870246064B4FF41B
:102AD0001071064800F0D0FD0246034B40F232214F
:102AE000024800F0C9FD00BF508700086487000855
:102AF0000E4B0B40A3F15073002B02DD0020194652
:102B000070475B421B15132B05DC4FF4002200209D
:102B100042FA03F17047143B1E2BD6BF4FF0004220
:102B2000012322FA03F30021184670470000F07FCA
:102B30002DE9F041076900F1140606EB870757F805
:102B4000048C4046FFF752FDC0F120030A280B60B9
:102B5000A7F1040230DD9642A0F10B031DD257F815
:102B6000080C23B3C3F1200120FA01F208FA03F89C
:102B700048EA0208A7F1080248F07F55964200FA99
:102B800003F045F4401503D257F80C3CCB401843F2
:102B9000044629462046BDE8F0813BB108FA03F31C
:102BA00043F07F5545F440150020F1E7184648F002
:102BB0007F5545F44015EBE796422CBF002257F8AD
:102BC000082CC0F10B0328FA03F138BFDA4000F1FA
:102BD000150341F07F5508FA03F345F4401543EA25
:102BE000020420462946BDE8F08100BF70B50121EE
:102BF00082B016461C46FFF7EDFB054600284CD078
:102C00002346C4F30A54C3F313030CB143F48013F3
:102C1000002E019322D068460096FFF707FD00289A
:102C200037D0019BC0F12002009903FA02F20A4357
:102C3000C34001936A61002B14BF02210121AB61E3
:102C40002961B4B1069BA4F2334404441C60079B81
:102C5000C0F135001860284602B070BD01A8FFF72A
:102C6000E5FC0123019A19462030C5E90432002C05
:102C7000E8D1069A05EB8103A0F232401060186992
:102C8000FFF7B4FC079BC0EB41101860284602B068
:102C900070BDDDE900236A61CDE70246024B40F2D8
:102CA0000A31024800F0E8FC5087000864870008F9
:102CB0002DE9F04383B00F4669460646FFF738FF1B
:102CC00004460D46384601A9FFF732FF36693A69D6
:102CD0008946DDE90013B61ACB1A03EB4613002B25
:102CE00080460BDD05EB03573D4642464B462046EA
:102CF000294601F0B5FD03B0BDE8F083C3EB033313
:102D000009EB03518946F0E71728D0B504460ADDE0
:102D1000002000260749084F32463B4601F076FC6A
:102D2000013CF9D1D0BD054B03EBC004D4E904014B
:102D3000D0BD00BF0000F03F0000244058820008D2
:102D400070B414694E1E02F11403761103EB840172
:102D500001368B4200EB86060CD2041F53F8045B4D
:102D6000994244F8045FF9D88B1A153B23F003030A
:102D700004331844864204D9002340F8043B8642B9
:102D8000FBD870BC704700BF03694A11934210B46E
:102D900000F114040FDA04EB83039C421CD253F8B5
:102DA000040C043B18B114E053F8042D8AB99C427A
:102DB000FAD310BC704704EB8203EEDD11F01F0163
:102DC000EBD054F8220020FA01F202FA01F1884215
:102DD000E3D0012010BC70470020EAE738B502FBC1
:102DE00001F4214600F05CF8054618B122460021A6
:102DF000FDF7F6F9284638BD00293AD038B551F824
:102E0000043C0C1F002BB8BFE418054600F0FAFF85
:102E1000224B1A682AB1A2420DD921686018824259
:102E200021D0626028461C60BDE8384000F0ECBF4D
:102E3000A34203D81A465368002BF9D111685018E1
:102E4000A04217D022D821686018834203BFD3E97B
:102E500000030918C4E90013636054602846BDE804
:102E6000384000F0D1BFD2E900020144C4E90012A9
:102E7000D8E7704720680144501883421160EDD1B3
:102E8000D3E900030144C2E90013E7E70C23284615
:102E90002B60BDE8384000F0B7BF00BF0C02002037
:102EA000F8B5CD1C25F0030508350C2D38BF0C25D1
:102EB000002D064633DBA94231D82A4F00F0A2FF8D
:102EC0003A6852B113685B1B04D43FE023685B1B74
:102ED00029D522465468002CF8D1796800293BD0C6
:102EE0002946304600F078FA431C28D0C41C24F050
:102EF0000304A04205D0211A304600F06DFA0130DB
:102F00001DD02560304600F07FFF04F10B0020F05B
:102F10000700231DC21A01D01B1AA350F8BD0C22B2
:102F200000203260F8BD0B2B05D8A242636811D097
:102F30005360E7E7144623601C442560E2E70C2356
:102F40003046336000F060FF0020F8BD0B2BF1D855
:102F5000144653683B60D5E7304600F03DFA786090
:102F6000BEE700BF0C0200209368013B002B93607A
:102F70000FDA10B49469A34208DB0A2906D013685B
:102F8000581C10601970084610BC704710BC00F047
:102F90007DBA1368581C106019700846704700BF4E
:102FA0009BB1F8B513440F4606465D1E541E01E062
:102FB000AC4208D03A4614F8011F3046FFF7D4FF60
:102FC000431CF5D1F8BD0020F8BD0020704700BFBC
:102FD000936810B5144613B95360184610BD00F03D
:102FE0007DFC0023C4E9013310BD00BF2DE9F04F83
:102FF0009FB08B4690461C46039018B18369002B06
:1030000000F0B980A34B9B4500F0BB80A24B9B45D1
:1030100000F0C980A14B9B4504BF039BD3F80CB0C3
:10302000BBF80C30180740F1B480DBF81030002BEF
:1030300000F0AF803023002120228DF8323098F844
:10304000003005940B918DF83120954E0127002B0F
:1030500000F08980252B00F01781454603E0252BE1
:1030600000F0A58025466B786C1C002BF7D1B4EBE3
:10307000080A78D04246534659460398FFF790FF16
:10308000013070D00B9B6A7853440B93002A6AD0AE
:1030900000234FF0FF3201340693CDE908338DF859
:1030A0005B301C93079206E02C46069B801B07FAB8
:1030B00000F0184306902546052215F8011B3046FE
:1030C000FFF7CCF8AA460028EED1069BD90644BFEC
:1030D00020228DF85B201A0748BF2B22217848BF99
:1030E0008DF85B202A2967D1059A116804320029DE
:1030F0000592C0F29E8009916178A51C2E2974D09A
:10310000684C03222046FFF7A9F8002800F08780CA
:103110004022069B001B02FA00F00343069305F1D0
:1031200001082B78062219465F488DF83030FFF7EA
:1031300095F8002800F083805C4B002B72D005AB23
:1031400000935A465A4B06A90398FDF75BF981464E
:10315000B9F1FF3F07D00B9B4B440B9398F800301D
:10316000002B7FF477AFBBF80C305B0618D40B98BC
:103170001FB0BDE8F08FFEF7EBFF464B9B457FF499
:1031800045AF039BD3F804B0BBF80C3018073FF5EC
:103190004CAF5946039800F0EFF900283FF44AAFCE
:1031A0004FF0FF30E4E7039BD3F808B038E7B4EB07
:1031B000080A3FF46DAF5DE7A1F13002092A88BF2C
:1031C000A2469BD8099B01E02C460135297803EBE8
:1031D000830302EB4303A1F13002092AAA46F3D983
:1031E0002E2904F1020509938AD19AF801102A299F
:1031F0002FD1059B0AF102001A680433002A0792B6
:1032000005939AF802100AF1030538DB254C824633
:1032100003222046FFF722F800287FF479AFA84662
:1032200055467EE7059B073323F0070308330593D4
:1032300091E7494243F00203099106935CE705AB2D
:1032400000935A461A4B06A90398FDF71DFC8146C8
:103250007EE70023A1F13002092A079301D915E086
:103260005546697803EB830302EB4303A1F1300277
:10327000092A05F1010AF3D90235079340E74FF017
:10328000FF33824607933BE7444601E7AA460135F0
:1032900036E700BF3482000814820008F481000879
:1032A00098870008A0870008A48700080504000884
:1032B000A12F000810B4044C13460A4601462068AA
:1032C00010BCFFF793BE00BF0000002010B50446FD
:1032D00082B008B18369D3B1194B9A4220D0194BFF
:1032E0009A4225D0184B9A4208BFE2689368013B86
:1032F000002B93601ADA906983421BDBC8B20A285C
:1033000018D013685C1C1460197002B010BDCDE9B0
:103310000012FEF71DFFDDE90012094B9A42DED1D3
:1033200062689368013B002B9360E4DBC8B2E8E776
:10333000A268DBE7204602B0BDE8104000F0A6B866
:103340003482000814820008F48100081E4B70B516
:103350001D6806460C460DB1AB69CBB11B4B9C42B8
:103360001CD01B4B9C4225D01A4B9C4208BFEC68DA
:10337000A368013B002BA36016DAA26993421BDB12
:10338000F0B20A2818D023685A1C22601E7070BD43
:103390002846FEF7DDFE0D4B9C42E2D16C68A36827
:1033A000013B002BA360E8DB2368F0B25A1C2260CB
:1033B0001E7070BDAC68DBE7224631462846BDE88A
:1033C000704000F063B800BF0000002034820008A5
:1033D00014820008F481000838B50023064C054625
:1033E0000846236000F092FE431C00D038BD2368DD
:1033F000002BFBD02B6038BD5C08002010B50C46BC
:10340000B1F90E1000F028FD002803DB636D0344C2
:10341000636510BDA38923F48053A38110BD00BF51
:10342000002070472DE9F041B1F90C409846E305C2
:103430000D461746B1F90E10064609D424F48054FF
:10344000AC8143463A463046BDE8F04100F07EB8D4
:103450000223002200F0C2FBB5F90C40B5F90E10B2
:10346000ECE700BF10B50C46B1F90E1000F0B6FB4A
:10347000A389421C0EBF23F4805343F4805360653C
:10348000A38110BDB1F90E1000F01AB9F8B50D46C0
:103490001446064608B1836943B3254B9C422AD0A3
:1034A000244B9C4229D0244B9C4208BFF468A2695B
:1034B000A389A2601A0722D5236903B32268616930
:1034C000D31AEDB299422F4629DD0133A168501C71
:1034D0000139A1602060157062699A4216D0A389F3
:1034E000DB0701D50A2D11D03846F8BDFEF730FEB6
:1034F0000F4B9C42D4D17468D9E7B468D7E7214612
:10350000304600F039F838B92369D7E7214630460C
:1035100000F07EF90028E7D04FF0FF37E4E72146BE
:10352000304600F075F90028F6D101232268CDE776
:103530003482000814820008F4810008024B0A4615
:1035400001461868FFF7A2BF00000020F8B50E463C
:103550000025084C114607461A463046256001F002
:103560003BFC431C00D0F8BD2368002BFBD03B6024
:10357000F8BD00BF5C0800203B4B70B51D680646D7
:103580000C460DB1AB69DBB1384B9C421ED0384BB9
:103590009C424AD0374B9C4208BFEC68B4F90C20DF
:1035A00093B2190718D5206908B313F001022CD083
:1035B00000226369A2605B42A36160B3002070BD1A
:1035C0002846FEF7C5FD294B9C42E0D16C68B4F952
:1035D0000C2093B21907E6D4DD063CD5580726D453
:1035E000206942F00803A3819BB20028DDD103F4D7
:1035F0002072B2F5007FD8D03046214600F032FB71
:10360000A389206913F00102D2D1990758BF6269DA
:10361000A2600028D2D1B4F90C301A06CFD543F0FD
:103620004003A3814FF0FF3070BDAC68B6E7616B1B
:1036300051B104F14403994204D03046FFF7DCFB5A
:10364000B4F90C20002363630023206922F02402D4
:10365000C4E90003C5E7092342F0400233604FF09C
:10366000FF30A28170BD00BF00000020348200083E
:1036700014820008F481000800B50A4C0546206851
:1036800085B01C46C06852B1074BCDE901320091AC
:103690002B462246054900F00DF900F00BFC044BC7
:1036A0001A46F2E700000020AC870008BC8700083B
:1036B0000885000808B513460022FFF7DDFF00BFAC
:1036C00038B50023064C05460846236000F0E6FCAA
:1036D000431C00D038BD2368002BFBD02B6038BDC5
:1036E0005C0800202DE9F0418F890C463A0780469E
:1036F00041D44B68002B59DDE66A002E53D00023DD
:1037000017F48052D8F80050216AC8F8003051D11F
:1037100001234046B047431C5FD0A789E66A216A6F
:103720007F0705D56268636B801A0BB1236CC01AE2
:10373000024600234046B047461C45D1D8F8003029
:10374000B4F90C20002B55D01D2B01D0162B5AD1CB
:1037500000222369C4E90032616BC8F8005011B33C
:1037600004F14403994202D04046FFF745FB002094
:103770006063BDE8F0810E69AEB10D680E60B907F7
:1037800014BF00236369AD1BA3600AE02B463246D9
:10379000A76A216A4046B8470028A5EB0005064401
:1037A0000ADD002DF2DC0020BDE8F0810B6C002B5F
:1037B000A2DCF8E7606DB3E7A3894FF0FF3043F078
:1037C0004003A381BDE8F081002322696360A389DF
:1037D0002260DA04C0D56065BEE7D8F80030002B5F
:1037E0009BD01D2B0CD0162B0AD0A38943F040038D
:1037F000A381D9E72169C4E90013D304ACD5EAE772
:10380000C8F80050CFE742F04002A281CCE700BFE9
:103810000B6923B310B5044682B008B18369BBB10C
:10382000104B994212D0104B994216D00F4B99422F
:1038300008BFE168B1F90C302BB1204602B0BDE8F9
:103840001040FFF74FBF002002B010BD6168F1E7E4
:103850000191FEF77DFC0199E2E7A168EAE700200B
:10386000704700BF3482000814820008F481000809
:1038700020B1054B01461868FFF7CABF034B044946
:103880001868FEF7A9BC00BF00000020F081000806
:10389000113800080CB410B582B004AC54F8042BF5
:1038A00023460194FFF7A2FB02B0BDE8104002B02E
:1038B000704700BF0EB430B582B005AC54F8042B8D
:1038C000054D0146234628680194FFF78FFB02B09F
:1038D000BDE8304003B07047000000209368002B23
:1038E00000F0FC802DE9F04FB1F90C300C469BB292
:1038F000190783B0824690462BD522694AB313F04C
:103900000202D8F8006033D000273D46D4F828B032
:10391000216ADFF8C492C5B14D452B463A4628BF0F
:103920004B465046D847002840F3CE80D8F80830A0
:1039300007441B1A2D1AC8F80830002B00F0B3807A
:10394000D4F828B0216A002DE6D1D6E900750836F2
:10395000E1E721465046FFF70FFE002840F037818F
:10396000B4F90C30D8F800609BB213F00202CBD14E
:1039700013F0010940F0B4804D46A7682068002D7F
:1039800055D09A0540F1C080AF42BB4600F2EE80B0
:1039900013F4906F2FD0D4E9041707EB4707A0EB7F
:1039A000010B07EBD777681C7F105844B8423A46A2
:1039B00084BF07463A465B0540F1F0801146504609
:1039C000FFF76EFA002800F0FC805A46216901904A
:1039D000FEF78AFCA289019B22F4906242F08002E9
:1039E000A281A7EB0B0203EB0B006761AB462F46EE
:1039F00023612060A2605A46494600F09DF9236881
:103A0000A2685B44AB460025D71BA7602360D8F8AB
:103A10000870D944A7EB0B07C8F80870002F42D0F4
:103A2000B4F90C30A7689BB22068002DA9D1D6E963
:103A300000950836A3E70BF1080353F8047C9B4676
:103A400053F8086C0833002FF7D03A460A21304665
:103A5000FEF704FC002854D00130A0EB06094B46C9
:103A600020682169BB4228BF3B468842626903D96E
:103A7000A5681544AB421ADC9A4200F381801346D4
:103A8000A56A3246216A5046A847051E1CDDB9EBDF
:103A900005096ED00120D8F808302E445B1B7F1B2F
:103AA000C8F8083013BB002003B0BDE8F08F3146E2
:103AB0002A4600F041F9236821462B4423605046F2
:103AC000FFF7A6FE0028E2D0B4F90C304FF0FF302B
:103AD00043F04003A38103B0BDE8F08F002070479E
:103AE00033469146104617464E469B46002FA2D0BD
:103AF0000028B4D13A460A213046FEF7AFFB002831
:103B0000AAD17B1C9946ABE72369834217D362692C
:103B1000AA4214D82F4BA76A9D4294BF2B466FF040
:103B2000004393FBF2F3216A02FB03F350464A463B
:103B3000B847B0F1000BC7DDA5EB0B0567E7AF4257
:103B400028BF2F4649463A4600F0F6F8A368226897
:103B5000DB1B3A44BB46A3602260002BECD121461C
:103B60005046FFF755FE0028E6D0ADE72F46AB469E
:103B700041E721465046FFF74BFE00288BD0A3E7D4
:103B80001A4631461D46019300F0D6F8A168226816
:103B9000019BC91A1344A160236078E7504600F0E6
:103BA00035F9034600287FF41CAF21695046FFF722
:103BB00023F90C22B4F90C30CAF8002023F080035A
:103BC00084E70C22B4F90C30CAF800207EE74FF0ED
:103BD000FF3069E7FEFFFF7F00FCFF7FF8B50E4670
:103BE0000025084C114607461A463046256000F06D
:103BF0007DFA431C00D0F8BD2368002BFBD03B604E
:103C0000F8BD00BF5C08002070B50C46B1F90E107D
:103C100096B0002916461D4613DB6A4600F052F99D
:103C200000280EDB019A4FF4806302F47042A2F583
:103C30000052B2FA82F2002052092A60336016B0B4
:103C400070BD0022A3892A601B0604D540230020F2
:103C5000336016B070BD4FF480630020336016B03F
:103C600070BD00BF8A890B46920706D5012103F17A
:103C7000470259611A601A61704770B582B001AB92
:103C80006A460C460646FFF7BFFF009905463046D8
:103C9000FFF706F9B4F90C3070B1164A0099B26218
:103CA000019A43F08003A3812060C4E904018AB92A
:103CB0002B43A38102B070BD9A05FBD4012123F0F0
:103CC000030304F1470243F00203A3816161226010
:103CD0002261EFE73046B4F90E1000F007F910B991
:103CE000B4F90C30E4E7A38923F0030343F00103A4
:103CF0001BB2DDE7851F000810B4034CD4F8E44084
:103D0000A44610BC604700BF6400002082B049B1E7
:103D10005AB16BB113780B601278101C18BF0120D8
:103D200002B0704701A9002AF3D1104602B07047D3
:103D30006FF00100F4E700BF8842F0B40DD98B1892
:103D400083420AD9841832B1224613F8014D9942B0
:103D500002F8014DF9D1F0BC70470F2A0ED8034686
:103D6000541E002AF7D001340C44013B11F8012BFA
:103D7000A14203F8012FF9D1F0BC704740EA0103DA
:103D80009B073AD1A2F110073F0901F1200606EB8B
:103D9000071601F1100300F1100453F8105C103302
:103DA00044F8105C53F81C5C103444F81C5C53F865
:103DB000185C44F8185C53F8145CB34244F8145C83
:103DC000EBD17B1C1B0112F00C0F194402F00F0504
:103DD000034415D00E46043DAD0803EB850C1C1FB3
:103DE00056F8047B44F8047F6445F9D10135AD00F1
:103DF0002B44294402F00302B2E7541E0346B2E703
:103E00002A46ADE7704700BF704700BF09B3F8B559
:103E10001446CAB106460D4600F07AF8A04202D315
:103E20002F463846F8BD21463046FFF739F8074699
:103E30000028F6D022462946FEF756FA3046294693
:103E4000FEF7DAFF3846F8BD2746FEF7D5FF3846BD
:103E5000F8BD1146FFF724B8F8B50E460025084C0A
:103E6000114607461A463046256000F047F9431CC4
:103E700000D0F8BD2368002BFBD03B60F8BD00BF2D
:103E80005C08002010B4034CD4F8E040A44610BCF9
:103E9000604700BF6400002019B1FF2A03D80A70F0
:103EA0000121084670478A234FF0FF31036008461E
:103EB000704700BF08B5062000F0B8F8012000F0F8
:103EC00033F900BF70B50D460023074C0646114676
:103ED0002846236000F0EAF8431C00D070BD236838
:103EE000002BFBD0336070BD5C08002038B5002388
:103EF000064C05460846236000F0E8F8431C00D055
:103F000038BD2368002BFBD02B6038BD5C08002037
:103F100051F8043C181F002BBCBF0B58C018704749
:103F200010B580210446FEF7BBFF606440B100225B
:103F3000031F7C3043F8042F8342FBD1002010BDC7
:103F40004FF0FF3010BD00BF436C0BB10020704735
:103F5000E6E700BF1F2970B5054608D8436C164632
:103F60000C464BB153F8240043F8246070BD162270
:103F70004FF0FF302A6070BDFFF7D2FF08B96B6CBD
:103F8000F0E74FF0FF3070BD1F2938B5054620D847
:103F9000426C0C466AB152F8213053B1012B16D055
:103FA000591C10D00025204642F824509847284636
:103FB00038BD284600F070F8224601462846BDE884
:103FC000384000F055B8162301202B6038BD002082
:103FD00038BD16234FF0FF302B6038BD1F2921D884
:103FE00038B5436C05460C4683B153F8242003EBE7
:103FF00084034AB1511C10D0012A0CD00025204660
:104000001D609047284638BD012038BDFFF788FF66
:1040100028B96B6CE9E7032038BD022038BD4FF0AA
:10402000FF3038BD4FF0FF30704700BF024B0146F4
:104030001868FFF7A9BF00BF00000020024B0A4626
:1040400001461868FFF786BF00000020034B186880
:10405000436C0BB10020704762E700BF00000020F6
:10406000024B01461868FFF7B9BF00BF00000020EF
:1040700070B50D460023074C0646114628462360BE
:1040800000F02CF8431C00D070BD2368002BFBD03F
:10409000336070BD5C08002000F010B85822024B5D
:1040A0004FF0FF301A6070475C0800205822024B26
:1040B0004FF0FF301A6070475C0800205822024B16
:1040C0004FF0FF301A6070475C0800205822024B06
:1040D00000201A60704700BF5C0800205822024B85
:1040E0004FF0FF301A6070475C0800205822024BE6
:1040F0004FF0FF301A6070475C0800205822024BD6
:104100004FF0FF301A6070475C080020044A0549F0
:104110001368002B08BF0B46184410601846704700
:104120001402002060080020FEE700BF4FF0FF0CE3
:104130001CEAD0521EBF1CEAD15392EA0C0F93EA3C
:104140000C0F6FD01A4480EA010C400218BF5FEADE
:1041500041211ED04FF0006343EA501043EA511151
:10416000A0FB01310CF00040B1F5000F3EBF49004B
:1041700041EAD3715B0040EA010062F17F02FD2A4F
:104180001DD8B3F1004F40EBC25008BF20F0010032
:10419000704790F0000F0CF0004C08BF49024CEA49
:1041A000502040EA51207F3AC2BFD2F1FF0340EADB
:1041B000C250704740F400004FF00003013A5DDC4C
:1041C00012F1190FDCBF00F000407047C2F100028D
:1041D000410021FA02F1C2F1200200FA02FC5FEA7A
:1041E000310040F1000053EA4C0308BF20EADC70C4
:1041F000704792F0000F00F0004C02BF400010F436
:10420000000F013AF9D040EA0C0093F0000F01F0E2
:10421000004C02BF490011F4000F013BF9D041EA04
:104220000C018FE70CEAD15392EA0C0F18BF93EA06
:104230000C0F0AD030F0004C18BF31F0004CD8D130
:1042400080EA010000F00040704790F0000F17BFB7
:1042500090F0004F084691F0000F91F0004F14D0FD
:1042600092EA0C0F01D142020FD193EA0C0F03D155
:104270004B0218BF084608D180EA010000F0004058
:1042800040F0FE4040F40000704740F0FE4040F433
:104290004000704781F0004102E000BF83F000431E
:1042A00030B54FEA41044FEA430594EA050F08BFD1
:1042B00090EA020F1FBF54EA000C55EA020C7FEA95
:1042C000645C7FEA655C00F0E2804FEA5454D4EB12
:1042D0005555B8BF6D420CDD2C4480EA020281EADC
:1042E000030382EA000083EA010180EA020281EA14
:1042F0000303362D88BF30BD11F0004F4FEA013166
:104300004FF4801C4CEA113102D0404261EB410174
:1043100013F0004F4FEA03334CEA133302D05242FA
:1043200063EB430394EA050F00F0A780A4F10104B6
:10433000D5F1200E0DDB02FA0EFC22FA05F28018F0
:1043400041F1000103FA0EF2801843FA05F35941D6
:104350000EE0A5F120050EF1200E012A03FA0EFC55
:1043600028BF4CF0020C43FA05F3C01851EBE3717F
:1043700001F0004507D54FF0000EDCF1000C7EEB9C
:1043800000006EEB0101B1F5801F1BD3B1F5001FDA
:104390000CD349085FEA30004FEA3C0C04F10104F9
:1043A0004FEA445212F5800F80F09A80BCF1004F22
:1043B00008BF5FEA500C50F1000041EB045141EAA4
:1043C000050130BD5FEA4C0C404141EB0101013C6D
:1043D00028BFB1F5801FE9D291F0000F04BF01465C
:1043E0000020B1FA81F308BF2033A3F10B03B3F12E
:1043F00020020CDA0C3208DD02F1140CC2F10C02BE
:1044000001FA0CF021FA02F10CE002F11402D8BF1B
:10441000C2F1200C01FA02F120FA0CFCDCBF41EAE7
:104420000C019040E41AA2BF01EB0451294330BDB6
:104430006FEA04041F3C1CDA0C340EDC04F1140493
:10444000C4F1200220FA04F001FA02F340EA03006A
:1044500021FA04F345EA030130BDC4F10C04C4F1B0
:10446000200220FA02F001FA04F340EA0300294690
:1044700030BD21FA04F0294630BD94F0000F83F4DA
:10448000801306BF81F480110134013D4EE77FEABD
:10449000645C18BF7FEA655C29D094EA050F08BF09
:1044A00090EA020F05D054EA000C04BF19461046EA
:1044B00030BD91EA030F1EBF0021002030BD5FEA2E
:1044C000545C05D14000494128BF41F0004130BD56
:1044D00014F580043CBF01F5801130BD01F00045AA
:1044E00045F0FE4141F470014FF0000030BD7FEA1D
:1044F000645C1ABF194610467FEA655C1CBF0B4618
:10450000024650EA013406BF52EA033591EA030F2E
:1045100041F4002130BD00BF90F0000F04BF002126
:10452000704730B54FF4806404F132044FF0000559
:104530004FF0000150E700BF90F0000F04BF0021D2
:10454000704730B54FF4806404F1320410F0004538
:1045500048BF40424FF000013EE700BF42004FEA33
:10456000E2014FEA31014FEA02701FBF12F07F43B0
:1045700093F07F4F81F06051704732F07F4208BF67
:10458000704793F07F4F04BF41F40021704730B56E
:104590004FF4607401F0004521F000411CE700BFBA
:1045A00050EA010208BF704730B54FF000050AE03D
:1045B00050EA010208BF704730B511F0004502D53E
:1045C000404261EB41014FF4806404F132045FEA40
:1045D000915C3FF4D8AE4FF003025FEADC0C18BFE9
:1045E00003325FEADC0C18BF033202EBDC02C2F1DB
:1045F000200300FA03FC20FA02F001FA03FE40EA6D
:104600000E0021FA02F11444BDE600BF70B54FF070
:10461000FF0C4CF4E06C1CEA11541DBF1CEA13554E
:1046200094EA0C0F95EA0C0F00F0DEF82C4481EAB6
:10463000030621EA4C5123EA4C5350EA013518BFD6
:1046400052EA033541F4801143F4801338D0A0FBC3
:1046500002CE4FF00005E1FB02E506F00042E0FB70
:1046600003E54FF00006E1FB03569CF0000F18BF76
:104670004EF0010EA4F1FF04B6F5007F64F540741E
:1046800004D25FEA4E0E6D4146EB060642EAC621B1
:1046900041EA55514FEAC52040EA5E504FEACE2E1E
:1046A000B4F1FD0C88BFBCF5E06F1ED8BEF1004F21
:1046B00008BF5FEA500E50F1000041EB045170BD9D
:1046C00006F0004646EA010140EA020081EA0301E1
:1046D000B4EB5C04C2BFD4EB0C0541EA045170BDDD
:1046E00041F480114FF0000E013C00F3AB8014F157
:1046F000360FDEBF002001F0004170BDC4F10004A0
:10470000203C35DA0C341BDC04F11404C4F1200520
:1047100000FA05F320FA04F001FA05F240EA02007B
:1047200001F0004221F0004110EBD37021FA04F6B1
:1047300042EB06015EEA430E08BF20EAD37070BD6B
:10474000C4F10C04C4F1200500FA04F320FA05F0CA
:1047500001FA04F240EA020001F0004110EBD370CC
:1047600041F100015EEA430E08BF20EAD37070BD3C
:10477000C4F1200500FA05F24EEA020E20FA04F315
:1047800001FA05F243EA020321FA04F001F00041C4
:1047900021FA04F220EA020000EBD3705EEA430E35
:1047A00008BF20EAD37070BD94F0000F0FD101F064
:1047B0000046400041EB010111F4801F08BF013C9D
:1047C000F7D041EA060195F0000F18BF704703F0DB
:1047D0000046520043EB030313F4801F08BF013D62
:1047E000F7D043EA0603704794EA0C0F0CEA13551E
:1047F00018BF95EA0C0F0CD050EA410618BF52EAD8
:104800004306D1D181EA030101F000414FF00000DD
:1048100070BD50EA410606BF1046194652EA4306EB
:1048200019D094EA0C0F02D150EA013613D195EA5F
:104830000C0F05D152EA03361CBF104619460AD1A7
:1048400081EA030101F0004141F0FE4141F47001B1
:104850004FF0000070BD41F0FE4141F4780170BDA1
:1048600070B54FF0FF0C4CF4E06C1CEA11541DBF06
:104870001CEA135594EA0C0F95EA0C0F00F0A7F808
:10488000A4EB050481EA030E52EA03354FEA013135
:1048900000F088804FEA03334FF0805545EA131348
:1048A00043EA12634FEA022245EA111545EA106510
:1048B0004FEA00260EF000419D4208BF964244F1A7
:1048C000FD0404F5407402D25B084FEA3202B61AC6
:1048D00065EB03055B084FEA32024FF480104FF49A
:1048E000002CB6EB020E75EB030E22BFB61A75460E
:1048F00040EA0C005B084FEA3202B6EB020E75EBA1
:10490000030E22BFB61A754640EA5C005B084FEA08
:104910003202B6EB020E75EB030E22BFB61A7546D5
:1049200040EA9C005B084FEA3202B6EB020E75EBE0
:10493000030E22BFB61A754640EADC0055EA060EA1
:1049400018D04FEA051545EA16754FEA06164FEAE4
:10495000C30343EA52734FEAC2025FEA1C1CC0D190
:1049600011F4801F0BD141EA00014FF000004FF01D
:10497000004CB6E711F4801F04BF01430020B4F1DE
:10498000FD0C88BFBCF5E06F3FF6AFAEB5EB030C96
:1049900004BFB6EB020C5FEA500C50F1000041EB93
:1049A000045170BD0EF0004E4EEA113114EB5C0460
:1049B000C2BFD4EB0C0541EA045170BD41F4801133
:1049C0004FF0000E013C90E645EA060E8DE60CEA3B
:1049D000135594EA0C0F08BF95EA0C0F3FF43BAF58
:1049E00094EA0C0F0AD150EA01347FF434AF95EA0F
:1049F0000C0F7FF425AF104619462CE795EA0C0FF3
:104A000006D152EA03353FF4FDAE1046194622E7BF
:104A100050EA410618BF52EA43067FF4C5AE50EA99
:104A200041047FF40DAF52EA43057FF4EBAE12E789
:104A30004FF0FF3C06E000BF4FF0010C02E000BF6A
:104A40004FF0010C4DF804CD4FEA410C7FEA6C5C4D
:104A50004FEA430C18BF7FEA6C5C1BD001B050EAF0
:104A6000410C0CBF52EA430C91EA030F02BF90EADB
:104A7000020F0020704710F1000F91EA030F58BF9A
:104A8000994208BF90422CBFD8176FEAE37040F0FC
:104A9000010070474FEA410C7FEA6C5C02D150EA9A
:104AA000013C07D14FEA430C7FEA6C5CD6D152EA55
:104AB000033CD3D05DF8040B704700BF844610461A
:104AC00062468C461946634600E000BF01B5FFF719
:104AD000B7FF002848BF10F1000F01BD4DF808EDE9
:104AE000FFF7F4FF0CBF012000205DF808FB00BFBA
:104AF0004DF808EDFFF7EAFF34BF012000205DF814
:104B000008FB00BF4DF808EDFFF7E0FF94BF012060
:104B100000205DF808FB00BF4DF808EDFFF7CEFF61
:104B200094BF012000205DF808FB00BF4DF808EDA0
:104B3000FFF7C4FF34BF012000205DF808FB00BF71
:104B40004FEA410C7FEA6C5C02D150EA013C0AD189
:104B50004FEA430C7FEA6C5C02D152EA033C02D17B
:104B60004FF0000070474FF0010070474FEA4102DC
:104B700012F5001215D211D56FF47873B3EB6252AF
:104B800012D94FEAC12343F0004343EA505311F0D6
:104B9000004F23FA02F018BF404270474FF0000068
:104BA000704750EA013005D111F0004008BF6FF0A6
:104BB000004070474FF00000704700BF80F0004099
:104BC00002E000BF81F0004142001FBF5FEA4103E5
:104BD00092EA030F7FEA226C7FEA236C6AD04FEAE5
:104BE0001262D2EB1363C1BFD2184140484041402A
:104BF000B8BF5B42192B88BF704710F0004F40F4DC
:104C0000000020F07F4018BF404211F0004F41F4F7
:104C1000000121F07F4118BF494292EA030F3FD0C3
:104C2000A2F1010241FA03FC10EB0C00C3F12003D6
:104C300001FA03F100F0004302D5494260EB400065
:104C4000B0F5000F13D3B0F1807F06D340084FEAD0
:104C5000310102F10102FE2A51D2B1F1004F40EBC5
:104C6000C25008BF20F0010040EA0300704749002D
:104C700040EB0000013A28BFB0F5000FEDD2B0FACA
:104C800080FCACF1080CB2EB0C0200FA0CF0AABFED
:104C900000EBC25052421843BCBFD040184370478B
:104CA00092F0000F81F4000106BF80F40000013291
:104CB000013BB5E74FEA41037FEA226C18BF7FEA68
:104CC000236C21D092EA030F04D092F0000F08BFAA
:104CD0000846704790EA010F1CBF0020704712F091
:104CE0007F4F04D1400028BF40F00040704712F1D0
:104CF00000723CBF00F50000704700F0004343F035
:104D0000FE4040F4000070477FEA226216BF08466A
:104D10007FEA23630146420206BF5FEA412390EA2D
:104D2000010F40F4800070474FF0000304E000BF23
:104D300010F0004348BF40425FEA000C08BF7047D4
:104D400043F0964301464FF000001CE050EA010298
:104D500008BF70474FF000030AE000BF50EA0102AD
:104D600008BF704711F0004302D5404261EB41019A
:104D70005FEA010C02BF84460146002043F0B643BF
:104D800008BFA3F18053A3F50003BCFA8CF2083AE4
:104D9000A3EBC25310DB01FA02FC634400FA02FCED
:104DA000C2F12002BCF1004F20FA02F243EB0200F4
:104DB00008BF20F00100704702F1200201FA02FC56
:104DC000C2F1200250EA4C0021FA02F243EB020049
:104DD00008BF20EADC70704710B514464FF6FF7329
:104DE00092B2024802F069FB204610BD3402002056
:104DF00030B595B000240D940F941094059406944A
:104E00000794089409940194029403940494012251
:104E10000A924FF480330B930C940E920225119555
:104E2000129313940AA800F0E1FE0F230593069550
:104E3000079408940994214605A801F015F90195F5
:104E4000039401A801F0ECF915B030BD10B500F0E5
:104E50007FFEFFF7CDFF00F047F803F07DF901F08A
:104E600091FD02F0C3FD02F035FE02F0B5FC02F048
:104E700087FE02F0E9FC01F0E3FD0028FBD00024EE
:104E800008E002F0DDF911E002F07AF90EE001F03D
:104E900083FF00244FF47A7000F07EFE02F0C2F827
:104EA000044B1B79012BECD0022BEDD0092CEEDC4E
:104EB0000134EFE7EC02002008B5064A1378591CCC
:104EC000117005490878054AD0540122044802F0BF
:104ED00060FB08BD18020020140500201403002008
:104EE00034020020704700002DE9F04188B0002412
:104EF00004940594069407942D4B9A6942F010028D
:104F00009A619A6902F010020092009A9A6942F03E
:104F100020029A619A6902F020020192019A9A692C
:104F200042F004029A619A6902F004020292029A23
:104F30009A6942F008029A619B6903F0080303939F
:104F4000039BDFF8788022464FF40051404601F081
:104F500082FB184F22463821384601F07CFB4FF483
:104F6000005304930126059606940225079504A98B
:104F7000404601F059FA38230493059606940795A4
:104F800004A9384601F050FA0496059406950A4D96
:104F900004A9284601F048FA40F602430493059418
:104FA000069404A9284601F03FFA08B0BDE8F08154
:104FB0000010024000080140000C014000100140B8
:104FC0007047FEE7FEE7FEE7FEE770477047704771
:104FD00008B500F0CFFD08BD08B5024801F0C4FBDC
:104FE00008BD00BF1808002008B5024800F028F9E5
:104FF00008BD00BFCC05002008B5024800F020F92C
:1050000008BD00BF1805002008B5024802F048FBA3
:1050100008BD00BF3402002082B00E4B9A6942F0F6
:1050200001029A619A6902F001020092009ADA691B
:1050300042F08052DA61DB6903F080530193019BF7
:10504000054A536823F0E06343F00073536002B0F5
:10505000704700BF001002400000014070477047D9
:105060007047704770477047704770477047704788
:105070007047000070B4036A23F001030362036AFF
:105080004668826922F073020C6844EA020523F044
:1050900002028B6813430D4CA04209D00B4CA04276
:1050A0000DD0466085614A684263036270BC7047F8
:1050B00023F00803CA68134323F00403EEE726F441
:1050C00040764A6932438E691643EAE7002C014074
:1050D00030B4036A23F480730362036A4568C269CB
:1050E00022F073020C68224323F400738C6843EAB5
:1050F00004230F4CA04209D00D4CA0420ED04560B5
:10510000C2614A68C263036230BC704723F4006323
:10511000CC6843EA042323F48063EDE725F440558B
:105120004C6945EA04158C6945EA0415E7E700BFB8
:10513000002C014030B4036A23F480530362036AF5
:105140004468C26922F4E6420D6842EA052223F46B
:1051500000538D6843EA0533074DA84206D04460EA
:10516000C2614A680264036230BC704724F4804420
:105170004D6944EA8514F2E7002C014030B4036A1B
:10518000056A25F001050562846924F0F00444EA0B
:10519000021423F00A030B438461036230BC70479E
:1051A00030B4056A25F0100505628469036A24F4A9
:1051B000704444EA023423F0A00343EA01138461FB
:1051C000036230BC7047836823F070030B4343F0E5
:1051D000070383607047000090F83D30DBB2012B7D
:1051E00027D1022380F83D300268D36843F00103E1
:1051F000D3600368114A934210D0B3F1804F0DD0B1
:10520000A2F59432934209D002F58062934205D010
:105210001A6842F001021A60002070479A6802F092
:105220000702062A07D01A6842F001021A6000201D
:105230007047012070470020704700BF002C0140DC
:1052400010B5044603681A6912F0020F13D0DA6829
:1052500012F0020F0FD06FF002021A6101230377E0
:1052600003689B6913F0030F00F09280D0F8903030
:1052700098470023237723681A6912F0040F14D08B
:10528000DA6812F0040F10D06FF004021A610223E2
:10529000237723689B6913F4407F00F08180D4F862
:1052A0009030204698470023237723681A6912F02C
:1052B000080F13D0DA6812F0080F0FD06FF0080251
:1052C0001A61042323772368DB6913F0030F70D07E
:1052D000D4F89030204698470023237723681A6932
:1052E00012F0100F13D0DA6812F0100F0FD06FF019
:1052F00010021A61082323772368DB6913F4407FC7
:1053000060D0D4F890302046984700232377236854
:105310001A6912F0010F0AD0DA6812F0010F06D0F4
:105320006FF001021A61D4F8803020469847236854
:105330001A6912F0800F0AD0DA6812F0800F06D0D6
:105340006FF080021A61D4F8B03020469847236885
:105350001A6912F0400F0AD0DA6812F0400F06D036
:105360006FF040021A61D4F88830204698472368CD
:105370001A6912F0200F0AD0DA6812F0200F06D056
:105380006FF020021A61D4F8A8302046984710BD6B
:10539000D0F898309847D4F89C302046984768E772
:1053A000D4F8983020469847D4F89C302046984747
:1053B00079E7D4F8983020469847D4F89C302046B6
:1053C000984789E7D4F8983020469847D4F89C301D
:1053D0002046984799E7002A00F0B68010B40346AB
:1053E000144690F83C20012A00F0B08090F83D006F
:1053F000C0B2012812D093F83D2002F0FF00002A2D
:1054000040F09A800D2900F29D80DFE801F0787B62
:105410007D7F81838587898B8D8F91931A2900F2F7
:105420008C80DFE801F00E1114171A1D20232629A5
:105430002C2F3235383C4044484C5054585C606402
:1054400068009C64084678E0DC64002075E01C6518
:10545000002072E05C6500206FE09C6500206CE03D
:10546000DC65002069E01C66002066E05C660020C8
:1054700063E09C66002060E0DC6600205DE01C6765
:1054800000205AE05C67002057E09C67002054E051
:10549000DC67002051E0C3F8804000204DE0C3F8F5
:1054A0008440002049E0C3F88840002045E0C3F86C
:1054B0008C40002041E0C3F8904000203DE0C3F85C
:1054C0009440002039E0C3F89840002035E0C3F84C
:1054D0009C40002031E0C3F8A04000202DE0C3F83C
:1054E000A440002029E0C3F8A840002025E0C3F82C
:1054F000AC40002021E0C3F8B04000201DE09C64D7
:1055000008461AE0DC6418E01C6516E05C6514E0EF
:105510009C6512E0DC6510E01C660EE05C660CE049
:105520009C660AE0DC6608E01C6706E05C6704E055
:105530009C6702E0DC6700E00120002283F83C2049
:1055400010BC70470120F8E7012070470220F7E700
:1055500003681B4A90420AD0B0F1804F07D0A2F5F1
:105560009432904203D002F58062904203D123F03E
:1055700070034A681343124A90420AD0B0F1804F38
:1055800007D0A2F59432904203D002F58062904297
:1055900003D123F44073CA68134323F080034A699C
:1055A000134303608B68C3620B688362044B9842A9
:1055B00002D00123436170470B690363F9E700BF21
:1055C000002C014030B4036A23F010030362036A25
:1055D0004468826922F4E6420D6842EA052223F01B
:1055E00020038D6843EA05130E4DA84209D00D4DE6
:1055F000A8420ED0446082614A688263036230BC74
:10560000704723F08003CD6843EA051323F040037D
:10561000EDE724F440644D6944EA85048D6944EA69
:105620008504E7E7002C014038B590F83C30012BA9
:1056300060D004460D46012380F83C300C2A1AD86D
:10564000DFE802F0071919191D191919311919196B
:1056500044000068FFF70EFD2268936943F00803D9
:1056600093612268936923F004039361226893692C
:1056700029690B439361002084F83C0038BD006821
:10568000FFF7A0FF2268936943F4006393612268E7
:10569000936923F48063936122689369296943EADB
:1056A00001239361E7E70068FFF712FD2268D369E1
:1056B00043F00803D3612268D36923F00403D36164
:1056C0002268D36929690B43D361D4E70068FFF7E7
:1056D00031FD2268D36943F40063D3612268D36942
:1056E00023F48063D3612268D369296943EA0123E3
:1056F000D361C0E70220C1E710B4846824F47F447A
:1057000042EA03220A432243826010BC704790F8A9
:105710003C30012B66D010B50446012380F83C30A4
:10572000022380F83D300268936823F47F4323F01E
:10573000770393600B68602B40D022D8402B47D072
:105740000BD9502B0ED1CA6849680068FFF716FDC7
:1057500050212068FFF737FD04E0202B0CD008D93A
:10576000302B09D0012384F83D30002084F83C0020
:1057700010BD0BB1102BF5D119462068FFF723FDA2
:10578000F0E7702B0ED0B3F5005FEBD1CB684A6821
:1057900089680068FFF7B0FF2268936843F480438C
:1057A0009360DFE7CB684A6889680068FFF7A4FF69
:1057B0002268936843F077039360D3E7CA68496827
:1057C0000068FFF7EDFC60212068FFF7FCFCC9E7EB
:1057D000CA6849680068FFF7D1FC40212068FFF7DC
:1057E000F2FCBFE70220704710B401F01F01012353
:1057F00003FA01F4036A23EA04030362036A02FA68
:1058000001F10B43036210BC7047000010B5044661
:10581000084651BB94F83E30DBB2013B18BF012370
:10582000002B5BD1002839D1022384F83E300122BD
:1058300001462068FFF7D8FF23682A4A93423DD0EB
:105840002368284A93423ED0B3F1804F3BD0A2F563
:105850009432934237D002F58062934233D01A6873
:1058600042F001021A60002039E0042908D008291A
:105870000DD094F84130DBB2013B18BF0123CFE7D4
:1058800094F83F30DBB2013B18BF0123C8E794F81E
:105890004030DBB2013B18BF0123C1E7042805D02B
:1058A000082807D0022384F84130C0E7022384F897
:1058B0003F30BCE7022384F84030B8E75A6C42F42A
:1058C00000425A64BCE79A6802F00702062A07D031
:1058D0001A6842F001021A60002000E0012010BDA9
:1058E0000020FCE7002C0140134BC0F88030134B24
:1058F000C0F88430124BC0F88830124BC0F88C309E
:10590000114BC0F89030114BC0F89430104BC0F8D8
:105910009830104BC0F89C300F4BC0F8A0300F4BA4
:10592000C0F8A4300E4BC0F8A8300E4BC0F8AC3015
:105930000D4BC0F8B03070475F5000086150000850
:105940006D5000086F50000865500008675000084F
:1059500063500008695000086B500008715000083F
:10596000FF5A0008015B0008035B000880B310B514
:10597000044690F83D30F3B1022384F83D302146CF
:1059800051F8040BFFF7E4FD012384F8463084F856
:105990003E3084F83F3084F8403084F8413084F859
:1059A000423084F8433084F8443084F8453084F839
:1059B0003D30002010BD80F83C30FFF795FFA36C10
:1059C0001BB1A36C20469847D6E7024BA364F8E7C7
:1059D00001207047B978000880B310B5044690F8EC
:1059E0003D30F3B1022384F83D30214651F8040BD9
:1059F000FFF7AEFD012384F8463084F83E3084F88A
:105A00003F3084F8403084F8413084F8423084F8E4
:105A1000433084F8443084F8453084F83D30002029
:105A200010BD80F83C30FFF75FFF236E1BB1236E83
:105A300020469847D6E7024B2366F8E701207047D7
:105A40005D50000890F83C30012B2BD030B401237E
:105A500080F83C30022380F83D3003685C689D6824
:105A600024F070040A6822435A6003680E4A934285
:105A70000AD0B3F1804F07D0A2F59432934203D0FD
:105A800002F58062934204D125F080054A681543EF
:105A90009D60012380F83D30002380F83C3018469B
:105AA00030BC704702207047002C014090F83C3019
:105AB000012B22D0012380F83C30CB6823F44073C3
:105AC0008A68134323F480634A68134323F4006312
:105AD0000A68134323F480530A69134323F40053E1
